{
  "contractName": "EdDSA",
  "abi": [
    {
      "constant": true,
      "inputs": [
        {
          "name": "data",
          "type": "bytes"
        }
      ],
      "name": "HashToInt",
      "outputs": [
        {
          "name": "",
          "type": "uint256"
        }
      ],
      "payable": false,
      "stateMutability": "pure",
      "type": "function"
    },
    {
      "constant": true,
      "inputs": [
        {
          "name": "pubkey",
          "type": "uint256[2]"
        },
        {
          "name": "hashed_msg",
          "type": "uint256"
        },
        {
          "name": "R",
          "type": "uint256[2]"
        },
        {
          "name": "s",
          "type": "uint256"
        }
      ],
      "name": "Verify",
      "outputs": [
        {
          "name": "",
          "type": "bool"
        }
      ],
      "payable": false,
      "stateMutability": "view",
      "type": "function"
    }
  ],
  "bytecode": "0x608060405234801561001057600080fd5b50610b1a806100206000396000f3fe608060405234801561001057600080fd5b5060043610610053576000357c010000000000000000000000000000000000000000000000000000000090048063d0f9f7d014610058578063da04732114610127575b600080fd5b6101116004803603602081101561006e57600080fd5b810190808035906020019064010000000081111561008b57600080fd5b82018360208201111561009d57600080fd5b803590602001918460018302840111640100000000831117156100bf57600080fd5b91908080601f016020809104026020016040519081016040528093929190818152602001838380828437600081840152601f19601f8201169050808301925050505050505091929192905050506101f9565b6040518082815260200191505060405180910390f35b6101df600480360360c081101561013d57600080fd5b8101908080604001906002806020026040519081016040528092919082600260200280828437600081840152601f19601f82011690508083019250505050505091929192908035906020019092919080604001906002806020026040519081016040528092919082600260200280828437600081840152601f19601f8201169050808301925050505050509192919290803590602001909291905050506102d3565b604051808215151515815260200191505060405180910390f35b6000806002836040518082805190602001908083835b602083101515610234578051825260208201915060208101905060208303925061020f565b6001836020036101000a038019825116818451168082178552505050505050905001915050602060405180830381855afa158015610276573d6000803e3d6000fd5b5050506040513d602081101561028b57600080fd5b810190808051906020019092919050505060019004905060007f03ffffffffffffffffffffffffffffffffffffffffffffffffffffffffffffff905080821692505050919050565b60006102dd610a63565b6102e56104b9565b90506102ef610a63565b6102f7610a63565b61032883600060028110151561030957fe5b602002015184600160028110151561031d57fe5b60200201518761051b565b83600060028110151561033757fe5b6020020184600160028110151561034a57fe5b602002018281525082815250505060006103ee87600060028110151561036c57fe5b602002015188600160028110151561038057fe5b60200201518b600060028110151561039457fe5b60200201518c60016002811015156103a857fe5b60200201518c60405160200180868152602001858152602001848152602001838152602001828152602001955050505050506040516020818303038152906040526101f9565b905061042189600060028110151561040257fe5b60200201518a600160028110151561041657fe5b60200201518361051b565b83600060028110151561043057fe5b6020020184600160028110151561044357fe5b602002018281525082815250505081600060028110151561046057fe5b602002015183600060028110151561047457fe5b60200201511480156104ab575081600160028110151561049057fe5b60200201518360016002811015156104a457fe5b6020020151145b945050505050949350505050565b6104c1610a63565b60408051908101604052807f274dbce8d15179969bc0d49fa725bddf9de555e0ba6a693c6adb52fc9ee7a82c81526020017f05ce98c61b05f47fe2eae9a542bd99f6b2e78246231640b54595febfd51eb853815250905090565b600080610526610a85565b6105308686610679565b83600060048110151561053f57fe5b6020020184600160048110151561055257fe5b6020020185600260048110151561056557fe5b60200201838152508381525083815250505050600181600360048110151561058957fe5b60200201818152505061059a610a85565b6080604051908101604052806000815260200160018152602001600081526020016001815250905060008090505b600086141515610612576000600187161415156105ec576105e982846106ba565b91505b6105f683846106ba565b925060028681151561060457fe5b0495506001810190506105c8565b61066a82600060048110151561062457fe5b602002015183600160048110151561063857fe5b602002015184600260048110151561064c57fe5b602002015185600360048110151561066057fe5b60200201516108cc565b94509450505050935093915050565b600080600084847f30644e72e131a029b85045b68181585d2833e84879b9709143e1f593f00000018015156106aa57fe5b8688099250925092509250925092565b6106c2610a85565b60008360006004811015156106d357fe5b60200201511480156106f8575060018360016004811015156106f157fe5b6020020151145b80156107175750600083600260048110151561071057fe5b6020020151145b80156107365750600183600360048110151561072f57fe5b6020020151145b15610743578190506108c6565b600082600060048110151561075457fe5b60200201511480156107795750600182600160048110151561077257fe5b6020020151145b80156107985750600082600260048110151561079157fe5b6020020151145b80156107b7575060018260036004811015156107b057fe5b6020020151145b156107c4578290506108c6565b7f30644e72e131a029b85045b68181585d2833e84879b9709143e1f593f0000001620292fc620292f88285518751098360208701516020890151098460408801518660408b015186090985606089015160608b015109868760208b01518b51088860208d01518d5108096001850181101561083f5787810190505b87858203069050600184018110156108575787810190505b8784820306905081600184018110156108705788810190505b888482030690508884840889878a098660018201811015610891578b810190505b8b8282030690508b8486098d528b81840960208e01528b81860960408e01528b83850960608e01525050505050505050505050505b92915050565b6000806108f9837f30644e72e131a029b85045b68181585d2833e84879b9709143e1f593f0000001610962565b92507f30644e72e131a029b85045b68181585d2833e84879b9709143e1f593f000000180151561092557fe5b8387097f30644e72e131a029b85045b68181585d2833e84879b9709143e1f593f000000180151561095257fe5b8487099150915094509492505050565b600061097283600284038461097a565b905092915050565b6000610984610aa8565b61098c610acb565b602081600060068110151561099d57fe5b60200201818152505060208160016006811015156109b757fe5b60200201818152505060208160026006811015156109d157fe5b602002018181525050858160036006811015156109ea57fe5b60200201818152505084816004600681101515610a0357fe5b60200201818152505083816005600681101515610a1c57fe5b602002018181525050600060208360c08460056107d05a03fa9050801515610a4357600080fd5b826000600181101515610a5257fe5b602002015193505050509392505050565b6040805190810160405280600290602082028038833980820191505090505090565b608060405190810160405280600490602082028038833980820191505090505090565b602060405190810160405280600190602082028038833980820191505090505090565b60c06040519081016040528060069060208202803883398082019150509050509056fea165627a7a72305820f9657302f178156e7628327652a48d548951d794ee51caacd79b6e92294f71d40029",
  "source": "// Copyright (c) 2018 @HarryR\n// License: LGPL-3.0+\n\npragma solidity >=0.5.0;\n\nimport \"./JubJub.sol\";\n\n\ncontract EdDSA\n{\n    function HashToInt( bytes memory data )\n        public pure returns (uint256)\n    {\n        uint256 hashed = uint256(sha256(data));\n\n        // (2<<249) - 1\n        uint256 mask = 1809251394333065553493296640760748560207343510400633813116524750123642650623;\n\n        return hashed & mask;\n    }\n\n    function Verify( uint256[2] memory pubkey, uint256 hashed_msg, uint256[2] memory R, uint256 s )\n        public view returns (bool)\n    {\n        uint256[2] memory B = JubJub.Generator();\n        uint256[2] memory lhs;\n        uint256[2] memory rhs;\n\n        (lhs[0], lhs[1]) = JubJub.scalarMult(B[0], B[1], s);\n\n        uint256 t = HashToInt(abi.encodePacked(\n            R[0], R[1],\n            pubkey[0], pubkey[1],\n            hashed_msg\n            ));\n\n        (rhs[0], rhs[1]) = JubJub.scalarMult(pubkey[0], pubkey[1], t);\n\n        return lhs[0] == rhs[0] && lhs[1] == rhs[1];\n    }\n}",
  "sourcePath": "/home/user/snappframes/contracts/contracts/dependencies/EdDSA.sol",
  "compiler": {
    "name": "solc",
    "version": "0.5.2+commit.1df8f40c.Emscripten.clang"
  },
  "schemaVersion": "3.0.6",
  "updatedAt": "2019-04-09T22:40:41.372Z",
  "devdoc": {
    "methods": {}
  },
  "userdoc": {
    "methods": {}
  }
}