{
  "contractName": "SnappframesFactory",
  "abi": [
    {
      "constant": false,
      "inputs": [
        {
          "name": "_owner",
          "type": "address"
        }
      ],
      "name": "init",
      "outputs": [],
      "payable": false,
      "stateMutability": "nonpayable",
      "type": "function"
    },
    {
      "constant": true,
      "inputs": [],
      "name": "minimumFee",
      "outputs": [
        {
          "name": "",
          "type": "uint256"
        }
      ],
      "payable": false,
      "stateMutability": "view",
      "type": "function"
    },
    {
      "constant": true,
      "inputs": [
        {
          "name": "",
          "type": "uint256"
        }
      ],
      "name": "children",
      "outputs": [
        {
          "name": "",
          "type": "address"
        }
      ],
      "payable": false,
      "stateMutability": "view",
      "type": "function"
    },
    {
      "constant": false,
      "inputs": [],
      "name": "acceptOwnership",
      "outputs": [],
      "payable": false,
      "stateMutability": "nonpayable",
      "type": "function"
    },
    {
      "constant": true,
      "inputs": [],
      "name": "owner",
      "outputs": [
        {
          "name": "",
          "type": "address"
        }
      ],
      "payable": false,
      "stateMutability": "view",
      "type": "function"
    },
    {
      "constant": true,
      "inputs": [],
      "name": "newAddress",
      "outputs": [
        {
          "name": "",
          "type": "address"
        }
      ],
      "payable": false,
      "stateMutability": "view",
      "type": "function"
    },
    {
      "constant": true,
      "inputs": [],
      "name": "newOwner",
      "outputs": [
        {
          "name": "",
          "type": "address"
        }
      ],
      "payable": false,
      "stateMutability": "view",
      "type": "function"
    },
    {
      "constant": false,
      "inputs": [
        {
          "name": "_newOwner",
          "type": "address"
        }
      ],
      "name": "transferOwnership",
      "outputs": [],
      "payable": false,
      "stateMutability": "nonpayable",
      "type": "function"
    },
    {
      "constant": true,
      "inputs": [
        {
          "name": "",
          "type": "address"
        }
      ],
      "name": "isChild",
      "outputs": [
        {
          "name": "",
          "type": "bool"
        }
      ],
      "payable": false,
      "stateMutability": "view",
      "type": "function"
    },
    {
      "inputs": [],
      "payable": false,
      "stateMutability": "nonpayable",
      "type": "constructor"
    },
    {
      "payable": true,
      "stateMutability": "payable",
      "type": "fallback"
    },
    {
      "anonymous": false,
      "inputs": [
        {
          "indexed": false,
          "name": "_newAddress",
          "type": "address"
        }
      ],
      "name": "FactoryDeprecated",
      "type": "event"
    },
    {
      "anonymous": false,
      "inputs": [
        {
          "indexed": false,
          "name": "oldFee",
          "type": "uint256"
        },
        {
          "indexed": false,
          "name": "newFee",
          "type": "uint256"
        }
      ],
      "name": "MinimumFeeUpdated",
      "type": "event"
    },
    {
      "anonymous": false,
      "inputs": [
        {
          "indexed": true,
          "name": "owner",
          "type": "address"
        },
        {
          "indexed": true,
          "name": "token",
          "type": "address"
        },
        {
          "indexed": false,
          "name": "symbol",
          "type": "string"
        },
        {
          "indexed": false,
          "name": "name",
          "type": "string"
        },
        {
          "indexed": false,
          "name": "totalSupply",
          "type": "uint256"
        },
        {
          "indexed": false,
          "name": "dataHash",
          "type": "uint256"
        },
        {
          "indexed": false,
          "name": "stateHash",
          "type": "uint256"
        }
      ],
      "name": "TokenDeployed",
      "type": "event"
    },
    {
      "anonymous": false,
      "inputs": [
        {
          "indexed": true,
          "name": "_from",
          "type": "address"
        },
        {
          "indexed": true,
          "name": "_to",
          "type": "address"
        }
      ],
      "name": "OwnershipTransferred",
      "type": "event"
    },
    {
      "constant": true,
      "inputs": [],
      "name": "numberOfChildren",
      "outputs": [
        {
          "name": "",
          "type": "uint256"
        }
      ],
      "payable": false,
      "stateMutability": "view",
      "type": "function"
    },
    {
      "constant": false,
      "inputs": [
        {
          "name": "_newAddress",
          "type": "address"
        }
      ],
      "name": "deprecateFactory",
      "outputs": [],
      "payable": false,
      "stateMutability": "nonpayable",
      "type": "function"
    },
    {
      "constant": false,
      "inputs": [
        {
          "name": "_minimumFee",
          "type": "uint256"
        }
      ],
      "name": "setMinimumFee",
      "outputs": [],
      "payable": false,
      "stateMutability": "nonpayable",
      "type": "function"
    },
    {
      "constant": false,
      "inputs": [
        {
          "name": "symbol",
          "type": "string"
        },
        {
          "name": "name",
          "type": "string"
        },
        {
          "name": "totalSupply",
          "type": "uint256"
        },
        {
          "name": "dataHash",
          "type": "uint256"
        },
        {
          "name": "stateHash",
          "type": "uint256"
        },
        {
          "name": "mimcAddr",
          "type": "address"
        },
        {
          "name": "eddsaAddr",
          "type": "address"
        }
      ],
      "name": "deployTokenContract",
      "outputs": [
        {
          "name": "token",
          "type": "address"
        }
      ],
      "payable": true,
      "stateMutability": "payable",
      "type": "function"
    }
  ],
  "bytecode": "0x608060405267016345785d8a000060035534801561001c57600080fd5b506100393361003e640100000000026106fe176401000000009004565b6100dd565b600073ffffffffffffffffffffffffffffffffffffffff166000809054906101000a900473ffffffffffffffffffffffffffffffffffffffff1673ffffffffffffffffffffffffffffffffffffffff1614151561009a57600080fd5b806000806101000a81548173ffffffffffffffffffffffffffffffffffffffff021916908373ffffffffffffffffffffffffffffffffffffffff16021790555050565b612db6806100ec6000396000f3fe6080604052600436106100df576000357c01000000000000000000000000000000000000000000000000000000009004806379ba50971161009c578063d4ee1d9011610076578063d4ee1d90146104f6578063de0946af1461054d578063f2fde38b1461059e578063fc91a897146105ef576100df565b806379ba5097146104315780638da5cb5b14610448578063ccdb3f451461049f576100df565b8063182a7506146100e457806319ab453c1461011f5780631a7626e7146101705780632a5c957f1461019b578063534349f51461038b5780637002ce42146103b6575b600080fd5b3480156100f057600080fd5b5061011d6004803603602081101561010757600080fd5b8101908080359060200190929190505050610658565b005b34801561012b57600080fd5b5061016e6004803603602081101561014257600080fd5b81019080803573ffffffffffffffffffffffffffffffffffffffff1690602001909291905050506106fe565b005b34801561017c57600080fd5b5061018561079d565b6040518082815260200191505060405180910390f35b610349600480360360e08110156101b157600080fd5b81019080803590602001906401000000008111156101ce57600080fd5b8201836020820111156101e057600080fd5b8035906020019184600183028401116401000000008311171561020257600080fd5b91908080601f016020809104026020016040519081016040528093929190818152602001838380828437600081840152601f19601f8201169050808301925050505050505091929192908035906020019064010000000081111561026557600080fd5b82018360208201111561027757600080fd5b8035906020019184600183028401116401000000008311171561029957600080fd5b91908080601f016020809104026020016040519081016040528093929190818152602001838380828437600081840152601f19601f820116905080830192505050505050509192919290803590602001909291908035906020019092919080359060200190929190803573ffffffffffffffffffffffffffffffffffffffff169060200190929190803573ffffffffffffffffffffffffffffffffffffffff1690602001909291905050506107a3565b604051808273ffffffffffffffffffffffffffffffffffffffff1673ffffffffffffffffffffffffffffffffffffffff16815260200191505060405180910390f35b34801561039757600080fd5b506103a0610ca4565b6040518082815260200191505060405180910390f35b3480156103c257600080fd5b506103ef600480360360208110156103d957600080fd5b8101908080359060200190929190505050610cb1565b604051808273ffffffffffffffffffffffffffffffffffffffff1673ffffffffffffffffffffffffffffffffffffffff16815260200191505060405180910390f35b34801561043d57600080fd5b50610446610cef565b005b34801561045457600080fd5b5061045d610e8e565b604051808273ffffffffffffffffffffffffffffffffffffffff1673ffffffffffffffffffffffffffffffffffffffff16815260200191505060405180910390f35b3480156104ab57600080fd5b506104b4610eb3565b604051808273ffffffffffffffffffffffffffffffffffffffff1673ffffffffffffffffffffffffffffffffffffffff16815260200191505060405180910390f35b34801561050257600080fd5b5061050b610ed9565b604051808273ffffffffffffffffffffffffffffffffffffffff1673ffffffffffffffffffffffffffffffffffffffff16815260200191505060405180910390f35b34801561055957600080fd5b5061059c6004803603602081101561057057600080fd5b81019080803573ffffffffffffffffffffffffffffffffffffffff169060200190929190505050610eff565b005b3480156105aa57600080fd5b506105ed600480360360208110156105c157600080fd5b81019080803573ffffffffffffffffffffffffffffffffffffffff16906020019092919050505061105e565b005b3480156105fb57600080fd5b5061063e6004803603602081101561061257600080fd5b81019080803573ffffffffffffffffffffffffffffffffffffffff1690602001909291905050506110fd565b604051808215151515815260200191505060405180910390f35b6000809054906101000a900473ffffffffffffffffffffffffffffffffffffffff1673ffffffffffffffffffffffffffffffffffffffff163373ffffffffffffffffffffffffffffffffffffffff161415156106b357600080fd5b7fcc2f49c6214278ae5862935eff953448e8e69118d10abfafaf63ea6aa35255cb60035482604051808381526020018281526020019250505060405180910390a18060038190555050565b600073ffffffffffffffffffffffffffffffffffffffff166000809054906101000a900473ffffffffffffffffffffffffffffffffffffffff1673ffffffffffffffffffffffffffffffffffffffff1614151561075a57600080fd5b806000806101000a81548173ffffffffffffffffffffffffffffffffffffffff021916908373ffffffffffffffffffffffffffffffffffffffff16021790555050565b60035481565b600060035434101515156107b657600080fd5b6000861115156107c557600080fd5b6107cd61111d565b604051809103906000f0801580156107e9573d6000803e3d6000fd5b5090508073ffffffffffffffffffffffffffffffffffffffff1663bb18c534338a8a8a8a8a8a8a6040518963ffffffff167c0100000000000000000000000000000000000000000000000000000000028152600401808973ffffffffffffffffffffffffffffffffffffffff1673ffffffffffffffffffffffffffffffffffffffff16815260200180602001806020018881526020018781526020018681526020018573ffffffffffffffffffffffffffffffffffffffff1673ffffffffffffffffffffffffffffffffffffffff1681526020018473ffffffffffffffffffffffffffffffffffffffff1673ffffffffffffffffffffffffffffffffffffffff16815260200183810383528a818151815260200191508051906020019080838360005b8381101561092757808201518184015260208101905061090c565b50505050905090810190601f1680156109545780820380516001836020036101000a031916815260200191505b50838103825289818151815260200191508051906020019080838360005b8381101561098d578082015181840152602081019050610972565b50505050905090810190601f1680156109ba5780820380516001836020036101000a031916815260200191505b509a5050505050505050505050600060405180830381600087803b1580156109e157600080fd5b505af11580156109f5573d6000803e3d6000fd5b505050506001600460008373ffffffffffffffffffffffffffffffffffffffff1673ffffffffffffffffffffffffffffffffffffffff16815260200190815260200160002060006101000a81548160ff02191690831515021790555060058190806001815401808255809150509060018203906000526020600020016000909192909190916101000a81548173ffffffffffffffffffffffffffffffffffffffff021916908373ffffffffffffffffffffffffffffffffffffffff160217905550506000341115610b29576000809054906101000a900473ffffffffffffffffffffffffffffffffffffffff1673ffffffffffffffffffffffffffffffffffffffff166108fc349081150290604051600060405180830381858888f19350505050158015610b27573d6000803e3d6000fd5b505b8073ffffffffffffffffffffffffffffffffffffffff166000809054906101000a900473ffffffffffffffffffffffffffffffffffffffff1673ffffffffffffffffffffffffffffffffffffffff167f7dcf0b62b3d9433b7d8be4fb0f593ac11dbc31884d09ef028740aaeaa8d867fd8a8a8a8a8a604051808060200180602001868152602001858152602001848152602001838103835288818151815260200191508051906020019080838360005b83811015610bf4578082015181840152602081019050610bd9565b50505050905090810190601f168015610c215780820380516001836020036101000a031916815260200191505b50838103825287818151815260200191508051906020019080838360005b83811015610c5a578082015181840152602081019050610c3f565b50505050905090810190601f168015610c875780820380516001836020036101000a031916815260200191505b5097505050505050505060405180910390a3979650505050505050565b6000600580549050905090565b600581815481101515610cc057fe5b906000526020600020016000915054906101000a900473ffffffffffffffffffffffffffffffffffffffff1681565b600160009054906101000a900473ffffffffffffffffffffffffffffffffffffffff1673ffffffffffffffffffffffffffffffffffffffff163373ffffffffffffffffffffffffffffffffffffffff16141515610d4b57600080fd5b600160009054906101000a900473ffffffffffffffffffffffffffffffffffffffff1673ffffffffffffffffffffffffffffffffffffffff166000809054906101000a900473ffffffffffffffffffffffffffffffffffffffff1673ffffffffffffffffffffffffffffffffffffffff167f8be0079c531659141344cd1fd0a4f28419497f9722a3daafe3b4186f6b6457e060405160405180910390a3600160009054906101000a900473ffffffffffffffffffffffffffffffffffffffff166000806101000a81548173ffffffffffffffffffffffffffffffffffffffff021916908373ffffffffffffffffffffffffffffffffffffffff1602179055506000600160006101000a81548173ffffffffffffffffffffffffffffffffffffffff021916908373ffffffffffffffffffffffffffffffffffffffff160217905550565b6000809054906101000a900473ffffffffffffffffffffffffffffffffffffffff1681565b600260009054906101000a900473ffffffffffffffffffffffffffffffffffffffff1681565b600160009054906101000a900473ffffffffffffffffffffffffffffffffffffffff1681565b6000809054906101000a900473ffffffffffffffffffffffffffffffffffffffff1673ffffffffffffffffffffffffffffffffffffffff163373ffffffffffffffffffffffffffffffffffffffff16141515610f5a57600080fd5b600073ffffffffffffffffffffffffffffffffffffffff16600260009054906101000a900473ffffffffffffffffffffffffffffffffffffffff1673ffffffffffffffffffffffffffffffffffffffff16141515610fb757600080fd5b7f0ac885cfcac9d1450e80f787dbf9546001fb50414106435b10b1d27b448b866881604051808273ffffffffffffffffffffffffffffffffffffffff1673ffffffffffffffffffffffffffffffffffffffff16815260200191505060405180910390a180600260006101000a81548173ffffffffffffffffffffffffffffffffffffffff021916908373ffffffffffffffffffffffffffffffffffffffff16021790555050565b6000809054906101000a900473ffffffffffffffffffffffffffffffffffffffff1673ffffffffffffffffffffffffffffffffffffffff163373ffffffffffffffffffffffffffffffffffffffff161415156110b957600080fd5b80600160006101000a81548173ffffffffffffffffffffffffffffffffffffffff021916908373ffffffffffffffffffffffffffffffffffffffff16021790555050565b60046020528060005260406000206000915054906101000a900460ff1681565b604051611c5d8061112e8339019056fe60806040526004600f60006101000a81548160ff021916908360ff1602179055506000600f60016101000a81548160ff021916908360ff16021790555060066010556103e860115534801561005357600080fd5b50611bfa806100636000396000f3fe608060405260043610610152576000357c01000000000000000000000000000000000000000000000000000000009004806395d89b41116100c8578063d4ee1d901161008c578063d4ee1d90146107ed578063da04732114610844578063dc837d4914610923578063f165053614610992578063f2fde38b146109bd578063f4d7606314610a0e57610152565b806395d89b41146104f8578063a2e6204514610588578063ae1869111461059f578063bb18c534146105b6578063d15ca1091461079457610152565b806334611d9a1161011a57806334611d9a1461036e578063570ca73514610399578063701da98e146103f057806371d8ded91461041b57806379ba50971461048a5780638da5cb5b146104a157610152565b806306fdde031461015757806316b57e87146101e757806318160ddd146102c757806319ab453c146102f25780631b3012a314610343575b600080fd5b34801561016357600080fd5b5061016c610b17565b6040518080602001828103825283818151815260200191508051906020019080838360005b838110156101ac578082015181840152602081019050610191565b50505050905090810190601f1680156101d95780820380516001836020036101000a031916815260200191505b509250505060405180910390f35b3480156101f357600080fd5b506102ad600480360361020081101561020b57600080fd5b81019080803590602001909291908060e001906007806020026040519081016040528092919082600760200280828437600081840152601f19601f82011690508083019250505050505091929192908060e001906007806020026040519081016040528092919082600760200280828437600081840152601f19601f820116905080830192505050505050919291929080359060200190929190505050610bb5565b604051808215151515815260200191505060405180910390f35b3480156102d357600080fd5b506102dc610ef6565b6040518082815260200191505060405180910390f35b3480156102fe57600080fd5b506103416004803603602081101561031557600080fd5b81019080803573ffffffffffffffffffffffffffffffffffffffff169060200190929190505050610efc565b005b34801561034f57600080fd5b50610358610f9b565b6040518082815260200191505060405180910390f35b34801561037a57600080fd5b50610383610fa1565b6040518082815260200191505060405180910390f35b3480156103a557600080fd5b506103ae610fa7565b604051808273ffffffffffffffffffffffffffffffffffffffff1673ffffffffffffffffffffffffffffffffffffffff16815260200191505060405180910390f35b3480156103fc57600080fd5b50610405610fcd565b6040518082815260200191505060405180910390f35b6104886004803603606081101561043157600080fd5b810190808035906020019092919080604001906002806020026040519081016040528092919082600260200280828437600081840152601f19601f8201169050808301925050505050509192919290505050610fd3565b005b34801561049657600080fd5b5061049f6111af565b005b3480156104ad57600080fd5b506104b661134e565b604051808273ffffffffffffffffffffffffffffffffffffffff1673ffffffffffffffffffffffffffffffffffffffff16815260200191505060405180910390f35b34801561050457600080fd5b5061050d611373565b6040518080602001828103825283818151815260200191508051906020019080838360005b8381101561054d578082015181840152602081019050610532565b50505050905090810190601f16801561057a5780820380516001836020036101000a031916815260200191505b509250505060405180910390f35b34801561059457600080fd5b5061059d611411565b005b3480156105ab57600080fd5b506105b461146e565b005b3480156105c257600080fd5b5061079260048036036101008110156105da57600080fd5b81019080803573ffffffffffffffffffffffffffffffffffffffff1690602001909291908035906020019064010000000081111561061757600080fd5b82018360208201111561062957600080fd5b8035906020019184600183028401116401000000008311171561064b57600080fd5b91908080601f016020809104026020016040519081016040528093929190818152602001838380828437600081840152601f19601f820116905080830192505050505050509192919290803590602001906401000000008111156106ae57600080fd5b8201836020820111156106c057600080fd5b803590602001918460018302840111640100000000831117156106e257600080fd5b91908080601f016020809104026020016040519081016040528093929190818152602001838380828437600081840152601f19601f820116905080830192505050505050509192919290803590602001909291908035906020019092919080359060200190929190803573ffffffffffffffffffffffffffffffffffffffff169060200190929190803573ffffffffffffffffffffffffffffffffffffffff1690602001909291905050506115f1565b005b3480156107a057600080fd5b506107d7600480360360408110156107b757600080fd5b8101908080359060200190929190803590602001909291905050506116c9565b6040518082815260200191505060405180910390f35b3480156107f957600080fd5b506108026116d1565b604051808273ffffffffffffffffffffffffffffffffffffffff1673ffffffffffffffffffffffffffffffffffffffff16815260200191505060405180910390f35b34801561085057600080fd5b50610909600480360360c081101561086757600080fd5b8101908080604001906002806020026040519081016040528092919082600260200280828437600081840152601f19601f82011690508083019250505050505091929192908035906020019092919080604001906002806020026040519081016040528092919082600260200280828437600081840152601f19601f8201169050808301925050505050509192919290803590602001909291905050506116f7565b604051808215151515815260200191505060405180910390f35b34801561092f57600080fd5b5061097c6004803603604081101561094657600080fd5b81019080803573ffffffffffffffffffffffffffffffffffffffff16906020019092919080359060200190929190505050611701565b6040518082815260200191505060405180910390f35b34801561099e57600080fd5b506109a7611728565b6040518082815260200191505060405180910390f35b3480156109c957600080fd5b50610a0c600480360360208110156109e057600080fd5b81019080803573ffffffffffffffffffffffffffffffffffffffff16906020019092919050505061172e565b005b348015610a1a57600080fd5b50610b156004803603610240811015610a3257600080fd5b810190808035906020019092919080604001906002806020026040519081016040528092919082600260200280828437600081840152601f19601f82011690508083019250505050505091929192908060e001906007806020026040519081016040528092919082600760200280828437600081840152601f19601f82011690508083019250505050505091929192908060e001906007806020026040519081016040528092919082600760200280828437600081840152601f19601f8201169050808301925050505050509192919290803590602001909291905050506117cd565b005b60038054600181600116156101000203166002900480601f016020809104026020016040519081016040528092919081815260200182805460018160011615610100020316600290048015610bad5780601f10610b8257610100808354040283529160200191610bad565b820191906000526020600020905b815481529060010190602001808311610b9057829003601f168201915b505050505081565b6000610bbf611aa4565b6000856000600781101515610bd057fe5b60200201518703856000600781101515610be657fe5b60200201510287039050600087876000600781101515610c0257fe5b602002015103866000600781101515610c1757fe5b602002015102876000600781101515610c2c57fe5b6020020151039050601260009054906101000a900473ffffffffffffffffffffffffffffffffffffffff1673ffffffffffffffffffffffffffffffffffffffff1663d15ca10983836040518363ffffffff167c0100000000000000000000000000000000000000000000000000000000028152600401808381526020018281526020019250505060206040518083038186803b158015610ccb57600080fd5b505afa158015610cdf573d6000803e3d6000fd5b505050506040513d6020811015610cf557600080fd5b8101908080519060200190929190505050836000600781101515610d1557fe5b6020020181815250506000600190505b6003811015610ed257876000600781101515610d3d57fe5b60200201518460018303600781101515610d5357fe5b6020020151038782600781101515610d6757fe5b6020020151028460018303600781101515610d7e57fe5b60200201510392508360018203600781101515610d9757fe5b6020020151886000600781101515610dab57fe5b6020020151038782600781101515610dbf57fe5b602002015102886000600781101515610dd457fe5b6020020151039150601260009054906101000a900473ffffffffffffffffffffffffffffffffffffffff1673ffffffffffffffffffffffffffffffffffffffff1663d15ca10984846040518363ffffffff167c0100000000000000000000000000000000000000000000000000000000028152600401808381526020018281526020019250505060206040518083038186803b158015610e7357600080fd5b505afa158015610e87573d6000803e3d6000fd5b505050506040513d6020811015610e9d57600080fd5b81019080805190602001909291905050508482600781101515610ebc57fe5b6020020181815250508080600101915050610d25565b5084836002600781101515610ee357fe5b6020020151149350505050949350505050565b60045481565b600073ffffffffffffffffffffffffffffffffffffffff166000809054906101000a900473ffffffffffffffffffffffffffffffffffffffff1673ffffffffffffffffffffffffffffffffffffffff16141515610f5857600080fd5b806000806101000a81548173ffffffffffffffffffffffffffffffffffffffff021916908373ffffffffffffffffffffffffffffffffffffffff16021790555050565b60055481565b60085481565b600760009054906101000a900473ffffffffffffffffffffffffffffffffffffffff1681565b60065481565b600f60009054906101000a900460ff1660ff16600f60019054906101000a900460ff1660ff161115151561100657600080fd5b601154341015151561101757600080fd5b600f600181819054906101000a900460ff168092919060010191906101000a81548160ff021916908360ff160217905550503360096001600f60019054906101000a900460ff160360ff1660048110151561106e57fe5b0160006101000a81548173ffffffffffffffffffffffffffffffffffffffff021916908373ffffffffffffffffffffffffffffffffffffffff16021790555081600d60003373ffffffffffffffffffffffffffffffffffffffff1673ffffffffffffffffffffffffffffffffffffffff1681526020019081526020016000208190555080600e60003373ffffffffffffffffffffffffffffffffffffffff1673ffffffffffffffffffffffffffffffffffffffff16815260200190815260200160002090600261113f929190611ac7565b507fe1fffcc4923d04b559f4d29a8bfc6cda04eb5b0d3c460751c2402c5c5cc9109c3383604051808373ffffffffffffffffffffffffffffffffffffffff1673ffffffffffffffffffffffffffffffffffffffff1681526020018281526020019250505060405180910390a15050565b600160009054906101000a900473ffffffffffffffffffffffffffffffffffffffff1673ffffffffffffffffffffffffffffffffffffffff163373ffffffffffffffffffffffffffffffffffffffff1614151561120b57600080fd5b600160009054906101000a900473ffffffffffffffffffffffffffffffffffffffff1673ffffffffffffffffffffffffffffffffffffffff166000809054906101000a900473ffffffffffffffffffffffffffffffffffffffff1673ffffffffffffffffffffffffffffffffffffffff167f8be0079c531659141344cd1fd0a4f28419497f9722a3daafe3b4186f6b6457e060405160405180910390a3600160009054906101000a900473ffffffffffffffffffffffffffffffffffffffff166000806101000a81548173ffffffffffffffffffffffffffffffffffffffff021916908373ffffffffffffffffffffffffffffffffffffffff1602179055506000600160006101000a81548173ffffffffffffffffffffffffffffffffffffffff021916908373ffffffffffffffffffffffffffffffffffffffff160217905550565b6000809054906101000a900473ffffffffffffffffffffffffffffffffffffffff1681565b60028054600181600116156101000203166002900480601f0160208091040260200160405190810160405280929190818152602001828054600181600116156101000203166002900480156114095780601f106113de57610100808354040283529160200191611409565b820191906000526020600020905b8154815290600101906020018083116113ec57829003601f168201915b505050505081565b6000809054906101000a900473ffffffffffffffffffffffffffffffffffffffff1673ffffffffffffffffffffffffffffffffffffffff163373ffffffffffffffffffffffffffffffffffffffff1614151561146c57600080fd5b565b6000809054906101000a900473ffffffffffffffffffffffffffffffffffffffff1673ffffffffffffffffffffffffffffffffffffffff163373ffffffffffffffffffffffffffffffffffffffff161415156114c957600080fd5b7f1fb1047f612b2371ce2fabe1282c8126d06ec9bb7171c1db95ac91d3bab13fc7600960006004811015156114fa57fe5b0160009054906101000a900473ffffffffffffffffffffffffffffffffffffffff166009600f60009054906101000a900460ff1660ff1660048110151561153d57fe5b0160009054906101000a900473ffffffffffffffffffffffffffffffffffffffff16604051808373ffffffffffffffffffffffffffffffffffffffff1673ffffffffffffffffffffffffffffffffffffffff1681526020018273ffffffffffffffffffffffffffffffffffffffff1673ffffffffffffffffffffffffffffffffffffffff1681526020019250505060405180910390a16000600f60016101000a81548160ff021916908360ff160217905550565b6115fa88610efc565b8660029080519060200190611610929190611b07565b508560039080519060200190611627929190611b07565b5084600481905550836005819055508260068190555081601260006101000a81548173ffffffffffffffffffffffffffffffffffffffff021916908373ffffffffffffffffffffffffffffffffffffffff16021790555080601360006101000a81548173ffffffffffffffffffffffffffffffffffffffff021916908373ffffffffffffffffffffffffffffffffffffffff1602179055505050505050505050565b600092915050565b600160009054906101000a900473ffffffffffffffffffffffffffffffffffffffff1681565b6000949350505050565b600e6020528160005260406000208160028110151561171c57fe5b01600091509150505481565b60105481565b6000809054906101000a900473ffffffffffffffffffffffffffffffffffffffff1673ffffffffffffffffffffffffffffffffffffffff163373ffffffffffffffffffffffffffffffffffffffff1614151561178957600080fd5b80600160006101000a81548173ffffffffffffffffffffffffffffffffffffffff021916908373ffffffffffffffffffffffffffffffffffffffff16021790555050565b6117d5611b87565b600e60003373ffffffffffffffffffffffffffffffffffffffff1673ffffffffffffffffffffffffffffffffffffffff16815260200190815260200160002060028060200260405190810160405280929190826002801561184b576020028201915b815481526020019060010190808311611837575b5050505050905084600060028110151561186157fe5b602002015181600060028110151561187557fe5b60200201511480156118ac575084600160028110151561189157fe5b60200201518160016002811015156118a557fe5b6020020151145b15156118b757600080fd5b6000601260009054906101000a900473ffffffffffffffffffffffffffffffffffffffff1673ffffffffffffffffffffffffffffffffffffffff1663d15ca109601260009054906101000a900473ffffffffffffffffffffffffffffffffffffffff1673ffffffffffffffffffffffffffffffffffffffff1663d15ca10989600060028110151561194457fe5b60200201518a600160028110151561195857fe5b60200201516040518363ffffffff167c0100000000000000000000000000000000000000000000000000000000028152600401808381526020018281526020019250505060206040518083038186803b1580156119b457600080fd5b505afa1580156119c8573d6000803e3d6000fd5b505050506040513d60208110156119de57600080fd5b8101908080519060200190929190505050896040518363ffffffff167c0100000000000000000000000000000000000000000000000000000000028152600401808381526020018281526020019250505060206040518083038186803b158015611a4757600080fd5b505afa158015611a5b573d6000803e3d6000fd5b505050506040513d6020811015611a7157600080fd5b81019080805190602001909291905050509050611a9081868686610bb5565b1515611a9b57600080fd5b50505050505050565b60e060405190810160405280600790602082028038833980820191505090505090565b8260028101928215611af6579160200282015b82811115611af5578251825591602001919060010190611ada565b5b509050611b039190611ba9565b5090565b828054600181600116156101000203166002900490600052602060002090601f016020900481019282601f10611b4857805160ff1916838001178555611b76565b82800160010185558215611b76579182015b82811115611b75578251825591602001919060010190611b5a565b5b509050611b839190611ba9565b5090565b6040805190810160405280600290602082028038833980820191505090505090565b611bcb91905b80821115611bc7576000816000905550600101611baf565b5090565b9056fea165627a7a72305820aed85f5930648dec7ca732f5d2f21bcddd9e17f8439381b1bfd6586ee91cf4dc0029a165627a7a7230582033bfb89fdfee1db24b14b7c656d0b955b7b7a995049ae389c7e614b386c726950029",
  "source": "pragma solidity >=0.5.2;\n\n// ----------------------------------------------------------------------------\n// Borrowed from BokkyPooBah's Fixed Supply Token  + Factory v1.10\n// https://github.com/bokkypoobah/FixedSupplyTokenFactory\n//\n//\n//\n// Snappframes Factory Contract\n//\n// Enjoy. (c) BokkyPooBah / Bok Consulting Pty Ltd 2019. The MIT Licence.\n// ----------------------------------------------------------------------------\n\n\nimport \"./dependencies/SafeMath.sol\";\nimport \"./dependencies/Owned.sol\";\n\n// import \"./Snappframes.sol\";\n// import \"../circuits/verifier.sol\";\n\n\ncontract MiMC{\n\n    function MiMCpe7(uint,uint) public pure returns (uint) {}\n\n}\n\ncontract EdDSA{\n\n    function Verify( uint256[2] memory, uint256, uint256[2] memory, uint256 )\n        public view returns (bool) {}\n\n}\n\n\n\ncontract Snappframes is Owned, EdDSA, MiMC  {\n    using SafeMath for uint;\n    using SafeMath for uint256;\n\n    string public symbol;\n    string public name;\n    uint256 public totalSupply;\n    uint256 public dataHash;\n    uint256 public stateHash;\n    address public operator;\n    uint256 public pricePerFrame;\n\n    address[4] depositQueueAddresses;\n    mapping(address => uint) depositQueue;\n    mapping(address => uint256[2]) public ecdsaToEddsa;\n\n    uint8 DEPOSIT_QUEUE_MAX = 4;\n    uint8 depositQueueLength = 0;\n    uint public TREE_DEPTH = 6;\n    uint PRICE_PER_FRAME = 1000;\n\n\n    // Verifier verifier;\n    MiMC mimc;\n    EdDSA eddsa;\n\n    event Deposit(address _depositor, uint _index);\n    event DepositsProcessed(address _firstDepositor, address _lastDepositor);\n\n\n    function init(address tokenOwner, string memory _symbol, string memory _name, uint256 _totalSupply, uint256 _dataHash, uint256 _stateHash, address _mimcAddr, address _eddsaAddr)  public {\n        super.init(tokenOwner);\n        symbol = _symbol;\n        name = _name;\n        totalSupply = _totalSupply;\n        dataHash = _dataHash;\n        stateHash = _stateHash;\n        mimc = MiMC(_mimcAddr);\n        eddsa = EdDSA(_eddsaAddr);\n    }\n\n\n    // performs state transition\n    function update() public onlyOwner {\n        // TODO: wait for Geoff's verifier circuit\n    }\n\n    // creates accounts for people who deposit Ether\n    // @dev _from and _to are index ranges for movie frames\n    function deposit(uint256 _index, uint256[2] memory _eddsaPubKey)\n    public payable {\n        require(depositQueueLength <= DEPOSIT_QUEUE_MAX);\n        require(msg.value >= PRICE_PER_FRAME);\n\n        depositQueueLength++;\n        depositQueueAddresses[depositQueueLength - 1] = msg.sender;\n        depositQueue[msg.sender] = _index;\n\n        ecdsaToEddsa[msg.sender] = _eddsaPubKey;\n\n        emit Deposit(msg.sender, _index);\n\n    }\n\n    // operator updates merkle tree with deposits\n    function processDepositQueue() public onlyOwner {\n        emit DepositsProcessed(\n            depositQueueAddresses[0],\n            depositQueueAddresses[DEPOSIT_QUEUE_MAX]);\n        depositQueueLength = 0;\n    }\n\n\n    // allows withdraw of ERC721 token to Ethereum address\n    function withdraw(\n        uint256 asset,\n        uint256[2] memory pubkey, //EdDSA pubKey_x and pubKey_y\n        uint256[7] memory proof,\n        uint256[7] memory proof_pos,\n        uint256 root\n        // uint256 hashed_msg, //hash of msg.sender and leaf\n        // uint256[2] memory R, //EdDSA signature field\n        // uint256 s //EdDSA signature field\n    ) public view {\n        uint256[2] memory eddsaPubKey = ecdsaToEddsa[msg.sender];\n        require(eddsaPubKey[0] == pubkey[0] && eddsaPubKey[1] == pubkey[1]);\n\n        // // verify EdDSA signature\n        // require(EdDSA.Verify(pubkey, hashed_msg, R, s));\n\n        // verify hashed msg sends leaf to msg.sender\n        uint256 leaf = mimc.MiMCpe7(mimc.MiMCpe7(pubkey[0], pubkey[1]), asset);\n        require(verifyMerkleProof(leaf, proof, proof_pos, root));\n        // require(mimc.MiMCpe7(msg.sender, leaf) == hashed_msg);\n\n        // generate ERC721 token\n        // bytes32 tokenId = keccak256(abi.encodePacked(pubkey[0],pubkey[1]));\n        //_mint(msg.sender, bytes32ToUint256(tokenId));\n\n        // send token to depositor on Ethereum\n    }\n\n    function verifyMerkleProof(\n        uint256 _leafHash,\n        uint256[7] memory _merkleProof,\n        uint256[7] memory _merklePos,\n        uint256 _root\n    ) public view returns(bool){\n        uint256[7] memory root;\n        uint256 left = _leafHash - _merklePos[0]*(_leafHash - _merkleProof[0]);\n        uint256 right = _merkleProof[0] - _merklePos[0]*(_merkleProof[0] - _leafHash);\n        root[0] = mimc.MiMCpe7(left, right);\n        for (uint i = 1; i < 3; i++) {\n            left = root[i-1] - _merklePos[i]*(root[i-1] - _merkleProof[0]);\n            right = _merkleProof[0] - _merklePos[i]*(_merkleProof[0] - root[i-1]);\n            root[i] = mimc.MiMCpe7(left, right);\n            }\n        return(root[2] == _root);\n    }\n\n    // helpers\n\n    // https://ethereum.stackexchange.com/questions/6498/how-to-convert-a-uint256-type-integer-into-a-bytes32\n    function bytes32ToUint256(bytes32 n) internal pure returns (uint256) {\n        return uint256(n);\n    }\n\n}\n\n\n\n\n\n// ----------------------------------------------------------------------------\n//\n// ----------------------------------------------------------------------------\ncontract SnappframesFactory is Owned  {\n    using SafeMath for uint;\n\n    address public newAddress;\n    uint public minimumFee = 0.1 ether;\n    mapping(address => bool) public isChild;\n    address[] public children;\n\n    event FactoryDeprecated(address _newAddress);\n    event MinimumFeeUpdated(uint oldFee, uint newFee);\n    event TokenDeployed(address indexed owner, address indexed token, string symbol, string name, uint256 totalSupply, uint256 dataHash, uint256 stateHash);\n\n    constructor () public {\n        super.init(msg.sender);\n    }\n    function numberOfChildren() public view returns (uint) {\n        return children.length;\n    }\n    function deprecateFactory(address _newAddress) public onlyOwner {\n        require(newAddress == address(0));\n        emit FactoryDeprecated(_newAddress);\n        newAddress = _newAddress;\n    }\n    function setMinimumFee(uint _minimumFee) public onlyOwner  {\n        emit MinimumFeeUpdated(minimumFee, _minimumFee);\n        minimumFee = _minimumFee;\n    }\n    function deployTokenContract(string memory symbol, string memory name, uint256 totalSupply, uint256 dataHash, uint256 stateHash,address mimcAddr, address eddsaAddr) public payable returns (Snappframes token)  {\n        require(msg.value >= minimumFee);\n        require(totalSupply > 0);\n        token = new Snappframes();\n        token.init(msg.sender, symbol, name, totalSupply, dataHash, stateHash, mimcAddr, eddsaAddr );\n\n        isChild[address(token)] = true;\n        children.push(address(token));\n        if (msg.value > 0) {\n            owner.transfer(msg.value);\n        }\n        emit TokenDeployed(owner, address(token), symbol, name, totalSupply, dataHash, stateHash);\n\n    }\n    function () external payable {\n        revert();\n    }\n}\n",
  "sourcePath": "/home/user/snappframes/contracts/contracts/SnappframesFactory.sol",
  "compiler": {
    "name": "solc",
    "version": "0.5.2+commit.1df8f40c.Emscripten.clang"
  },
  "schemaVersion": "3.0.6",
  "updatedAt": "2019-04-09T22:39:34.248Z",
  "devdoc": {
    "methods": {}
  },
  "userdoc": {
    "methods": {}
  }
}