{
  "contractName": "Verifier",
  "abi": [
    {
      "constant": false,
      "inputs": [
        {
          "name": "a",
          "type": "uint256[2]"
        },
        {
          "name": "a_p",
          "type": "uint256[2]"
        },
        {
          "name": "b",
          "type": "uint256[2][2]"
        },
        {
          "name": "b_p",
          "type": "uint256[2]"
        },
        {
          "name": "c",
          "type": "uint256[2]"
        },
        {
          "name": "c_p",
          "type": "uint256[2]"
        },
        {
          "name": "h",
          "type": "uint256[2]"
        },
        {
          "name": "k",
          "type": "uint256[2]"
        },
        {
          "name": "input",
          "type": "uint256[39]"
        }
      ],
      "name": "verifyProof",
      "outputs": [
        {
          "name": "",
          "type": "bool"
        }
      ],
      "payable": false,
      "stateMutability": "nonpayable",
      "type": "function"
    }
  ],
  "bytecode": "0x608060405234801561001057600080fd5b50610347806100206000396000f3fe608060405234801561001057600080fd5b5060043610610048576000357c0100000000000000000000000000000000000000000000000000000000900480633fe6f64c1461004d575b600080fd5b6102f2600480360361072081101561006457600080fd5b8101908080604001906002806020026040519081016040528092919082600260200280828437600081840152601f19601f820116905080830192505050505050919291929080604001906002806020026040519081016040528092919082600260200280828437600081840152601f19601f82011690508083019250505050505091929192908060800190600280602002604051908101604052809291906000905b8282101561015a578382604002016002806020026040519081016040528092919082600260200280828437600081840152601f19601f82011690508083019250505050505081526020019060010190610106565b50505050919291929080604001906002806020026040519081016040528092919082600260200280828437600081840152601f19601f820116905080830192505050505050919291929080604001906002806020026040519081016040528092919082600260200280828437600081840152601f19601f820116905080830192505050505050919291929080604001906002806020026040519081016040528092919082600260200280828437600081840152601f19601f820116905080830192505050505050919291929080604001906002806020026040519081016040528092919082600260200280828437600081840152601f19601f820116905080830192505050505050919291929080604001906002806020026040519081016040528092919082600260200280828437600081840152601f19601f8201169050808301925050505050509192919290806104e001906027806020026040519081016040528092919082602760200280828437600081840152601f19601f820116905080830192505050505050919291929050505061030c565b604051808215151515815260200191505060405180910390f35b6000999850505050505050505056fea165627a7a72305820b2c0228490a89319d33a06561851e797970b8393c89fe71e92e49acd7c9902660029",
  "source": "pragma solidity >=0.5.0;\n\n// import \"./dependencies/EdDSA.sol\";\n// import \"./dependencies/JubJub.sol\";\nimport 'openzeppelin-solidity/contracts/token/ERC721/ERC721Full.sol';\n// import \"./dependencies/SafeMath.sol\";\n\ncontract Verifier{\n\n    function verifyProof(\n            uint[2] memory a,\n            uint[2] memory a_p,\n            uint[2][2] memory b,\n            uint[2] memory b_p,\n            uint[2] memory c,\n            uint[2] memory c_p,\n            uint[2] memory h,\n            uint[2] memory k,\n            uint[39] memory input\n    ) public returns (bool) {}\n\n}\n\ncontract MiMC{\n\n    function MiMCpe7(uint256,uint256,uint256,uint256) public pure returns (uint256) {}\n\n}\n\n// contract EdDSA{\n\n//     function Verify( uint256[2] memory, uint256, uint256[2] memory, uint256 )\n//         public view returns (bool) {}\n\n// }\n\n\ncontract Snappframes is ERC721Full, Verifier, MiMC {\n\n    using SafeMath for uint;\n    using SafeMath for uint256; \n\n    // the tree has depth 6, i.e. 2^6 = 64 leaves\n    uint256 public TREE_DEPTH = 6;\n\n    // each segment has depth 3, i.e. 2^3 = 8 leaves\n    uint256 public SEGMENT_DEPTH = 3;\n\n    uint256 public NUM_SEGMENTS = 2**(TREE_DEPTH - SEGMENT_DEPTH);\n    uint256 public NUM_LEAVES_PER_SEGMENT = 2**SEGMENT_DEPTH;\n\n    uint256 TOTAL_FRAMES = 1000;\n    uint256 PRICE_PER_FRAME = 1000;\n    uint256 DEPOSIT_QUEUE_MAX = 2**TREE_DEPTH;\n\n    Verifier verifier;\n    MiMC mimc;\n    // EdDSA eddsa;\n\n    address public operator;\n\n    uint256 public current_state;\n\n    uint256 public depositQueueLength = 0;\n    address[4] depositQueueAddresses;\n    mapping(address => uint[2]) depositQueue;\n    mapping(address => uint256[2]) public ecdsaToEddsa;\n\n\n    event InitialRoot(uint256 _initialRoot);\n    event Deposit(address _depositor, uint _segmentIdx, uint _leafIdx);\n    event DepositsProcessed(address _firstDepositor, address _lastDepositor);\n\n    event Leaf(uint256 _leaf);\n\n    modifier depositQueueNotFull(){\n        require(depositQueueLength <= DEPOSIT_QUEUE_MAX);\n        _;\n    }\n\n    modifier operatorOnly(){\n        require(msg.sender == operator);\n        _;\n    }\n\n    constructor(\n        address _verifierAddr,\n        address _mimcAddr\n        // address _eddsaAddr\n    ) ERC721Full(\"Snappframes\", \"SNP\") public {\n        verifier = Verifier(_verifierAddr);\n        mimc = MiMC(_mimcAddr);\n        // eddsa = EdDSA(_eddsaAddr);\n\n        operator = msg.sender;\n    }\n\n    function setInitialRoot(\n        uint256 _initialRoot\n    ) public operatorOnly{\n        current_state = _initialRoot;\n\n        emit InitialRoot(_initialRoot);\n    }\n\n    // performs state transition\n    function update(\n            uint[2] memory a,\n            uint[2] memory a_p,\n            uint[2][2] memory b,\n            uint[2] memory b_p,\n            uint[2] memory c,\n            uint[2] memory c_p,\n            uint[2] memory h,\n            uint[2] memory k,\n            uint[39] memory input\n    ) public operatorOnly{\n        require(verifier.verifyProof(\n            a, a_p, b, b_p, c, c_p, h, k, input\n        ));\n    }\n\n    // creates accounts for people who deposit Ether\n    // @dev _from and _to are index ranges for movie frames\n    function deposit(uint _index, uint256[2] memory _eddsaPubKey) \n    public payable depositQueueNotFull{\n\n        require(msg.value >= PRICE_PER_FRAME);\n\n        depositQueueLength++;\n        depositQueueAddresses[depositQueueLength - 1] = msg.sender;\n\n        // convert idx into segmentIdx, leaf idx (on segment)\n        (uint segmentIdx, uint leafIdx) = getDivided(_index, NUM_LEAVES_PER_SEGMENT);\n        \n        depositQueue[msg.sender] = [segmentIdx, leafIdx];\n\n        // assign msg.sender to declared eddsa address\n        ecdsaToEddsa[msg.sender] = _eddsaPubKey;\n\n        emit Deposit(msg.sender, segmentIdx, leafIdx);\n\n    }\n\n    // operator updates merkle tree with deposits\n    function processDepositQueue() public operatorOnly{\n\n        emit DepositsProcessed(\n            depositQueueAddresses[0], \n            depositQueueAddresses[depositQueueAddresses.length - 1]);\n        depositQueueLength = 0;\n    }\n\n\n    // allows withdraw of ERC721 token to Ethereum address\n    // operator should process withdraws before transactions\n    function withdraw(\n        uint256 asset, \n        uint256[2] memory pubkey, //EdDSA pubKey_x and pubKey_y\n        uint256[3] memory proof,\n        uint256 root\n        // uint256 hashed_msg, //hash of msg.sender and leaf\n        // uint256[2] memory R, //EdDSA signature field\n        // uint256 s //EdDSA signature field\n    ) public {\n        uint256[2] memory eddsaPubKey = ecdsaToEddsa[msg.sender];\n\n        // // verify EdDSA signature\n        // require(EdDSA.Verify(pubkey, hashed_msg, R, s));  \n\n        require(eddsaPubKey[0] == pubkey[0] && eddsaPubKey[1] == pubkey[1]);\n\n        // verify hashed msg sends leaf to msg.sender\n        uint256 leaf = mimcHash(mimcHash(pubkey[0], pubkey[1]), asset);\n        emit Leaf(leaf);\n        \n        // require(verifyMerkleProof(leaf, proof, root));\n        // // require(mimc.MiMCpe7(msg.sender, leaf) == hashed_msg);\n\n        // // generate ERC721 token\n        // bytes32 tokenId = keccak256(abi.encodePacked(pubkey[0],pubkey[1]));\n        // _mint(msg.sender, bytes32ToUint256(tokenId));\n\n        // send token to depositor on Ethereum\n    }\n    \n    // getters\n    function getEddsaAddr(address _ethAddress) public view returns(uint256[2] memory){\n        // uint256[2] memory eddsaAddr = ecdsaToEddsa[_ethAddress];\n        return ecdsaToEddsa[_ethAddress];\n    }\n\n\n    // helpers\n\n    function verifyMerkleProof(\n        uint256 _leafHash,\n        uint256[3] memory _merkleProof,\n        uint256 _root\n    ) public returns(bool){\n        uint256[3] memory root;\n        root[0] = mimcHash(_leafHash, _merkleProof[0]);\n        for (uint i = 1; i < 3; i++) {             \n            root[i] = mimcHash(root[i-1], _merkleProof[i]);\n        }\n        return(root[2] == _root);\n    }\n\n    function mimcHash(uint256 in_x, uint256 in_k) public returns(uint256){\n        return mimc.MiMCpe7(in_x, in_k, uint256(keccak256(\"mimc\")), 91);\n    }\n\n\n    // https://ethereum.stackexchange.com/questions/6498/how-to-convert-a-uint256-type-integer-into-a-bytes32\n    function bytes32ToUint256(bytes32 n) internal returns (uint256) {\n        return uint256(n);\n    }\n\n    function getDivided(uint numerator, uint denominator) public \n    returns(uint quotient, uint remainder) {\n        quotient  = numerator / denominator;\n        remainder = numerator - denominator * quotient;\n    }\n}\n\n",
  "sourcePath": "/home/user/snappframes/contracts/contracts/Snappframes.sol",
  "compiler": {
    "name": "solc",
    "version": "0.5.2+commit.1df8f40c.Emscripten.clang"
  },
  "schemaVersion": "3.0.6",
  "updatedAt": "2019-04-09T22:38:38.499Z",
  "devdoc": {
    "methods": {}
  },
  "userdoc": {
    "methods": {}
  }
}