{
  "contractName": "JubJub",
  "abi": [
    {
      "constant": true,
      "inputs": [],
      "name": "COFACTOR",
      "outputs": [
        {
          "name": "",
          "type": "uint256"
        }
      ],
      "payable": false,
      "stateMutability": "view",
      "type": "function"
    },
    {
      "constant": true,
      "inputs": [],
      "name": "L",
      "outputs": [
        {
          "name": "",
          "type": "uint256"
        }
      ],
      "payable": false,
      "stateMutability": "view",
      "type": "function"
    },
    {
      "constant": true,
      "inputs": [],
      "name": "Q",
      "outputs": [
        {
          "name": "",
          "type": "uint256"
        }
      ],
      "payable": false,
      "stateMutability": "view",
      "type": "function"
    },
    {
      "constant": true,
      "inputs": [],
      "name": "JUBJUB_A",
      "outputs": [
        {
          "name": "",
          "type": "uint256"
        }
      ],
      "payable": false,
      "stateMutability": "view",
      "type": "function"
    },
    {
      "constant": true,
      "inputs": [],
      "name": "JUBJUB_D",
      "outputs": [
        {
          "name": "",
          "type": "uint256"
        }
      ],
      "payable": false,
      "stateMutability": "view",
      "type": "function"
    }
  ],
  "bytecode": "0x6101a0610030600b82828239805160001a6073146000811461002057610022565bfe5b5030600052607381538281f3fe730000000000000000000000000000000000000000301460806040526004361061007e576000357c0100000000000000000000000000000000000000000000000000000000900480639357361e146100835780639f13f76d146100a1578063e493ef8c146100bf578063eb83733c146100dd578063f7c2d574146100fb575b600080fd5b61008b610119565b6040518082815260200191505060405180910390f35b6100a961011e565b6040518082815260200191505060405180910390f35b6100c7610142565b6040518082815260200191505060405180910390f35b6100e5610166565b6040518082815260200191505060405180910390f35b61010361016d565b6040518082815260200191505060405180910390f35b600881565b7f060c89ce5c263405370a08b6d0302b0bab3eedb83920ee0a677297dc392126f181565b7f30644e72e131a029b85045b68181585d2833e84879b9709143e1f593f000000181565b620292fc81565b620292f88156fea165627a7a72305820701c9ee6e693a79f02589cb1e99c909d62ca89390941ee7fd4558ceb69cf7d580029",
  "source": "// Copyright (c) 2018 @HarryR\n// Copyright (c) 2018 @yondonfu\n// License: LGPL-3.0+\n\npragma solidity ^0.5.0;\n\nlibrary JubJub\n{\n    // A should be a square in Q\n    uint256 constant public JUBJUB_A = 168700;\n\n    // D should not be a square in Q\n    uint256 constant public JUBJUB_D = 168696;\n\n    uint256 constant public COFACTOR = 8;\n\n    uint256 constant public Q = 21888242871839275222246405745257275088548364400416034343698204186575808495617;\n\n    // L * COFACTOR = Curve Order\n    uint256 constant public L = 2736030358979909402780800718157159386076813972158567259200215660948447373041;\n\n\n    function Generator()\n        internal pure returns (uint256[2] memory)\n    {\n        return \n[17777552123799933955779906779655732241715742912184938656739573121738514868268,\n 2626589144620713026669568689430873010625803728049924121243784502389097019475];\n    }\n\n\n    function submod(uint256 a, uint256 b, uint256 modulus)\n        internal pure returns (uint256)\n    {\n        uint256 n = a;\n\n        if (a <= b) {\n            n += modulus;\n        }\n\n        return (n - b) % modulus;\n    }\n\n\n    function modexp(uint256 base, uint256 exponent, uint256 modulus)\n        internal view returns (uint256)\n    {\n        uint256[1] memory output;\n        uint256[6] memory input;\n        input[0] = 0x20;\n        input[1] = 0x20;\n        input[2] = 0x20;\n        input[3] = base;\n        input[4] = exponent;\n        input[5] = modulus;\n\n        bool success;\n        assembly {\n            success := staticcall(sub(gas, 2000), 5, input, 0xc0, output, 0x20)\n        }\n        require(success);\n        return output[0];\n    }\n\n\n    function inv(uint256 value, uint256 field_modulus)\n        internal view returns (uint256)\n    {\n        return modexp(value, field_modulus - 2, field_modulus);\n    }\n\n\n    function scalarMult(uint256 x, uint256 y, uint256 value)\n        internal view returns (uint256, uint256)\n    {\n        uint256[4] memory p;\n        (p[0], p[1], p[2]) = pointToEac(x, y);\n        p[3] = 1;\n\n        uint256[4] memory a = [uint256(0), uint256(1), uint256(0), uint256(1)];\n\n        uint256 i = 0;\n\n        while (value != 0)\n        {\n            if ((value & 1) != 0)\n            {\n                a = etecAdd(a, p);\n            }\n\n            p = etecAdd(p, p);\n\n            value = value / 2;\n\n            i += 1;\n        }\n\n        return etecToPoint(a[0], a[1], a[2], a[3]);\n    }\n\n\n    /**\n    * Project X,Y point to extended affine coordinates\n    */\n    function pointToEac( uint256 X, uint256 Y )\n        internal pure returns (uint256, uint256, uint256)\n    {\n        return (X, Y, mulmod(X, Y, Q));\n    }\n\n\n    /**\n    * Extended twisted edwards coordinates to extended affine coordinates\n    */\n    function etecToEac( uint256 X, uint256 Y, uint256 T, uint256 Z )\n        internal view returns (uint256, uint256, uint256)\n    {\n        Z = inv(Z, Q);\n        return (mulmod(X, Z, Q), mulmod(Y, Z, Q), mulmod(T, Z, Q));\n    }\n\n\n    /**\n    * Extended twisted edwards coordinates to extended affine coordinates\n    */\n    function etecToPoint( uint256 X, uint256 Y, uint256 T, uint256 Z )\n        internal view returns (uint256, uint256)\n    {\n        Z = inv(Z, Q);\n        return (mulmod(X, Z, Q), mulmod(Y, Z, Q));\n    }\n\n\n    function eacToPoint( uint256 X, uint256 Y, uint256 T )\n        internal pure returns (uint256, uint256)\n    {\n        return (X, Y);\n    }\n\n    /**\n     * @dev Add 2 etec points on baby jubjub curve\n     * x3 = (x1y2 + y1x2) * (z1z2 - dt1t2)\n     * y3 = (y1y2 - ax1x2) * (z1z2 + dt1t2)\n     * t3 = (y1y2 - ax1x2) * (x1y2 + y1x2)\n     * z3 = (z1z2 - dt1t2) * (z1z2 + dt1t2)\n     */\n    function etecAdd(\n        uint256[4] memory _p1,\n        uint256[4] memory _p2\n    ) \n        internal\n        pure\n        returns (uint256[4] memory p3)\n    {\n        // inf + (x,y) = (x,y)\n        if (_p1[0] == 0 && _p1[1] == 1 && _p1[2] == 0 && _p1[3] == 1) {\n            return _p2;\n        }\n\n        // (x,y) + inf = (x,y)\n        if (_p2[0] == 0 && _p2[1] == 1 && _p2[2] == 0 && _p2[3] == 1) {\n            return _p1;\n        }\n\n        assembly {\n            let localQ := 0x30644E72E131A029B85045B68181585D2833E84879B9709143E1F593F0000001 \n            let localA := 0x292FC\n            let localD := 0x292F8 \n\n            // A <- x1 * x2\n            let a := mulmod(mload(_p1), mload(_p2), localQ)\n            // B <- y1 * y2\n            let b := mulmod(mload(add(_p1, 0x20)), mload(add(_p2, 0x20)), localQ)\n            // C <- d * t1 * t2\n            let c := mulmod(mulmod(localD, mload(add(_p1, 0x40)), localQ), mload(add(_p2, 0x40)), localQ)\n            // D <- z1 * z2\n            let d := mulmod(mload(add(_p1, 0x60)), mload(add(_p2, 0x60)), localQ)\n            // E <- (x1 + y1) * (x2 + y2) - A - B\n            let e := mulmod(addmod(mload(_p1), mload(add(_p1, 0x20)), localQ), addmod(mload(_p2), mload(add(_p2, 0x20)), localQ), localQ)\n            if lt(e, add(a, 1)) {\n                e := add(e, localQ)\n            }\n            e := mod(sub(e, a), localQ)\n            if lt(e, add(b, 1)) {\n                e := add(e, localQ)\n            }\n            e := mod(sub(e, b), localQ)\n            // F <- D - C\n            let f := d\n            if lt(f, add(c, 1)) {\n                f := add(f, localQ)\n            }\n            f := mod(sub(f, c), localQ)\n            // G <- D + C\n            let g := addmod(d, c, localQ)\n            // H <- B - a * A\n            let aA := mulmod(localA, a, localQ)\n            let h := b\n            if lt(h, add(aA, 1)) {\n                h := add(h, localQ)\n            }\n            h := mod(sub(h, aA), localQ)\n\n            // x3 <- E * F\n            mstore(p3, mulmod(e, f, localQ))\n            // y3 <- G * H\n            mstore(add(p3, 0x20), mulmod(g, h, localQ))\n            // t3 <- E * H\n            mstore(add(p3, 0x40), mulmod(e, h, localQ))\n            // z3 <- F * G\n            mstore(add(p3, 0x60), mulmod(f, g, localQ))\n        }\n    }\n\n    function pointAdd(uint256[2] memory self, uint256[2] memory other)\n        internal view returns (uint256[2] memory)\n    {\n        if (self[0] == 0 && self[1] == 0) {\n            return other;\n        } else if (other[0] == 0 && other[1] == 0)\n        {\n            return self;\n        }\n\n        uint256 x1x2 = mulmod(self[0], other[0], Q);\n        uint256 y1y2 = mulmod(self[1], other[1], Q);\n\n        // ----------------     \n\n        //          (x1*y2 + y1*x2)\n        uint256 x3_lhs = addmod(mulmod(self[0], other[1], Q), mulmod(self[1], other[0], Q), Q);\n\n        //                                    JUBJUB_D*x1*x2*y1*y2\n        uint256 dx1x2y1y2 = mulmod(mulmod(JUBJUB_D, x1x2, Q), y1y2, Q);\n\n        //                          (Fq.ONE + JUBJUB_D*u1*u2*v1*v2)\n        uint256 x3_rhs = addmod(1, dx1x2y1y2, Q);\n\n        //                          (Fq.ONE - JUBJUB_D*u1*u2*v1*v2)\n        uint256 y3_rhs = submod(1, dx1x2y1y2, Q);\n\n\n        //          (y1*y2 - A*x1*x2)\n        uint256 y3_lhs = submod(y1y2, mulmod(JUBJUB_A, x1x2, Q), Q);\n\n        // ----------------\n\n        // lhs / rhs\n        return [\n            // x3 = (x1*y2 + y1*x2)   / (Fq.ONE + D*x1*x2*y1*y2)\n            mulmod(x3_lhs, inv(x3_rhs, Q), Q),\n\n            // y3 = (y1*y2 - A*x1*x2) / (Fq.ONE - D*x1*x2*y1*y2)\n            mulmod(y3_lhs, inv(y3_rhs, Q), Q)\n        ];\n    }\n}",
  "sourcePath": "/home/user/snappframes/contracts/dependencies/JubJub.sol",
  "compiler": {
    "name": "solc",
    "version": "0.5.2+commit.1df8f40c.Emscripten.clang"
  },
  "schemaVersion": "3.0.6",
  "updatedAt": "2019-04-08T07:33:38.493Z",
  "devdoc": {
    "methods": {}
  },
  "userdoc": {
    "methods": {}
  }
}