{
  "contractName": "MiMC",
  "abi": [
    {
      "constant": true,
      "inputs": [
        {
          "name": "in_x",
          "type": "uint256"
        },
        {
          "name": "in_k",
          "type": "uint256"
        }
      ],
      "name": "Encipher",
      "outputs": [
        {
          "name": "out_x",
          "type": "uint256"
        }
      ],
      "payable": false,
      "stateMutability": "pure",
      "type": "function",
      "signature": "0x96d8d820"
    },
    {
      "constant": true,
      "inputs": [
        {
          "name": "in_x",
          "type": "uint256"
        },
        {
          "name": "in_k",
          "type": "uint256"
        },
        {
          "name": "in_seed",
          "type": "uint256"
        },
        {
          "name": "round_count",
          "type": "uint256"
        }
      ],
      "name": "MiMCpe7",
      "outputs": [
        {
          "name": "out_x",
          "type": "uint256"
        }
      ],
      "payable": false,
      "stateMutability": "pure",
      "type": "function",
      "signature": "0x7eb17125"
    },
    {
      "constant": true,
      "inputs": [
        {
          "name": "in_msgs",
          "type": "uint256[]"
        },
        {
          "name": "in_key",
          "type": "uint256"
        }
      ],
      "name": "Hash",
      "outputs": [
        {
          "name": "",
          "type": "uint256"
        }
      ],
      "payable": false,
      "stateMutability": "pure",
      "type": "function",
      "signature": "0x0fa16e38"
    },
    {
      "constant": true,
      "inputs": [
        {
          "name": "in_msgs",
          "type": "uint256[]"
        }
      ],
      "name": "Hash",
      "outputs": [
        {
          "name": "",
          "type": "uint256"
        }
      ],
      "payable": false,
      "stateMutability": "pure",
      "type": "function",
      "signature": "0x77d4ef3d"
    }
  ],
  "bytecode": "0x6104d2610030600b82828239805160001a6073146000811461002057610022565bfe5b5030600052607381538281f3fe7300000000000000000000000000000000000000003014608060405260043610610073576000357c0100000000000000000000000000000000000000000000000000000000900480630fa16e381461007857806377d4ef3d1461014e5780637eb171251461021a57806396d8d8201461027a575b600080fd5b6101386004803603604081101561008e57600080fd5b81019080803590602001906401000000008111156100ab57600080fd5b8201836020820111156100bd57600080fd5b803590602001918460208302840111640100000000831117156100df57600080fd5b919080806020026020016040519081016040528093929190818152602001838360200280828437600081840152601f19601f820116905080830192505050505050509192919290803590602001909291905050506102c6565b6040518082815260200191505060405180910390f35b6102046004803603602081101561016457600080fd5b810190808035906020019064010000000081111561018157600080fd5b82018360208201111561019357600080fd5b803590602001918460208302840111640100000000831117156101b557600080fd5b919080806020026020016040519081016040528093929190818152602001838360200280828437600081840152601f19601f820116905080830192505050505050509192919290505050610316565b6040518082815260200191505060405180910390f35b6102646004803603608081101561023057600080fd5b810190808035906020019092919080359060200190929190803590602001909291908035906020019092919050505061032a565b6040518082815260200191505060405180910390f35b6102b06004803603604081101561029057600080fd5b8101908080359060200190929190803590602001909291905050506103b6565b6040518082815260200191505060405180910390f35b600061030e838360405180807f6d696d63000000000000000000000000000000000000000000000000000000008152506004019050604051809103902060019004605b610406565b905092915050565b60006103238260006102c6565b9050919050565b6000600182101561033a57600080fd5b604051602081016040528381527f30644e72e131a029b85045b68181585d2833e84879b9709143e1f593f0000001600080855b60008111156103a35760208520855283898587518d0808925083838409915083838586858609850909995060018103905061036d565b5082888a08945050505050949350505050565b60006103fe838360405180807f6d696d63000000000000000000000000000000000000000000000000000000008152506004019050604051809103902060019004605b61032a565b905092915050565b60008084905060007f30644e72e131a029b85045b68181585d2833e84879b9709143e1f593f0000001905060008090505b87518110156104985781610464898381518110151561045257fe5b9060200190602002015185898961032a565b898381518110151561047257fe5b9060200190602002015185010181151561048857fe5b0692508080600101915050610437565b50819250505094935050505056fea165627a7a7230582061d03fa7099d654e4da632a4922468fe8640573c198debca390ea303f439872c0029",
  "source": "// Copyright (c) 2018 HarryR\n// License: LGPL-3.0+\n\npragma solidity >=0.5.0;\n\n/**\n* Implements MiMC-p/p over the altBN scalar field used by zkSNARKs\n*\n* See: https://eprint.iacr.org/2016/492.pdf\n*\n* Round constants are generated in sequence from a seed\n*/\nlibrary MiMC\n{\n    function GetScalarField ()\n        internal pure returns (uint256)\n    {\n        return 0x30644e72e131a029b85045b68181585d2833e84879b9709143e1f593f0000001;\n    }\n\n    function Encipher( uint256 in_x, uint256 in_k )\n        public pure returns(uint256 out_x)\n    {\n        return MiMCpe7( in_x, in_k, uint256(keccak256(\"mimc\")), 91 );\n    }\n\n    /**\n    * MiMC-p/p with exponent of 7\n    * \n    * Recommended at least 46 rounds, for a polynomial degree of 2^126\n    */\n    function MiMCpe7( uint256 in_x, uint256 in_k, uint256 in_seed, uint256 round_count )\n        public pure returns(uint256 out_x)\n    {\n        assembly {\n            if lt(round_count, 1) { revert(0, 0) }\n\n            // Initialise round constants, k will be hashed \n            let c := mload(0x40)\n            mstore(0x40, add(c, 32))\n            mstore(c, in_seed)\n\n            let localQ := 0x30644e72e131a029b85045b68181585d2833e84879b9709143e1f593f0000001\n            let t\n            let a\n\n            // Further n-2 subsequent rounds include a round constant\n            for { let i := round_count } gt(i, 0) { i := sub(i, 1) } {\n                // c = H(c)\n                mstore(c, keccak256(c, 32))\n\n                // x = pow(x + c_i, 7, p) + k\n                t := addmod(addmod(in_x, mload(c), localQ), in_k, localQ)              // t = x + c_i + k\n                a := mulmod(t, t, localQ)                                              // t^2\n                in_x := mulmod(mulmod(a, mulmod(a, a, localQ), localQ), t, localQ)     // t^7\n            }\n\n            // Result adds key again as blinding factor\n            out_x := addmod(in_x, in_k, localQ)\n        }\n    }\n       \n    function MiMCpe7_mp( uint256[] memory in_x, uint256 in_k, uint256 in_seed, uint256 round_count )\n        internal pure returns (uint256)\n    {\n        uint256 r = in_k;\n        uint256 localQ = 0x30644e72e131a029b85045b68181585d2833e84879b9709143e1f593f0000001;\n\n        for( uint256 i = 0; i < in_x.length; i++ )\n        {\n            r = (r + in_x[i] + MiMCpe7(in_x[i], r, in_seed, round_count)) % localQ;\n        }\n        \n        return r;\n    }\n\n    function Hash( uint256[] memory in_msgs, uint256 in_key )\n        public pure returns (uint256)\n    {\n        return MiMCpe7_mp( in_msgs, in_key, uint256(keccak256(\"mimc\")), 91 );\n    }\n\n    function Hash( uint256[] memory in_msgs )\n        public pure returns (uint256)\n    {\n        return Hash( in_msgs, 0 );\n    }\n}\n\n",
  "sourcePath": "/home/user/snappframes/contracts/dependencies/MiMC.sol",
  "compiler": {
    "name": "solc",
    "version": "0.5.2+commit.1df8f40c.Emscripten.clang"
  },
  "schemaVersion": "3.0.6",
  "updatedAt": "2019-04-09T06:30:38.184Z",
  "devdoc": {
    "methods": {}
  },
  "userdoc": {
    "methods": {
      "MiMCpe7(uint256,uint256,uint256,uint256)": {
        "notice": "MiMC-p/p with exponent of 7     * Recommended at least 46 rounds, for a polynomial degree of 2^126"
      }
    },
    "notice": "Implements MiMC-p/p over the altBN scalar field used by zkSNARKs * See: https://eprint.iacr.org/2016/492.pdf * Round constants are generated in sequence from a seed"
  }
}