{
  "contractName": "MiMC",
  "abi": [
    {
      "constant": true,
      "inputs": [
        {
          "name": "in_x",
          "type": "uint256"
        },
        {
          "name": "in_k",
          "type": "uint256"
        }
      ],
      "name": "Encipher",
      "outputs": [
        {
          "name": "out_x",
          "type": "uint256"
        }
      ],
      "payable": false,
      "stateMutability": "pure",
      "type": "function",
      "signature": "0x96d8d820"
    },
    {
      "constant": true,
      "inputs": [
        {
          "name": "in_msgs",
          "type": "uint256[]"
        },
        {
          "name": "in_key",
          "type": "uint256"
        }
      ],
      "name": "Hash",
      "outputs": [
        {
          "name": "",
          "type": "uint256"
        }
      ],
      "payable": false,
      "stateMutability": "pure",
      "type": "function",
      "signature": "0x0fa16e38"
    },
    {
      "constant": true,
      "inputs": [
        {
          "name": "in_msgs",
          "type": "uint256[]"
        }
      ],
      "name": "Hash",
      "outputs": [
        {
          "name": "",
          "type": "uint256"
        }
      ],
      "payable": false,
      "stateMutability": "pure",
      "type": "function",
      "signature": "0x77d4ef3d"
    }
  ],
  "bytecode": "0x610467610030600b82828239805160001a6073146000811461002057610022565bfe5b5030600052607381538281f3fe7300000000000000000000000000000000000000003014608060405260043610610068576000357c0100000000000000000000000000000000000000000000000000000000900480630fa16e381461006d57806377d4ef3d1461014357806396d8d8201461020f575b600080fd5b61012d6004803603604081101561008357600080fd5b81019080803590602001906401000000008111156100a057600080fd5b8201836020820111156100b257600080fd5b803590602001918460208302840111640100000000831117156100d457600080fd5b919080806020026020016040519081016040528093929190818152602001838360200280828437600081840152601f19601f8201169050808301925050505050505091929192908035906020019092919050505061025b565b6040518082815260200191505060405180910390f35b6101f96004803603602081101561015957600080fd5b810190808035906020019064010000000081111561017657600080fd5b82018360208201111561018857600080fd5b803590602001918460208302840111640100000000831117156101aa57600080fd5b919080806020026020016040519081016040528093929190818152602001838360200280828437600081840152601f19601f8201169050808301925050505050505091929192905050506102ab565b6040518082815260200191505060405180910390f35b6102456004803603604081101561022557600080fd5b8101908080359060200190929190803590602001909291905050506102bf565b6040518082815260200191505060405180910390f35b60006102a3838360405180807f6d696d63000000000000000000000000000000000000000000000000000000008152506004019050604051809103902060019004605b61030f565b905092915050565b60006102b882600061025b565b9050919050565b6000610307838360405180807f6d696d63000000000000000000000000000000000000000000000000000000008152506004019050604051809103902060019004605b6103af565b905092915050565b60008084905060007f30644e72e131a029b85045b68181585d2833e84879b9709143e1f593f0000001905060008090505b87518110156103a1578161036d898381518110151561035b57fe5b906020019060200201518589896103af565b898381518110151561037b57fe5b9060200190602002015185010181151561039157fe5b0692508080600101915050610340565b508192505050949350505050565b600060018210156103bf57600080fd5b604051602081016040528381527f30644e72e131a029b85045b68181585d2833e84879b9709143e1f593f0000001600080855b60008111156104285760208520855283898587518d080892508383840991508383858685860985090999506001810390506103f2565b5082888a0894505050505094935050505056fea165627a7a7230582022f525e819ea9584759114c5769b2f2c0959c6593454f901394cb9c154c459120029",
  "source": "// Copyright (c) 2018 HarryR\n// License: LGPL-3.0+\n\npragma solidity >=0.5.0;\n\n/**\n* Implements MiMC-p/p over the altBN scalar field used by zkSNARKs\n*\n* See: https://eprint.iacr.org/2016/492.pdf\n*\n* Round constants are generated in sequence from a seed\n*/\nlibrary MiMC\n{\n    function GetScalarField ()\n        internal pure returns (uint256)\n    {\n        return 0x30644e72e131a029b85045b68181585d2833e84879b9709143e1f593f0000001;\n    }\n\n    function Encipher( uint256 in_x, uint256 in_k )\n        public pure returns(uint256 out_x)\n    {\n        return MiMCpe7( in_x, in_k, uint256(keccak256(\"mimc\")), 91 );\n    }\n\n    /**\n    * MiMC-p/p with exponent of 7\n    * \n    * Recommended at least 46 rounds, for a polynomial degree of 2^126\n    */\n    function MiMCpe7( uint256 in_x, uint256 in_k, uint256 in_seed, uint256 round_count )\n        internal pure returns(uint256 out_x)\n    {\n        assembly {\n            if lt(round_count, 1) { revert(0, 0) }\n\n            // Initialise round constants, k will be hashed \n            let c := mload(0x40)\n            mstore(0x40, add(c, 32))\n            mstore(c, in_seed)\n\n            let localQ := 0x30644e72e131a029b85045b68181585d2833e84879b9709143e1f593f0000001\n            let t\n            let a\n\n            // Further n-2 subsequent rounds include a round constant\n            for { let i := round_count } gt(i, 0) { i := sub(i, 1) } {\n                // c = H(c)\n                mstore(c, keccak256(c, 32))\n\n                // x = pow(x + c_i, 7, p) + k\n                t := addmod(addmod(in_x, mload(c), localQ), in_k, localQ)              // t = x + c_i + k\n                a := mulmod(t, t, localQ)                                              // t^2\n                in_x := mulmod(mulmod(a, mulmod(a, a, localQ), localQ), t, localQ)     // t^7\n            }\n\n            // Result adds key again as blinding factor\n            out_x := addmod(in_x, in_k, localQ)\n        }\n    }\n       \n    function MiMCpe7_mp( uint256[] memory in_x, uint256 in_k, uint256 in_seed, uint256 round_count )\n        internal pure returns (uint256)\n    {\n        uint256 r = in_k;\n        uint256 localQ = 0x30644e72e131a029b85045b68181585d2833e84879b9709143e1f593f0000001;\n\n        for( uint256 i = 0; i < in_x.length; i++ )\n        {\n            r = (r + in_x[i] + MiMCpe7(in_x[i], r, in_seed, round_count)) % localQ;\n        }\n        \n        return r;\n    }\n\n    function Hash( uint256[] memory in_msgs, uint256 in_key )\n        public pure returns (uint256)\n    {\n        return MiMCpe7_mp( in_msgs, in_key, uint256(keccak256(\"mimc\")), 91 );\n    }\n\n    function Hash( uint256[] memory in_msgs )\n        public pure returns (uint256)\n    {\n        return Hash( in_msgs, 0 );\n    }\n}\n\n",
  "sourcePath": "/home/user/snappframes/contracts/dependencies/MiMC.sol",
  "compiler": {
    "name": "solc",
    "version": "0.5.2+commit.1df8f40c.Emscripten.clang"
  },
  "schemaVersion": "3.0.6",
  "updatedAt": "2019-04-08T12:23:23.500Z",
  "devdoc": {
    "methods": {}
  },
  "userdoc": {
    "methods": {},
    "notice": "Implements MiMC-p/p over the altBN scalar field used by zkSNARKs * See: https://eprint.iacr.org/2016/492.pdf * Round constants are generated in sequence from a seed"
  }
}