{
  "contractName": "MiMC",
  "abi": [
    {
      "constant": true,
      "inputs": [
        {
          "name": "",
          "type": "uint256"
        },
        {
          "name": "",
          "type": "uint256"
        }
      ],
      "name": "MiMCpe7",
      "outputs": [
        {
          "name": "",
          "type": "uint256"
        }
      ],
      "payable": false,
      "stateMutability": "pure",
      "type": "function"
    }
  ],
  "bytecode": "0x608060405234801561001057600080fd5b5060c78061001f6000396000f3fe6080604052348015600f57600080fd5b50600436106045576000357c010000000000000000000000000000000000000000000000000000000090048063d15ca10914604a575b600080fd5b607d60048036036040811015605e57600080fd5b8101908080359060200190929190803590602001909291905050506093565b6040518082815260200191505060405180910390f35b60009291505056fea165627a7a72305820d36e5ac62ef2f0765b4dba34a41d8bec188a4f5f57cca8562fc99468150a0c9f0029",
  "source": "pragma solidity >=0.5.0;\n\n// import \"./dependencies/EdDSA.sol\";\nimport \"./dependencies/JubJub.sol\";\nimport '../node_modules/openzeppelin-solidity/contracts/token/ERC721/ERC721Full.sol';\n// import \"./dependencies/SafeMath.sol\";\n\n// contract Verifier{\n\n//     function Verify() public {}\n\n// }\n\ncontract MiMC{\n\n    function MiMCpe7(uint,uint) public pure returns (uint) {}\n\n}\n\ncontract EdDSA{\n\n    function Verify( uint256[2] memory, uint256, uint256[2] memory, uint256 )\n        public view returns (bool) {}\n\n}\n\n\ncontract Snappframes is ERC721Full, EdDSA, MiMC {\n\n    using SafeMath for uint;\n    using SafeMath for uint256; \n\n    uint public TREE_DEPTH = 6;\n\n    // Verifier verifier;\n    MiMC mimc;\n    EdDSA eddsa;\n\n    address operator = msg.sender;\n    uint TOTAL_FRAMES = 1000;\n    uint PRICE_PER_FRAME = 1000;\n    uint DEPOSIT_QUEUE_MAX = 4;\n    uint depositQueueLength = 0;\n    address[4] depositQueueAddresses;\n    mapping(address => uint[2]) depositQueue;\n\n    event Deposit(address _depositor, uint _from, uint _to);\n    event DepositsProcessed(address _firstDepositor, address _lastDepositor);\n\n    modifier depositQueueNotFull(){\n        require(depositQueueLength <= DEPOSIT_QUEUE_MAX);\n        _;\n    }\n\n    modifier operatorOnly(){\n        require(msg.sender == operator);\n        _;\n    }\n\n    constructor(\n        // address _verifierAddr,\n        address _mimcAddr,\n        address _eddsaAddr\n    ) ERC721Full(\"Snappframes\", \"SNP\") public {\n        // Verifier verifier = Verifier(_verifierAddr);\n        mimc = MiMC(_mimcAddr);\n        eddsa = EdDSA(_eddsaAddr);\n    }\n\n    // performs state transition\n    function update() public operatorOnly{\n        // TODO: wait for Geoff's verifier circuit\n    }\n\n    // creates accounts for people who deposit Ether\n    // @dev _from and _to are index ranges for movie frames\n    function deposit(uint _from, uint _to) public payable depositQueueNotFull{\n\n        uint numFrames = _to - _from;\n        require(numFrames > 0);\n        require(msg.value >= numFrames*PRICE_PER_FRAME);\n\n        depositQueueLength++;\n        depositQueueAddresses[depositQueueLength - 1] = msg.sender;\n        depositQueue[msg.sender] = [_from, _to];\n\n        emit Deposit(msg.sender, _from, _to);\n\n    }\n\n    // operator updates merkle tree with deposits\n    function processDepositQueue() public operatorOnly{\n        emit DepositsProcessed(\n            depositQueueAddresses[0], \n            depositQueueAddresses[DEPOSIT_QUEUE_MAX]);\n        depositQueueLength = 0;\n    }\n\n\n    // allows withdraw of ERC721 token to Ethereum address\n    function withdraw(\n        uint256 asset, \n        uint256[2] memory pubkey, //EdDSA pubKey_x and pubKey_y\n        uint256 hashed_msg, //hash of msg.sender and leaf\n        uint256[2] memory R, //EdDSA signature field\n        uint256 s //EdDSA signature field\n    ) public {\n        // verify EdDSA signature\n        require(EdDSA.Verify(pubkey, hashed_msg, R, s)); \n        // return result; \n\n        // verify hashed msg sends leaf to msg.sender\n        // uint leaf = mimc.MiMCpe7(pubkey[0], pubkey[1], asset);\n        // require(mimc.MiMCpe7(msg.sender, leaf) == hashed_msg);\n\n        // generate ERC721 token\n\n        // send token to depositor on Ethereum\n    }\n\n}",
  "sourcePath": "/home/user/snappframes/contracts/Snappframes.sol",
  "compiler": {
    "name": "solc",
    "version": "0.5.2+commit.1df8f40c.Emscripten.clang"
  },
  "schemaVersion": "3.0.6",
  "updatedAt": "2019-04-08T09:30:55.700Z",
  "devdoc": {
    "methods": {}
  },
  "userdoc": {
    "methods": {}
  }
}