{
  "contractName": "Snappframes",
  "abi": [
    {
      "constant": true,
      "inputs": [
        {
          "name": "interfaceId",
          "type": "bytes4"
        }
      ],
      "name": "supportsInterface",
      "outputs": [
        {
          "name": "",
          "type": "bool"
        }
      ],
      "payable": false,
      "stateMutability": "view",
      "type": "function",
      "signature": "0x01ffc9a7"
    },
    {
      "constant": true,
      "inputs": [],
      "name": "name",
      "outputs": [
        {
          "name": "",
          "type": "string"
        }
      ],
      "payable": false,
      "stateMutability": "view",
      "type": "function",
      "signature": "0x06fdde03"
    },
    {
      "constant": true,
      "inputs": [
        {
          "name": "tokenId",
          "type": "uint256"
        }
      ],
      "name": "getApproved",
      "outputs": [
        {
          "name": "",
          "type": "address"
        }
      ],
      "payable": false,
      "stateMutability": "view",
      "type": "function",
      "signature": "0x081812fc"
    },
    {
      "constant": false,
      "inputs": [
        {
          "name": "to",
          "type": "address"
        },
        {
          "name": "tokenId",
          "type": "uint256"
        }
      ],
      "name": "approve",
      "outputs": [],
      "payable": false,
      "stateMutability": "nonpayable",
      "type": "function",
      "signature": "0x095ea7b3"
    },
    {
      "constant": true,
      "inputs": [],
      "name": "totalSupply",
      "outputs": [
        {
          "name": "",
          "type": "uint256"
        }
      ],
      "payable": false,
      "stateMutability": "view",
      "type": "function",
      "signature": "0x18160ddd"
    },
    {
      "constant": false,
      "inputs": [
        {
          "name": "from",
          "type": "address"
        },
        {
          "name": "to",
          "type": "address"
        },
        {
          "name": "tokenId",
          "type": "uint256"
        }
      ],
      "name": "transferFrom",
      "outputs": [],
      "payable": false,
      "stateMutability": "nonpayable",
      "type": "function",
      "signature": "0x23b872dd"
    },
    {
      "constant": true,
      "inputs": [
        {
          "name": "owner",
          "type": "address"
        },
        {
          "name": "index",
          "type": "uint256"
        }
      ],
      "name": "tokenOfOwnerByIndex",
      "outputs": [
        {
          "name": "",
          "type": "uint256"
        }
      ],
      "payable": false,
      "stateMutability": "view",
      "type": "function",
      "signature": "0x2f745c59"
    },
    {
      "constant": false,
      "inputs": [
        {
          "name": "from",
          "type": "address"
        },
        {
          "name": "to",
          "type": "address"
        },
        {
          "name": "tokenId",
          "type": "uint256"
        }
      ],
      "name": "safeTransferFrom",
      "outputs": [],
      "payable": false,
      "stateMutability": "nonpayable",
      "type": "function",
      "signature": "0x42842e0e"
    },
    {
      "constant": true,
      "inputs": [
        {
          "name": "index",
          "type": "uint256"
        }
      ],
      "name": "tokenByIndex",
      "outputs": [
        {
          "name": "",
          "type": "uint256"
        }
      ],
      "payable": false,
      "stateMutability": "view",
      "type": "function",
      "signature": "0x4f6ccce7"
    },
    {
      "constant": true,
      "inputs": [
        {
          "name": "tokenId",
          "type": "uint256"
        }
      ],
      "name": "ownerOf",
      "outputs": [
        {
          "name": "",
          "type": "address"
        }
      ],
      "payable": false,
      "stateMutability": "view",
      "type": "function",
      "signature": "0x6352211e"
    },
    {
      "constant": true,
      "inputs": [
        {
          "name": "owner",
          "type": "address"
        }
      ],
      "name": "balanceOf",
      "outputs": [
        {
          "name": "",
          "type": "uint256"
        }
      ],
      "payable": false,
      "stateMutability": "view",
      "type": "function",
      "signature": "0x70a08231"
    },
    {
      "constant": true,
      "inputs": [],
      "name": "symbol",
      "outputs": [
        {
          "name": "",
          "type": "string"
        }
      ],
      "payable": false,
      "stateMutability": "view",
      "type": "function",
      "signature": "0x95d89b41"
    },
    {
      "constant": false,
      "inputs": [
        {
          "name": "to",
          "type": "address"
        },
        {
          "name": "approved",
          "type": "bool"
        }
      ],
      "name": "setApprovalForAll",
      "outputs": [],
      "payable": false,
      "stateMutability": "nonpayable",
      "type": "function",
      "signature": "0xa22cb465"
    },
    {
      "constant": false,
      "inputs": [
        {
          "name": "from",
          "type": "address"
        },
        {
          "name": "to",
          "type": "address"
        },
        {
          "name": "tokenId",
          "type": "uint256"
        },
        {
          "name": "_data",
          "type": "bytes"
        }
      ],
      "name": "safeTransferFrom",
      "outputs": [],
      "payable": false,
      "stateMutability": "nonpayable",
      "type": "function",
      "signature": "0xb88d4fde"
    },
    {
      "constant": true,
      "inputs": [
        {
          "name": "tokenId",
          "type": "uint256"
        }
      ],
      "name": "tokenURI",
      "outputs": [
        {
          "name": "",
          "type": "string"
        }
      ],
      "payable": false,
      "stateMutability": "view",
      "type": "function",
      "signature": "0xc87b56dd"
    },
    {
      "constant": true,
      "inputs": [
        {
          "name": "",
          "type": "uint256"
        },
        {
          "name": "",
          "type": "uint256"
        }
      ],
      "name": "MiMCpe7",
      "outputs": [
        {
          "name": "",
          "type": "uint256"
        }
      ],
      "payable": false,
      "stateMutability": "pure",
      "type": "function",
      "signature": "0xd15ca109"
    },
    {
      "constant": true,
      "inputs": [
        {
          "name": "",
          "type": "uint256[2]"
        },
        {
          "name": "",
          "type": "uint256"
        },
        {
          "name": "",
          "type": "uint256[2]"
        },
        {
          "name": "",
          "type": "uint256"
        }
      ],
      "name": "Verify",
      "outputs": [
        {
          "name": "",
          "type": "bool"
        }
      ],
      "payable": false,
      "stateMutability": "view",
      "type": "function",
      "signature": "0xda047321"
    },
    {
      "constant": true,
      "inputs": [
        {
          "name": "owner",
          "type": "address"
        },
        {
          "name": "operator",
          "type": "address"
        }
      ],
      "name": "isApprovedForAll",
      "outputs": [
        {
          "name": "",
          "type": "bool"
        }
      ],
      "payable": false,
      "stateMutability": "view",
      "type": "function",
      "signature": "0xe985e9c5"
    },
    {
      "constant": true,
      "inputs": [],
      "name": "TREE_DEPTH",
      "outputs": [
        {
          "name": "",
          "type": "uint256"
        }
      ],
      "payable": false,
      "stateMutability": "view",
      "type": "function",
      "signature": "0xf1650536"
    },
    {
      "inputs": [
        {
          "name": "_mimcAddr",
          "type": "address"
        },
        {
          "name": "_eddsaAddr",
          "type": "address"
        }
      ],
      "payable": false,
      "stateMutability": "nonpayable",
      "type": "constructor",
      "signature": "constructor"
    },
    {
      "anonymous": false,
      "inputs": [
        {
          "indexed": false,
          "name": "_depositor",
          "type": "address"
        },
        {
          "indexed": false,
          "name": "_from",
          "type": "uint256"
        },
        {
          "indexed": false,
          "name": "_to",
          "type": "uint256"
        }
      ],
      "name": "Deposit",
      "type": "event",
      "signature": "0x90890809c654f11d6e72a28fa60149770a0d11ec6c92319d6ceb2bb0a4ea1a15"
    },
    {
      "anonymous": false,
      "inputs": [
        {
          "indexed": false,
          "name": "_firstDepositor",
          "type": "address"
        },
        {
          "indexed": false,
          "name": "_lastDepositor",
          "type": "address"
        }
      ],
      "name": "DepositsProcessed",
      "type": "event",
      "signature": "0x1fb1047f612b2371ce2fabe1282c8126d06ec9bb7171c1db95ac91d3bab13fc7"
    },
    {
      "anonymous": false,
      "inputs": [
        {
          "indexed": true,
          "name": "from",
          "type": "address"
        },
        {
          "indexed": true,
          "name": "to",
          "type": "address"
        },
        {
          "indexed": true,
          "name": "tokenId",
          "type": "uint256"
        }
      ],
      "name": "Transfer",
      "type": "event",
      "signature": "0xddf252ad1be2c89b69c2b068fc378daa952ba7f163c4a11628f55a4df523b3ef"
    },
    {
      "anonymous": false,
      "inputs": [
        {
          "indexed": true,
          "name": "owner",
          "type": "address"
        },
        {
          "indexed": true,
          "name": "approved",
          "type": "address"
        },
        {
          "indexed": true,
          "name": "tokenId",
          "type": "uint256"
        }
      ],
      "name": "Approval",
      "type": "event",
      "signature": "0x8c5be1e5ebec7d5bd14f71427d1e84f3dd0314c0f7b2291e5b200ac8c7c3b925"
    },
    {
      "anonymous": false,
      "inputs": [
        {
          "indexed": true,
          "name": "owner",
          "type": "address"
        },
        {
          "indexed": true,
          "name": "operator",
          "type": "address"
        },
        {
          "indexed": false,
          "name": "approved",
          "type": "bool"
        }
      ],
      "name": "ApprovalForAll",
      "type": "event",
      "signature": "0x17307eab39ab6107e8899845ad3d59bd9653f200f220920489ca2b5937696c31"
    },
    {
      "constant": false,
      "inputs": [],
      "name": "update",
      "outputs": [],
      "payable": false,
      "stateMutability": "nonpayable",
      "type": "function",
      "signature": "0xa2e62045"
    },
    {
      "constant": false,
      "inputs": [
        {
          "name": "_from",
          "type": "uint256"
        },
        {
          "name": "_to",
          "type": "uint256"
        }
      ],
      "name": "deposit",
      "outputs": [],
      "payable": true,
      "stateMutability": "payable",
      "type": "function",
      "signature": "0xe2bbb158"
    },
    {
      "constant": false,
      "inputs": [],
      "name": "processDepositQueue",
      "outputs": [],
      "payable": false,
      "stateMutability": "nonpayable",
      "type": "function",
      "signature": "0xae186911"
    },
    {
      "constant": false,
      "inputs": [
        {
          "name": "asset",
          "type": "uint256"
        },
        {
          "name": "pubkey",
          "type": "uint256[2]"
        },
        {
          "name": "hashed_msg",
          "type": "uint256"
        },
        {
          "name": "R",
          "type": "uint256[2]"
        },
        {
          "name": "s",
          "type": "uint256"
        }
      ],
      "name": "withdraw",
      "outputs": [],
      "payable": false,
      "stateMutability": "nonpayable",
      "type": "function",
      "signature": "0xf15c6081"
    }
  ],
  "bytecode": "0x60806040526006600c5533600f60006101000a81548173ffffffffffffffffffffffffffffffffffffffff021916908373ffffffffffffffffffffffffffffffffffffffff1602179055506103e86010556103e8601155600460125560006013553480156200006d57600080fd5b506040516040806200250f833981018060405260408110156200008f57600080fd5b8101908080519060200190929190805190602001909291905050506040805190810160405280600b81526020017f536e6170706672616d65730000000000000000000000000000000000000000008152506040805190810160405280600381526020017f534e5000000000000000000000000000000000000000000000000000000000008152508181620001556301ffc9a77c010000000000000000000000000000000000000000000000000000000002620002cc640100000000026401000000009004565b620001926380ac58cd7c010000000000000000000000000000000000000000000000000000000002620002cc640100000000026401000000009004565b620001cf63780e9d637c010000000000000000000000000000000000000000000000000000000002620002cc640100000000026401000000009004565b8160099080519060200190620001e79291906200038a565b5080600a9080519060200190620002009291906200038a565b506200023e635b5e139f7c010000000000000000000000000000000000000000000000000000000002620002cc640100000000026401000000009004565b5050505081600d60006101000a81548173ffffffffffffffffffffffffffffffffffffffff021916908373ffffffffffffffffffffffffffffffffffffffff16021790555080600e60006101000a81548173ffffffffffffffffffffffffffffffffffffffff021916908373ffffffffffffffffffffffffffffffffffffffff160217905550505062000439565b63ffffffff7c010000000000000000000000000000000000000000000000000000000002817bffffffffffffffffffffffffffffffffffffffffffffffffffffffff1916141515156200031e57600080fd5b6001600080837bffffffffffffffffffffffffffffffffffffffffffffffffffffffff19167bffffffffffffffffffffffffffffffffffffffffffffffffffffffff1916815260200190815260200160002060006101000a81548160ff02191690831515021790555050565b828054600181600116156101000203166002900490600052602060002090601f016020900481019282601f10620003cd57805160ff1916838001178555620003fe565b82800160010185558215620003fe579182015b82811115620003fd578251825591602001919060010190620003e0565b5b5090506200040d919062000411565b5090565b6200043691905b808211156200043257600081600090555060010162000418565b5090565b90565b6120c680620004496000396000f3fe60806040526004361061015d576000357c01000000000000000000000000000000000000000000000000000000009004806395d89b41116100d3578063d15ca1091161008c578063d15ca109146108da578063da04732114610933578063e2bbb15814610a12578063e985e9c514610a4a578063f15c608114610ad3578063f165053614610ba45761015d565b806395d89b41146105f9578063a22cb46514610689578063a2e62045146106e6578063ae186911146106fd578063b88d4fde14610714578063c87b56dd146108265761015d565b806323b872dd1161012557806323b872dd146103655780632f745c59146103e057806342842e0e1461044f5780634f6ccce7146104ca5780636352211e1461051957806370a08231146105945761015d565b806301ffc9a71461016257806306fdde03146101d4578063081812fc14610264578063095ea7b3146102df57806318160ddd1461033a575b600080fd5b34801561016e57600080fd5b506101ba6004803603602081101561018557600080fd5b8101908080357bffffffffffffffffffffffffffffffffffffffffffffffffffffffff19169060200190929190505050610bcf565b604051808215151515815260200191505060405180910390f35b3480156101e057600080fd5b506101e9610c36565b6040518080602001828103825283818151815260200191508051906020019080838360005b8381101561022957808201518184015260208101905061020e565b50505050905090810190601f1680156102565780820380516001836020036101000a031916815260200191505b509250505060405180910390f35b34801561027057600080fd5b5061029d6004803603602081101561028757600080fd5b8101908080359060200190929190505050610cd8565b604051808273ffffffffffffffffffffffffffffffffffffffff1673ffffffffffffffffffffffffffffffffffffffff16815260200191505060405180910390f35b3480156102eb57600080fd5b506103386004803603604081101561030257600080fd5b81019080803573ffffffffffffffffffffffffffffffffffffffff16906020019092919080359060200190929190505050610d29565b005b34801561034657600080fd5b5061034f610e6e565b6040518082815260200191505060405180910390f35b34801561037157600080fd5b506103de6004803603606081101561038857600080fd5b81019080803573ffffffffffffffffffffffffffffffffffffffff169060200190929190803573ffffffffffffffffffffffffffffffffffffffff16906020019092919080359060200190929190505050610e7b565b005b3480156103ec57600080fd5b506104396004803603604081101561040357600080fd5b81019080803573ffffffffffffffffffffffffffffffffffffffff16906020019092919080359060200190929190505050610ea0565b6040518082815260200191505060405180910390f35b34801561045b57600080fd5b506104c86004803603606081101561047257600080fd5b81019080803573ffffffffffffffffffffffffffffffffffffffff169060200190929190803573ffffffffffffffffffffffffffffffffffffffff16906020019092919080359060200190929190505050610f17565b005b3480156104d657600080fd5b50610503600480360360208110156104ed57600080fd5b8101908080359060200190929190505050610f38565b6040518082815260200191505060405180910390f35b34801561052557600080fd5b506105526004803603602081101561053c57600080fd5b8101908080359060200190929190505050610f70565b604051808273ffffffffffffffffffffffffffffffffffffffff1673ffffffffffffffffffffffffffffffffffffffff16815260200191505060405180910390f35b3480156105a057600080fd5b506105e3600480360360208110156105b757600080fd5b81019080803573ffffffffffffffffffffffffffffffffffffffff169060200190929190505050610fee565b6040518082815260200191505060405180910390f35b34801561060557600080fd5b5061060e611079565b6040518080602001828103825283818151815260200191508051906020019080838360005b8381101561064e578082015181840152602081019050610633565b50505050905090810190601f16801561067b5780820380516001836020036101000a031916815260200191505b509250505060405180910390f35b34801561069557600080fd5b506106e4600480360360408110156106ac57600080fd5b81019080803573ffffffffffffffffffffffffffffffffffffffff16906020019092919080351515906020019092919050505061111b565b005b3480156106f257600080fd5b506106fb611257565b005b34801561070957600080fd5b506107126112b5565b005b34801561072057600080fd5b506108246004803603608081101561073757600080fd5b81019080803573ffffffffffffffffffffffffffffffffffffffff169060200190929190803573ffffffffffffffffffffffffffffffffffffffff169060200190929190803590602001909291908035906020019064010000000081111561079e57600080fd5b8201836020820111156107b057600080fd5b803590602001918460018302840111640100000000831117156107d257600080fd5b91908080601f016020809104026020016040519081016040528093929190818152602001838380828437600081840152601f19601f820116905080830192505050505050509192919290505050611415565b005b34801561083257600080fd5b5061085f6004803603602081101561084957600080fd5b810190808035906020019092919050505061143d565b6040518080602001828103825283818151815260200191508051906020019080838360005b8381101561089f578082015181840152602081019050610884565b50505050905090810190601f1680156108cc5780820380516001836020036101000a031916815260200191505b509250505060405180910390f35b3480156108e657600080fd5b5061091d600480360360408110156108fd57600080fd5b810190808035906020019092919080359060200190929190505050611506565b6040518082815260200191505060405180910390f35b34801561093f57600080fd5b506109f8600480360360c081101561095657600080fd5b8101908080604001906002806020026040519081016040528092919082600260200280828437600081840152601f19601f82011690508083019250505050505091929192908035906020019092919080604001906002806020026040519081016040528092919082600260200280828437600081840152601f19601f82011690508083019250505050505091929192908035906020019092919050505061150e565b604051808215151515815260200191505060405180910390f35b610a4860048036036040811015610a2857600080fd5b810190808035906020019092919080359060200190929190505050611518565b005b348015610a5657600080fd5b50610ab960048036036040811015610a6d57600080fd5b81019080803573ffffffffffffffffffffffffffffffffffffffff169060200190929190803573ffffffffffffffffffffffffffffffffffffffff169060200190929190505050611695565b604051808215151515815260200191505060405180910390f35b348015610adf57600080fd5b50610ba2600480360360e0811015610af657600080fd5b810190808035906020019092919080604001906002806020026040519081016040528092919082600260200280828437600081840152601f19601f82011690508083019250505050505091929192908035906020019092919080604001906002806020026040519081016040528092919082600260200280828437600081840152601f19601f820116905080830192505050505050919291929080359060200190929190505050611729565b005b348015610bb057600080fd5b50610bb9611747565b6040518082815260200191505060405180910390f35b6000806000837bffffffffffffffffffffffffffffffffffffffffffffffffffffffff19167bffffffffffffffffffffffffffffffffffffffffffffffffffffffff1916815260200190815260200160002060009054906101000a900460ff169050919050565b606060098054600181600116156101000203166002900480601f016020809104026020016040519081016040528092919081815260200182805460018160011615610100020316600290048015610cce5780601f10610ca357610100808354040283529160200191610cce565b820191906000526020600020905b815481529060010190602001808311610cb157829003601f168201915b5050505050905090565b6000610ce38261174d565b1515610cee57600080fd5b6002600083815260200190815260200160002060009054906101000a900473ffffffffffffffffffffffffffffffffffffffff169050919050565b6000610d3482610f70565b90508073ffffffffffffffffffffffffffffffffffffffff168373ffffffffffffffffffffffffffffffffffffffff1614151515610d7157600080fd5b8073ffffffffffffffffffffffffffffffffffffffff163373ffffffffffffffffffffffffffffffffffffffff161480610db15750610db08133611695565b5b1515610dbc57600080fd5b826002600084815260200190815260200160002060006101000a81548173ffffffffffffffffffffffffffffffffffffffff021916908373ffffffffffffffffffffffffffffffffffffffff160217905550818373ffffffffffffffffffffffffffffffffffffffff168273ffffffffffffffffffffffffffffffffffffffff167f8c5be1e5ebec7d5bd14f71427d1e84f3dd0314c0f7b2291e5b200ac8c7c3b92560405160405180910390a4505050565b6000600780549050905090565b610e8533826117bf565b1515610e9057600080fd5b610e9b838383611854565b505050565b6000610eab83610fee565b82101515610eb857600080fd5b600560008473ffffffffffffffffffffffffffffffffffffffff1673ffffffffffffffffffffffffffffffffffffffff16815260200190815260200160002082815481101515610f0457fe5b9060005260206000200154905092915050565b610f338383836020604051908101604052806000815250611415565b505050565b6000610f42610e6e565b82101515610f4f57600080fd5b600782815481101515610f5e57fe5b90600052602060002001549050919050565b6000806001600084815260200190815260200160002060009054906101000a900473ffffffffffffffffffffffffffffffffffffffff169050600073ffffffffffffffffffffffffffffffffffffffff168173ffffffffffffffffffffffffffffffffffffffff1614151515610fe557600080fd5b80915050919050565b60008073ffffffffffffffffffffffffffffffffffffffff168273ffffffffffffffffffffffffffffffffffffffff161415151561102b57600080fd5b611072600360008473ffffffffffffffffffffffffffffffffffffffff1673ffffffffffffffffffffffffffffffffffffffff168152602001908152602001600020611878565b9050919050565b6060600a8054600181600116156101000203166002900480601f0160208091040260200160405190810160405280929190818152602001828054600181600116156101000203166002900480156111115780601f106110e657610100808354040283529160200191611111565b820191906000526020600020905b8154815290600101906020018083116110f457829003601f168201915b5050505050905090565b3373ffffffffffffffffffffffffffffffffffffffff168273ffffffffffffffffffffffffffffffffffffffff161415151561115657600080fd5b80600460003373ffffffffffffffffffffffffffffffffffffffff1673ffffffffffffffffffffffffffffffffffffffff16815260200190815260200160002060008473ffffffffffffffffffffffffffffffffffffffff1673ffffffffffffffffffffffffffffffffffffffff16815260200190815260200160002060006101000a81548160ff0219169083151502179055508173ffffffffffffffffffffffffffffffffffffffff163373ffffffffffffffffffffffffffffffffffffffff167f17307eab39ab6107e8899845ad3d59bd9653f200f220920489ca2b5937696c3183604051808215151515815260200191505060405180910390a35050565b600f60009054906101000a900473ffffffffffffffffffffffffffffffffffffffff1673ffffffffffffffffffffffffffffffffffffffff163373ffffffffffffffffffffffffffffffffffffffff161415156112b357600080fd5b565b600f60009054906101000a900473ffffffffffffffffffffffffffffffffffffffff1673ffffffffffffffffffffffffffffffffffffffff163373ffffffffffffffffffffffffffffffffffffffff1614151561131157600080fd5b7f1fb1047f612b2371ce2fabe1282c8126d06ec9bb7171c1db95ac91d3bab13fc76014600060048110151561134257fe5b0160009054906101000a900473ffffffffffffffffffffffffffffffffffffffff16601460125460048110151561137557fe5b0160009054906101000a900473ffffffffffffffffffffffffffffffffffffffff16604051808373ffffffffffffffffffffffffffffffffffffffff1673ffffffffffffffffffffffffffffffffffffffff1681526020018273ffffffffffffffffffffffffffffffffffffffff1673ffffffffffffffffffffffffffffffffffffffff1681526020019250505060405180910390a16000601381905550565b611420848484610e7b565b61142c84848484611886565b151561143757600080fd5b50505050565b60606114488261174d565b151561145357600080fd5b600b60008381526020019081526020016000208054600181600116156101000203166002900480601f0160208091040260200160405190810160405280929190818152602001828054600181600116156101000203166002900480156114fa5780601f106114cf576101008083540402835291602001916114fa565b820191906000526020600020905b8154815290600101906020018083116114dd57829003601f168201915b50505050509050919050565b600092915050565b6000949350505050565b6012546013541115151561152b57600080fd5b6000828203905060008111151561154157600080fd5b6011548102341015151561155457600080fd5b60136000815480929190600101919050555033601460016013540360048110151561157b57fe5b0160006101000a81548173ffffffffffffffffffffffffffffffffffffffff021916908373ffffffffffffffffffffffffffffffffffffffff160217905550604080519081016040528084815260200183815250601860003373ffffffffffffffffffffffffffffffffffffffff1673ffffffffffffffffffffffffffffffffffffffff16815260200190815260200160002090600261161c929190612009565b507f90890809c654f11d6e72a28fa60149770a0d11ec6c92319d6ceb2bb0a4ea1a15338484604051808473ffffffffffffffffffffffffffffffffffffffff1673ffffffffffffffffffffffffffffffffffffffff168152602001838152602001828152602001935050505060405180910390a1505050565b6000600460008473ffffffffffffffffffffffffffffffffffffffff1673ffffffffffffffffffffffffffffffffffffffff16815260200190815260200160002060008373ffffffffffffffffffffffffffffffffffffffff1673ffffffffffffffffffffffffffffffffffffffff16815260200190815260200160002060009054906101000a900460ff16905092915050565b6117358484848461150e565b151561174057600080fd5b5050505050565b600c5481565b6000806001600084815260200190815260200160002060009054906101000a900473ffffffffffffffffffffffffffffffffffffffff169050600073ffffffffffffffffffffffffffffffffffffffff168173ffffffffffffffffffffffffffffffffffffffff161415915050919050565b6000806117cb83610f70565b90508073ffffffffffffffffffffffffffffffffffffffff168473ffffffffffffffffffffffffffffffffffffffff16148061183a57508373ffffffffffffffffffffffffffffffffffffffff1661182284610cd8565b73ffffffffffffffffffffffffffffffffffffffff16145b8061184b575061184a8185611695565b5b91505092915050565b61185f838383611aa9565b6118698382611c70565b6118738282611e14565b505050565b600081600001549050919050565b60006118a78473ffffffffffffffffffffffffffffffffffffffff16611edb565b15156118b65760019050611aa1565b60008473ffffffffffffffffffffffffffffffffffffffff1663150b7a02338887876040518563ffffffff167c0100000000000000000000000000000000000000000000000000000000028152600401808573ffffffffffffffffffffffffffffffffffffffff1673ffffffffffffffffffffffffffffffffffffffff1681526020018473ffffffffffffffffffffffffffffffffffffffff1673ffffffffffffffffffffffffffffffffffffffff16815260200183815260200180602001828103825283818151815260200191508051906020019080838360005b838110156119ad578082015181840152602081019050611992565b50505050905090810190601f1680156119da5780820380516001836020036101000a031916815260200191505b5095505050505050602060405180830381600087803b1580156119fc57600080fd5b505af1158015611a10573d6000803e3d6000fd5b505050506040513d6020811015611a2657600080fd5b8101908080519060200190929190505050905063150b7a027c0100000000000000000000000000000000000000000000000000000000027bffffffffffffffffffffffffffffffffffffffffffffffffffffffff1916817bffffffffffffffffffffffffffffffffffffffffffffffffffffffff1916149150505b949350505050565b8273ffffffffffffffffffffffffffffffffffffffff16611ac982610f70565b73ffffffffffffffffffffffffffffffffffffffff16141515611aeb57600080fd5b600073ffffffffffffffffffffffffffffffffffffffff168273ffffffffffffffffffffffffffffffffffffffff1614151515611b2757600080fd5b611b3081611eee565b611b77600360008573ffffffffffffffffffffffffffffffffffffffff1673ffffffffffffffffffffffffffffffffffffffff168152602001908152602001600020611fae565b611bbe600360008473ffffffffffffffffffffffffffffffffffffffff1673ffffffffffffffffffffffffffffffffffffffff168152602001908152602001600020611fd1565b816001600083815260200190815260200160002060006101000a81548173ffffffffffffffffffffffffffffffffffffffff021916908373ffffffffffffffffffffffffffffffffffffffff160217905550808273ffffffffffffffffffffffffffffffffffffffff168473ffffffffffffffffffffffffffffffffffffffff167fddf252ad1be2c89b69c2b068fc378daa952ba7f163c4a11628f55a4df523b3ef60405160405180910390a4505050565b6000611cc86001600560008673ffffffffffffffffffffffffffffffffffffffff1673ffffffffffffffffffffffffffffffffffffffff16815260200190815260200160002080549050611fe790919063ffffffff16565b90506000600660008481526020019081526020016000205490508181141515611dbb576000600560008673ffffffffffffffffffffffffffffffffffffffff1673ffffffffffffffffffffffffffffffffffffffff16815260200190815260200160002083815481101515611d3957fe5b9060005260206000200154905080600560008773ffffffffffffffffffffffffffffffffffffffff1673ffffffffffffffffffffffffffffffffffffffff16815260200190815260200160002083815481101515611d9357fe5b9060005260206000200181905550816006600083815260200190815260200160002081905550505b600560008573ffffffffffffffffffffffffffffffffffffffff1673ffffffffffffffffffffffffffffffffffffffff168152602001908152602001600020805480919060019003611e0d9190612049565b5050505050565b600560008373ffffffffffffffffffffffffffffffffffffffff1673ffffffffffffffffffffffffffffffffffffffff168152602001908152602001600020805490506006600083815260200190815260200160002081905550600560008373ffffffffffffffffffffffffffffffffffffffff1673ffffffffffffffffffffffffffffffffffffffff1681526020019081526020016000208190806001815401808255809150509060018203906000526020600020016000909192909190915055505050565b600080823b905060008111915050919050565b600073ffffffffffffffffffffffffffffffffffffffff166002600083815260200190815260200160002060009054906101000a900473ffffffffffffffffffffffffffffffffffffffff1673ffffffffffffffffffffffffffffffffffffffff16141515611fab5760006002600083815260200190815260200160002060006101000a81548173ffffffffffffffffffffffffffffffffffffffff021916908373ffffffffffffffffffffffffffffffffffffffff1602179055505b50565b611fc660018260000154611fe790919063ffffffff16565b816000018190555050565b6001816000016000828254019250508190555050565b6000828211151515611ff857600080fd5b600082840390508091505092915050565b8260028101928215612038579160200282015b8281111561203757825182559160200191906001019061201c565b5b5090506120459190612075565b5090565b8154818355818111156120705781836000526020600020918201910161206f9190612075565b5b505050565b61209791905b8082111561209357600081600090555060010161207b565b5090565b9056fea165627a7a723058209c715ca314f0b1e10c6a6450ba35e391f2e9dd9f38747971806c9ea0496f8fa50029",
  "source": "pragma solidity >=0.5.0;\n\n// import \"./dependencies/EdDSA.sol\";\nimport \"./dependencies/JubJub.sol\";\nimport '../node_modules/openzeppelin-solidity/contracts/token/ERC721/ERC721Full.sol';\n// import \"./dependencies/SafeMath.sol\";\n\n// contract Verifier{\n\n//     function Verify() public {}\n\n// }\n\ncontract MiMC{\n\n    function MiMCpe7(uint,uint) public pure returns (uint) {}\n\n}\n\ncontract EdDSA{\n\n    function Verify( uint256[2] memory, uint256, uint256[2] memory, uint256 )\n        public view returns (bool) {}\n\n}\n\n\ncontract Snappframes is ERC721Full, EdDSA, MiMC {\n\n    using SafeMath for uint;\n    using SafeMath for uint256; \n\n    uint public TREE_DEPTH = 6;\n\n    // Verifier verifier;\n    MiMC mimc;\n    EdDSA eddsa;\n\n    address operator = msg.sender;\n    uint TOTAL_FRAMES = 1000;\n    uint PRICE_PER_FRAME = 1000;\n    uint DEPOSIT_QUEUE_MAX = 4;\n    uint depositQueueLength = 0;\n    address[4] depositQueueAddresses;\n    mapping(address => uint[2]) depositQueue;\n\n    event Deposit(address _depositor, uint _from, uint _to);\n    event DepositsProcessed(address _firstDepositor, address _lastDepositor);\n\n    modifier depositQueueNotFull(){\n        require(depositQueueLength <= DEPOSIT_QUEUE_MAX);\n        _;\n    }\n\n    modifier operatorOnly(){\n        require(msg.sender == operator);\n        _;\n    }\n\n    constructor(\n        // address _verifierAddr,\n        address _mimcAddr,\n        address _eddsaAddr\n    ) ERC721Full(\"Snappframes\", \"SNP\") public {\n        // Verifier verifier = Verifier(_verifierAddr);\n        mimc = MiMC(_mimcAddr);\n        eddsa = EdDSA(_eddsaAddr);\n    }\n\n    // performs state transition\n    function update() public operatorOnly{\n        // TODO: wait for Geoff's verifier circuit\n    }\n\n    // creates accounts for people who deposit Ether\n    // @dev _from and _to are index ranges for movie frames\n    function deposit(uint _from, uint _to) public payable depositQueueNotFull{\n\n        uint numFrames = _to - _from;\n        require(numFrames > 0);\n        require(msg.value >= numFrames*PRICE_PER_FRAME);\n\n        depositQueueLength++;\n        depositQueueAddresses[depositQueueLength - 1] = msg.sender;\n        depositQueue[msg.sender] = [_from, _to];\n\n        emit Deposit(msg.sender, _from, _to);\n\n    }\n\n    // operator updates merkle tree with deposits\n    function processDepositQueue() public operatorOnly{\n        emit DepositsProcessed(\n            depositQueueAddresses[0], \n            depositQueueAddresses[DEPOSIT_QUEUE_MAX]);\n        depositQueueLength = 0;\n    }\n\n\n    // allows withdraw of ERC721 token to Ethereum address\n    function withdraw(\n        uint256 asset, \n        uint256[2] memory pubkey, //EdDSA pubKey_x and pubKey_y\n        uint256 hashed_msg, //hash of msg.sender and leaf\n        uint256[2] memory R, //EdDSA signature field\n        uint256 s //EdDSA signature field\n    ) public {\n        // verify EdDSA signature\n        require(EdDSA.Verify(pubkey, hashed_msg, R, s)); \n        // return result; \n\n        // verify hashed msg sends leaf to msg.sender\n        // uint leaf = mimc.MiMCpe7(pubkey[0], pubkey[1], asset);\n        // require(mimc.MiMCpe7(msg.sender, leaf) == hashed_msg);\n\n        // generate ERC721 token\n\n        // send token to depositor on Ethereum\n    }\n\n}",
  "sourcePath": "/home/user/snappframes/contracts/Snappframes.sol",
  "compiler": {
    "name": "solc",
    "version": "0.5.2+commit.1df8f40c.Emscripten.clang"
  },
  "schemaVersion": "3.0.6",
  "updatedAt": "2019-04-08T09:30:57.039Z",
  "devdoc": {
    "methods": {
      "approve(address,uint256)": {
        "details": "Approves another address to transfer the given token ID The zero address indicates there is no approved address. There can only be one approved address per token at a given time. Can only be called by the token owner or an approved operator.",
        "params": {
          "to": "address to be approved for the given token ID",
          "tokenId": "uint256 ID of the token to be approved"
        }
      },
      "balanceOf(address)": {
        "details": "Gets the balance of the specified address",
        "params": {
          "owner": "address to query the balance of"
        },
        "return": "uint256 representing the amount owned by the passed address"
      },
      "getApproved(uint256)": {
        "details": "Gets the approved address for a token ID, or zero if no address set Reverts if the token ID does not exist.",
        "params": {
          "tokenId": "uint256 ID of the token to query the approval of"
        },
        "return": "address currently approved for the given token ID"
      },
      "isApprovedForAll(address,address)": {
        "details": "Tells whether an operator is approved by a given owner",
        "params": {
          "operator": "operator address which you want to query the approval of",
          "owner": "owner address which you want to query the approval of"
        },
        "return": "bool whether the given operator is approved by the given owner"
      },
      "name()": {
        "details": "Gets the token name",
        "return": "string representing the token name"
      },
      "ownerOf(uint256)": {
        "details": "Gets the owner of the specified token ID",
        "params": {
          "tokenId": "uint256 ID of the token to query the owner of"
        },
        "return": "address currently marked as the owner of the given token ID"
      },
      "safeTransferFrom(address,address,uint256)": {
        "details": "Safely transfers the ownership of a given token ID to another address If the target address is a contract, it must implement `onERC721Received`, which is called upon a safe transfer, and return the magic value `bytes4(keccak256(\"onERC721Received(address,address,uint256,bytes)\"))`; otherwise, the transfer is reverted. Requires the msg.sender to be the owner, approved, or operator",
        "params": {
          "from": "current owner of the token",
          "to": "address to receive the ownership of the given token ID",
          "tokenId": "uint256 ID of the token to be transferred"
        }
      },
      "safeTransferFrom(address,address,uint256,bytes)": {
        "details": "Safely transfers the ownership of a given token ID to another address If the target address is a contract, it must implement `onERC721Received`, which is called upon a safe transfer, and return the magic value `bytes4(keccak256(\"onERC721Received(address,address,uint256,bytes)\"))`; otherwise, the transfer is reverted. Requires the msg.sender to be the owner, approved, or operator",
        "params": {
          "_data": "bytes data to send along with a safe transfer check",
          "from": "current owner of the token",
          "to": "address to receive the ownership of the given token ID",
          "tokenId": "uint256 ID of the token to be transferred"
        }
      },
      "setApprovalForAll(address,bool)": {
        "details": "Sets or unsets the approval of a given operator An operator is allowed to transfer all tokens of the sender on their behalf",
        "params": {
          "approved": "representing the status of the approval to be set",
          "to": "operator address to set the approval"
        }
      },
      "supportsInterface(bytes4)": {
        "details": "implement supportsInterface(bytes4) using a lookup table"
      },
      "symbol()": {
        "details": "Gets the token symbol",
        "return": "string representing the token symbol"
      },
      "tokenByIndex(uint256)": {
        "details": "Gets the token ID at a given index of all the tokens in this contract Reverts if the index is greater or equal to the total number of tokens",
        "params": {
          "index": "uint256 representing the index to be accessed of the tokens list"
        },
        "return": "uint256 token ID at the given index of the tokens list"
      },
      "tokenOfOwnerByIndex(address,uint256)": {
        "details": "Gets the token ID at a given index of the tokens list of the requested owner",
        "params": {
          "index": "uint256 representing the index to be accessed of the requested tokens list",
          "owner": "address owning the tokens list to be accessed"
        },
        "return": "uint256 token ID at the given index of the tokens list owned by the requested address"
      },
      "tokenURI(uint256)": {
        "details": "Returns an URI for a given token ID Throws if the token ID does not exist. May return an empty string.",
        "params": {
          "tokenId": "uint256 ID of the token to query"
        }
      },
      "totalSupply()": {
        "details": "Gets the total amount of tokens stored by the contract",
        "return": "uint256 representing the total amount of tokens"
      },
      "transferFrom(address,address,uint256)": {
        "details": "Transfers the ownership of a given token ID to another address Usage of this method is discouraged, use `safeTransferFrom` whenever possible Requires the msg.sender to be the owner, approved, or operator",
        "params": {
          "from": "current owner of the token",
          "to": "address to receive the ownership of the given token ID",
          "tokenId": "uint256 ID of the token to be transferred"
        }
      }
    }
  },
  "userdoc": {
    "methods": {}
  }
}