{
  "contractName": "Snappframes",
  "abi": [
    {
      "constant": true,
      "inputs": [
        {
          "name": "interfaceId",
          "type": "bytes4"
        }
      ],
      "name": "supportsInterface",
      "outputs": [
        {
          "name": "",
          "type": "bool"
        }
      ],
      "payable": false,
      "stateMutability": "view",
      "type": "function",
      "signature": "0x01ffc9a7"
    },
    {
      "constant": true,
      "inputs": [],
      "name": "name",
      "outputs": [
        {
          "name": "",
          "type": "string"
        }
      ],
      "payable": false,
      "stateMutability": "view",
      "type": "function",
      "signature": "0x06fdde03"
    },
    {
      "constant": true,
      "inputs": [
        {
          "name": "tokenId",
          "type": "uint256"
        }
      ],
      "name": "getApproved",
      "outputs": [
        {
          "name": "",
          "type": "address"
        }
      ],
      "payable": false,
      "stateMutability": "view",
      "type": "function",
      "signature": "0x081812fc"
    },
    {
      "constant": false,
      "inputs": [
        {
          "name": "to",
          "type": "address"
        },
        {
          "name": "tokenId",
          "type": "uint256"
        }
      ],
      "name": "approve",
      "outputs": [],
      "payable": false,
      "stateMutability": "nonpayable",
      "type": "function",
      "signature": "0x095ea7b3"
    },
    {
      "constant": true,
      "inputs": [],
      "name": "totalSupply",
      "outputs": [
        {
          "name": "",
          "type": "uint256"
        }
      ],
      "payable": false,
      "stateMutability": "view",
      "type": "function",
      "signature": "0x18160ddd"
    },
    {
      "constant": false,
      "inputs": [
        {
          "name": "from",
          "type": "address"
        },
        {
          "name": "to",
          "type": "address"
        },
        {
          "name": "tokenId",
          "type": "uint256"
        }
      ],
      "name": "transferFrom",
      "outputs": [],
      "payable": false,
      "stateMutability": "nonpayable",
      "type": "function",
      "signature": "0x23b872dd"
    },
    {
      "constant": true,
      "inputs": [
        {
          "name": "owner",
          "type": "address"
        },
        {
          "name": "index",
          "type": "uint256"
        }
      ],
      "name": "tokenOfOwnerByIndex",
      "outputs": [
        {
          "name": "",
          "type": "uint256"
        }
      ],
      "payable": false,
      "stateMutability": "view",
      "type": "function",
      "signature": "0x2f745c59"
    },
    {
      "constant": false,
      "inputs": [
        {
          "name": "from",
          "type": "address"
        },
        {
          "name": "to",
          "type": "address"
        },
        {
          "name": "tokenId",
          "type": "uint256"
        }
      ],
      "name": "safeTransferFrom",
      "outputs": [],
      "payable": false,
      "stateMutability": "nonpayable",
      "type": "function",
      "signature": "0x42842e0e"
    },
    {
      "constant": true,
      "inputs": [
        {
          "name": "index",
          "type": "uint256"
        }
      ],
      "name": "tokenByIndex",
      "outputs": [
        {
          "name": "",
          "type": "uint256"
        }
      ],
      "payable": false,
      "stateMutability": "view",
      "type": "function",
      "signature": "0x4f6ccce7"
    },
    {
      "constant": true,
      "inputs": [
        {
          "name": "tokenId",
          "type": "uint256"
        }
      ],
      "name": "ownerOf",
      "outputs": [
        {
          "name": "",
          "type": "address"
        }
      ],
      "payable": false,
      "stateMutability": "view",
      "type": "function",
      "signature": "0x6352211e"
    },
    {
      "constant": true,
      "inputs": [
        {
          "name": "owner",
          "type": "address"
        }
      ],
      "name": "balanceOf",
      "outputs": [
        {
          "name": "",
          "type": "uint256"
        }
      ],
      "payable": false,
      "stateMutability": "view",
      "type": "function",
      "signature": "0x70a08231"
    },
    {
      "constant": true,
      "inputs": [],
      "name": "symbol",
      "outputs": [
        {
          "name": "",
          "type": "string"
        }
      ],
      "payable": false,
      "stateMutability": "view",
      "type": "function",
      "signature": "0x95d89b41"
    },
    {
      "constant": false,
      "inputs": [
        {
          "name": "to",
          "type": "address"
        },
        {
          "name": "approved",
          "type": "bool"
        }
      ],
      "name": "setApprovalForAll",
      "outputs": [],
      "payable": false,
      "stateMutability": "nonpayable",
      "type": "function",
      "signature": "0xa22cb465"
    },
    {
      "constant": false,
      "inputs": [
        {
          "name": "from",
          "type": "address"
        },
        {
          "name": "to",
          "type": "address"
        },
        {
          "name": "tokenId",
          "type": "uint256"
        },
        {
          "name": "_data",
          "type": "bytes"
        }
      ],
      "name": "safeTransferFrom",
      "outputs": [],
      "payable": false,
      "stateMutability": "nonpayable",
      "type": "function",
      "signature": "0xb88d4fde"
    },
    {
      "constant": true,
      "inputs": [
        {
          "name": "tokenId",
          "type": "uint256"
        }
      ],
      "name": "tokenURI",
      "outputs": [
        {
          "name": "",
          "type": "string"
        }
      ],
      "payable": false,
      "stateMutability": "view",
      "type": "function",
      "signature": "0xc87b56dd"
    },
    {
      "constant": true,
      "inputs": [
        {
          "name": "",
          "type": "uint256"
        },
        {
          "name": "",
          "type": "uint256"
        }
      ],
      "name": "MiMCpe7",
      "outputs": [
        {
          "name": "",
          "type": "uint256"
        }
      ],
      "payable": false,
      "stateMutability": "pure",
      "type": "function",
      "signature": "0xd15ca109"
    },
    {
      "constant": true,
      "inputs": [
        {
          "name": "",
          "type": "uint256[2]"
        },
        {
          "name": "",
          "type": "uint256"
        },
        {
          "name": "",
          "type": "uint256[2]"
        },
        {
          "name": "",
          "type": "uint256"
        }
      ],
      "name": "Verify",
      "outputs": [
        {
          "name": "",
          "type": "bool"
        }
      ],
      "payable": false,
      "stateMutability": "view",
      "type": "function",
      "signature": "0xda047321"
    },
    {
      "constant": true,
      "inputs": [
        {
          "name": "",
          "type": "address"
        },
        {
          "name": "",
          "type": "uint256"
        }
      ],
      "name": "ecdsaToEddsa",
      "outputs": [
        {
          "name": "",
          "type": "uint256"
        }
      ],
      "payable": false,
      "stateMutability": "view",
      "type": "function",
      "signature": "0xdc837d49"
    },
    {
      "constant": true,
      "inputs": [
        {
          "name": "owner",
          "type": "address"
        },
        {
          "name": "operator",
          "type": "address"
        }
      ],
      "name": "isApprovedForAll",
      "outputs": [
        {
          "name": "",
          "type": "bool"
        }
      ],
      "payable": false,
      "stateMutability": "view",
      "type": "function",
      "signature": "0xe985e9c5"
    },
    {
      "constant": true,
      "inputs": [],
      "name": "TREE_DEPTH",
      "outputs": [
        {
          "name": "",
          "type": "uint256"
        }
      ],
      "payable": false,
      "stateMutability": "view",
      "type": "function",
      "signature": "0xf1650536"
    },
    {
      "inputs": [
        {
          "name": "_mimcAddr",
          "type": "address"
        },
        {
          "name": "_eddsaAddr",
          "type": "address"
        }
      ],
      "payable": false,
      "stateMutability": "nonpayable",
      "type": "constructor",
      "signature": "constructor"
    },
    {
      "anonymous": false,
      "inputs": [
        {
          "indexed": false,
          "name": "_depositor",
          "type": "address"
        },
        {
          "indexed": false,
          "name": "_index",
          "type": "uint256"
        }
      ],
      "name": "Deposit",
      "type": "event",
      "signature": "0xe1fffcc4923d04b559f4d29a8bfc6cda04eb5b0d3c460751c2402c5c5cc9109c"
    },
    {
      "anonymous": false,
      "inputs": [
        {
          "indexed": false,
          "name": "_firstDepositor",
          "type": "address"
        },
        {
          "indexed": false,
          "name": "_lastDepositor",
          "type": "address"
        }
      ],
      "name": "DepositsProcessed",
      "type": "event",
      "signature": "0x1fb1047f612b2371ce2fabe1282c8126d06ec9bb7171c1db95ac91d3bab13fc7"
    },
    {
      "anonymous": false,
      "inputs": [
        {
          "indexed": true,
          "name": "from",
          "type": "address"
        },
        {
          "indexed": true,
          "name": "to",
          "type": "address"
        },
        {
          "indexed": true,
          "name": "tokenId",
          "type": "uint256"
        }
      ],
      "name": "Transfer",
      "type": "event",
      "signature": "0xddf252ad1be2c89b69c2b068fc378daa952ba7f163c4a11628f55a4df523b3ef"
    },
    {
      "anonymous": false,
      "inputs": [
        {
          "indexed": true,
          "name": "owner",
          "type": "address"
        },
        {
          "indexed": true,
          "name": "approved",
          "type": "address"
        },
        {
          "indexed": true,
          "name": "tokenId",
          "type": "uint256"
        }
      ],
      "name": "Approval",
      "type": "event",
      "signature": "0x8c5be1e5ebec7d5bd14f71427d1e84f3dd0314c0f7b2291e5b200ac8c7c3b925"
    },
    {
      "anonymous": false,
      "inputs": [
        {
          "indexed": true,
          "name": "owner",
          "type": "address"
        },
        {
          "indexed": true,
          "name": "operator",
          "type": "address"
        },
        {
          "indexed": false,
          "name": "approved",
          "type": "bool"
        }
      ],
      "name": "ApprovalForAll",
      "type": "event",
      "signature": "0x17307eab39ab6107e8899845ad3d59bd9653f200f220920489ca2b5937696c31"
    },
    {
      "constant": false,
      "inputs": [],
      "name": "update",
      "outputs": [],
      "payable": false,
      "stateMutability": "nonpayable",
      "type": "function",
      "signature": "0xa2e62045"
    },
    {
      "constant": false,
      "inputs": [
        {
          "name": "_index",
          "type": "uint256"
        },
        {
          "name": "_eddsaPubKey",
          "type": "uint256[2]"
        }
      ],
      "name": "deposit",
      "outputs": [],
      "payable": true,
      "stateMutability": "payable",
      "type": "function",
      "signature": "0x71d8ded9"
    },
    {
      "constant": false,
      "inputs": [],
      "name": "processDepositQueue",
      "outputs": [],
      "payable": false,
      "stateMutability": "nonpayable",
      "type": "function",
      "signature": "0xae186911"
    },
    {
      "constant": false,
      "inputs": [
        {
          "name": "asset",
          "type": "uint256"
        },
        {
          "name": "pubkey",
          "type": "uint256[2]"
        },
        {
          "name": "proof",
          "type": "uint256[7]"
        },
        {
          "name": "proof_pos",
          "type": "uint256[7]"
        },
        {
          "name": "root",
          "type": "uint256"
        }
      ],
      "name": "withdraw",
      "outputs": [],
      "payable": false,
      "stateMutability": "nonpayable",
      "type": "function",
      "signature": "0xf4d76063"
    },
    {
      "constant": true,
      "inputs": [
        {
          "name": "_leafHash",
          "type": "uint256"
        },
        {
          "name": "_merkleProof",
          "type": "uint256[7]"
        },
        {
          "name": "_merklePos",
          "type": "uint256[7]"
        },
        {
          "name": "_root",
          "type": "uint256"
        }
      ],
      "name": "verifyMerkleProof",
      "outputs": [
        {
          "name": "",
          "type": "bool"
        }
      ],
      "payable": false,
      "stateMutability": "view",
      "type": "function",
      "signature": "0x16b57e87"
    }
  ],
  "bytecode": "0x60806040526006600c5533600f60006101000a81548173ffffffffffffffffffffffffffffffffffffffff021916908373ffffffffffffffffffffffffffffffffffffffff1602179055506103e86010556103e8601155600460125560006013553480156200006d57600080fd5b5060405160408062002f99833981018060405260408110156200008f57600080fd5b8101908080519060200190929190805190602001909291905050506040805190810160405280600b81526020017f536e6170706672616d65730000000000000000000000000000000000000000008152506040805190810160405280600381526020017f534e5000000000000000000000000000000000000000000000000000000000008152508181620001556301ffc9a77c010000000000000000000000000000000000000000000000000000000002620002cc640100000000026401000000009004565b620001926380ac58cd7c010000000000000000000000000000000000000000000000000000000002620002cc640100000000026401000000009004565b620001cf63780e9d637c010000000000000000000000000000000000000000000000000000000002620002cc640100000000026401000000009004565b8160099080519060200190620001e79291906200038a565b5080600a9080519060200190620002009291906200038a565b506200023e635b5e139f7c010000000000000000000000000000000000000000000000000000000002620002cc640100000000026401000000009004565b5050505081600d60006101000a81548173ffffffffffffffffffffffffffffffffffffffff021916908373ffffffffffffffffffffffffffffffffffffffff16021790555080600e60006101000a81548173ffffffffffffffffffffffffffffffffffffffff021916908373ffffffffffffffffffffffffffffffffffffffff160217905550505062000439565b63ffffffff7c010000000000000000000000000000000000000000000000000000000002817bffffffffffffffffffffffffffffffffffffffffffffffffffffffff1916141515156200031e57600080fd5b6001600080837bffffffffffffffffffffffffffffffffffffffffffffffffffffffff19167bffffffffffffffffffffffffffffffffffffffffffffffffffffffff1916815260200190815260200160002060006101000a81548160ff02191690831515021790555050565b828054600181600116156101000203166002900490600052602060002090601f016020900481019282601f10620003cd57805160ff1916838001178555620003fe565b82800160010185558215620003fe579182015b82811115620003fd578251825591602001919060010190620003e0565b5b5090506200040d919062000411565b5090565b6200043691905b808211156200043257600081600090555060010162000418565b5090565b90565b612b5080620004496000396000f3fe608060405260043610610183576000357c01000000000000000000000000000000000000000000000000000000009004806371d8ded9116100ee578063c87b56dd116100a7578063dc837d4911610081578063dc837d4914610b87578063e985e9c514610bf6578063f165053614610c7f578063f4d7606314610caa57610183565b8063c87b56dd1461099b578063d15ca10914610a4f578063da04732114610aa857610183565b806371d8ded9146106ff57806395d89b411461076e578063a22cb465146107fe578063a2e620451461085b578063ae18691114610872578063b88d4fde1461088957610183565b806323b872dd1161014057806323b872dd1461046b5780632f745c59146104e657806342842e0e146105555780634f6ccce7146105d05780636352211e1461061f57806370a082311461069a57610183565b806301ffc9a71461018857806306fdde03146101fa578063081812fc1461028a578063095ea7b31461030557806316b57e871461036057806318160ddd14610440575b600080fd5b34801561019457600080fd5b506101e0600480360360208110156101ab57600080fd5b8101908080357bffffffffffffffffffffffffffffffffffffffffffffffffffffffff19169060200190929190505050610db3565b604051808215151515815260200191505060405180910390f35b34801561020657600080fd5b5061020f610e1a565b6040518080602001828103825283818151815260200191508051906020019080838360005b8381101561024f578082015181840152602081019050610234565b50505050905090810190601f16801561027c5780820380516001836020036101000a031916815260200191505b509250505060405180910390f35b34801561029657600080fd5b506102c3600480360360208110156102ad57600080fd5b8101908080359060200190929190505050610ebc565b604051808273ffffffffffffffffffffffffffffffffffffffff1673ffffffffffffffffffffffffffffffffffffffff16815260200191505060405180910390f35b34801561031157600080fd5b5061035e6004803603604081101561032857600080fd5b81019080803573ffffffffffffffffffffffffffffffffffffffff16906020019092919080359060200190929190505050610f0d565b005b34801561036c57600080fd5b50610426600480360361020081101561038457600080fd5b81019080803590602001909291908060e001906007806020026040519081016040528092919082600760200280828437600081840152601f19601f82011690508083019250505050505091929192908060e001906007806020026040519081016040528092919082600760200280828437600081840152601f19601f820116905080830192505050505050919291929080359060200190929190505050611052565b604051808215151515815260200191505060405180910390f35b34801561044c57600080fd5b50610455611393565b6040518082815260200191505060405180910390f35b34801561047757600080fd5b506104e46004803603606081101561048e57600080fd5b81019080803573ffffffffffffffffffffffffffffffffffffffff169060200190929190803573ffffffffffffffffffffffffffffffffffffffff169060200190929190803590602001909291905050506113a0565b005b3480156104f257600080fd5b5061053f6004803603604081101561050957600080fd5b81019080803573ffffffffffffffffffffffffffffffffffffffff169060200190929190803590602001909291905050506113c5565b6040518082815260200191505060405180910390f35b34801561056157600080fd5b506105ce6004803603606081101561057857600080fd5b81019080803573ffffffffffffffffffffffffffffffffffffffff169060200190929190803573ffffffffffffffffffffffffffffffffffffffff1690602001909291908035906020019092919050505061143c565b005b3480156105dc57600080fd5b50610609600480360360208110156105f357600080fd5b810190808035906020019092919050505061145d565b6040518082815260200191505060405180910390f35b34801561062b57600080fd5b506106586004803603602081101561064257600080fd5b8101908080359060200190929190505050611495565b604051808273ffffffffffffffffffffffffffffffffffffffff1673ffffffffffffffffffffffffffffffffffffffff16815260200191505060405180910390f35b3480156106a657600080fd5b506106e9600480360360208110156106bd57600080fd5b81019080803573ffffffffffffffffffffffffffffffffffffffff169060200190929190505050611513565b6040518082815260200191505060405180910390f35b61076c6004803603606081101561071557600080fd5b810190808035906020019092919080604001906002806020026040519081016040528092919082600260200280828437600081840152601f19601f820116905080830192505050505050919291929050505061159e565b005b34801561077a57600080fd5b5061078361172a565b6040518080602001828103825283818151815260200191508051906020019080838360005b838110156107c35780820151818401526020810190506107a8565b50505050905090810190601f1680156107f05780820380516001836020036101000a031916815260200191505b509250505060405180910390f35b34801561080a57600080fd5b506108596004803603604081101561082157600080fd5b81019080803573ffffffffffffffffffffffffffffffffffffffff1690602001909291908035151590602001909291905050506117cc565b005b34801561086757600080fd5b50610870611908565b005b34801561087e57600080fd5b50610887611966565b005b34801561089557600080fd5b50610999600480360360808110156108ac57600080fd5b81019080803573ffffffffffffffffffffffffffffffffffffffff169060200190929190803573ffffffffffffffffffffffffffffffffffffffff169060200190929190803590602001909291908035906020019064010000000081111561091357600080fd5b82018360208201111561092557600080fd5b8035906020019184600183028401116401000000008311171561094757600080fd5b91908080601f016020809104026020016040519081016040528093929190818152602001838380828437600081840152601f19601f820116905080830192505050505050509192919290505050611ac6565b005b3480156109a757600080fd5b506109d4600480360360208110156109be57600080fd5b8101908080359060200190929190505050611aee565b6040518080602001828103825283818151815260200191508051906020019080838360005b83811015610a145780820151818401526020810190506109f9565b50505050905090810190601f168015610a415780820380516001836020036101000a031916815260200191505b509250505060405180910390f35b348015610a5b57600080fd5b50610a9260048036036040811015610a7257600080fd5b810190808035906020019092919080359060200190929190505050611bb7565b6040518082815260200191505060405180910390f35b348015610ab457600080fd5b50610b6d600480360360c0811015610acb57600080fd5b8101908080604001906002806020026040519081016040528092919082600260200280828437600081840152601f19601f82011690508083019250505050505091929192908035906020019092919080604001906002806020026040519081016040528092919082600260200280828437600081840152601f19601f820116905080830192505050505050919291929080359060200190929190505050611bbf565b604051808215151515815260200191505060405180910390f35b348015610b9357600080fd5b50610be060048036036040811015610baa57600080fd5b81019080803573ffffffffffffffffffffffffffffffffffffffff16906020019092919080359060200190929190505050611bc9565b6040518082815260200191505060405180910390f35b348015610c0257600080fd5b50610c6560048036036040811015610c1957600080fd5b81019080803573ffffffffffffffffffffffffffffffffffffffff169060200190929190803573ffffffffffffffffffffffffffffffffffffffff169060200190929190505050611bf0565b604051808215151515815260200191505060405180910390f35b348015610c8b57600080fd5b50610c94611c84565b6040518082815260200191505060405180910390f35b348015610cb657600080fd5b50610db16004803603610240811015610cce57600080fd5b810190808035906020019092919080604001906002806020026040519081016040528092919082600260200280828437600081840152601f19601f82011690508083019250505050505091929192908060e001906007806020026040519081016040528092919082600760200280828437600081840152601f19601f82011690508083019250505050505091929192908060e001906007806020026040519081016040528092919082600760200280828437600081840152601f19601f820116905080830192505050505050919291929080359060200190929190505050611c8a565b005b6000806000837bffffffffffffffffffffffffffffffffffffffffffffffffffffffff19167bffffffffffffffffffffffffffffffffffffffffffffffffffffffff1916815260200190815260200160002060009054906101000a900460ff169050919050565b606060098054600181600116156101000203166002900480601f016020809104026020016040519081016040528092919081815260200182805460018160011615610100020316600290048015610eb25780601f10610e8757610100808354040283529160200191610eb2565b820191906000526020600020905b815481529060010190602001808311610e9557829003601f168201915b5050505050905090565b6000610ec782611fcd565b1515610ed257600080fd5b6002600083815260200190815260200160002060009054906101000a900473ffffffffffffffffffffffffffffffffffffffff169050919050565b6000610f1882611495565b90508073ffffffffffffffffffffffffffffffffffffffff168373ffffffffffffffffffffffffffffffffffffffff1614151515610f5557600080fd5b8073ffffffffffffffffffffffffffffffffffffffff163373ffffffffffffffffffffffffffffffffffffffff161480610f955750610f948133611bf0565b5b1515610fa057600080fd5b826002600084815260200190815260200160002060006101000a81548173ffffffffffffffffffffffffffffffffffffffff021916908373ffffffffffffffffffffffffffffffffffffffff160217905550818373ffffffffffffffffffffffffffffffffffffffff168273ffffffffffffffffffffffffffffffffffffffff167f8c5be1e5ebec7d5bd14f71427d1e84f3dd0314c0f7b2291e5b200ac8c7c3b92560405160405180910390a4505050565b600061105c612a4e565b600085600060078110151561106d57fe5b6020020151870385600060078110151561108357fe5b6020020151028703905060008787600060078110151561109f57fe5b6020020151038660006007811015156110b457fe5b6020020151028760006007811015156110c957fe5b6020020151039050600d60009054906101000a900473ffffffffffffffffffffffffffffffffffffffff1673ffffffffffffffffffffffffffffffffffffffff1663d15ca10983836040518363ffffffff167c0100000000000000000000000000000000000000000000000000000000028152600401808381526020018281526020019250505060206040518083038186803b15801561116857600080fd5b505afa15801561117c573d6000803e3d6000fd5b505050506040513d602081101561119257600080fd5b81019080805190602001909291905050508360006007811015156111b257fe5b6020020181815250506000600190505b600381101561136f578760006007811015156111da57fe5b602002015184600183036007811015156111f057fe5b602002015103878260078110151561120457fe5b602002015102846001830360078110151561121b57fe5b6020020151039250836001820360078110151561123457fe5b602002015188600060078110151561124857fe5b602002015103878260078110151561125c57fe5b60200201510288600060078110151561127157fe5b6020020151039150600d60009054906101000a900473ffffffffffffffffffffffffffffffffffffffff1673ffffffffffffffffffffffffffffffffffffffff1663d15ca10984846040518363ffffffff167c0100000000000000000000000000000000000000000000000000000000028152600401808381526020018281526020019250505060206040518083038186803b15801561131057600080fd5b505afa158015611324573d6000803e3d6000fd5b505050506040513d602081101561133a57600080fd5b8101908080519060200190929190505050848260078110151561135957fe5b60200201818152505080806001019150506111c2565b508483600260078110151561138057fe5b6020020151149350505050949350505050565b6000600780549050905090565b6113aa338261203f565b15156113b557600080fd5b6113c08383836120d4565b505050565b60006113d083611513565b821015156113dd57600080fd5b600560008473ffffffffffffffffffffffffffffffffffffffff1673ffffffffffffffffffffffffffffffffffffffff1681526020019081526020016000208281548110151561142957fe5b9060005260206000200154905092915050565b6114588383836020604051908101604052806000815250611ac6565b505050565b6000611467611393565b8210151561147457600080fd5b60078281548110151561148357fe5b90600052602060002001549050919050565b6000806001600084815260200190815260200160002060009054906101000a900473ffffffffffffffffffffffffffffffffffffffff169050600073ffffffffffffffffffffffffffffffffffffffff168173ffffffffffffffffffffffffffffffffffffffff161415151561150a57600080fd5b80915050919050565b60008073ffffffffffffffffffffffffffffffffffffffff168273ffffffffffffffffffffffffffffffffffffffff161415151561155057600080fd5b611597600360008473ffffffffffffffffffffffffffffffffffffffff1673ffffffffffffffffffffffffffffffffffffffff1681526020019081526020016000206120f8565b9050919050565b601254601354111515156115b157600080fd5b60115434101515156115c257600080fd5b6013600081548092919060010191905055503360146001601354036004811015156115e957fe5b0160006101000a81548173ffffffffffffffffffffffffffffffffffffffff021916908373ffffffffffffffffffffffffffffffffffffffff16021790555081601860003373ffffffffffffffffffffffffffffffffffffffff1673ffffffffffffffffffffffffffffffffffffffff1681526020019081526020016000208190555080601960003373ffffffffffffffffffffffffffffffffffffffff1673ffffffffffffffffffffffffffffffffffffffff1681526020019081526020016000209060026116ba929190612a71565b507fe1fffcc4923d04b559f4d29a8bfc6cda04eb5b0d3c460751c2402c5c5cc9109c3383604051808373ffffffffffffffffffffffffffffffffffffffff1673ffffffffffffffffffffffffffffffffffffffff1681526020018281526020019250505060405180910390a15050565b6060600a8054600181600116156101000203166002900480601f0160208091040260200160405190810160405280929190818152602001828054600181600116156101000203166002900480156117c25780601f10611797576101008083540402835291602001916117c2565b820191906000526020600020905b8154815290600101906020018083116117a557829003601f168201915b5050505050905090565b3373ffffffffffffffffffffffffffffffffffffffff168273ffffffffffffffffffffffffffffffffffffffff161415151561180757600080fd5b80600460003373ffffffffffffffffffffffffffffffffffffffff1673ffffffffffffffffffffffffffffffffffffffff16815260200190815260200160002060008473ffffffffffffffffffffffffffffffffffffffff1673ffffffffffffffffffffffffffffffffffffffff16815260200190815260200160002060006101000a81548160ff0219169083151502179055508173ffffffffffffffffffffffffffffffffffffffff163373ffffffffffffffffffffffffffffffffffffffff167f17307eab39ab6107e8899845ad3d59bd9653f200f220920489ca2b5937696c3183604051808215151515815260200191505060405180910390a35050565b600f60009054906101000a900473ffffffffffffffffffffffffffffffffffffffff1673ffffffffffffffffffffffffffffffffffffffff163373ffffffffffffffffffffffffffffffffffffffff1614151561196457600080fd5b565b600f60009054906101000a900473ffffffffffffffffffffffffffffffffffffffff1673ffffffffffffffffffffffffffffffffffffffff163373ffffffffffffffffffffffffffffffffffffffff161415156119c257600080fd5b7f1fb1047f612b2371ce2fabe1282c8126d06ec9bb7171c1db95ac91d3bab13fc7601460006004811015156119f357fe5b0160009054906101000a900473ffffffffffffffffffffffffffffffffffffffff166014601254600481101515611a2657fe5b0160009054906101000a900473ffffffffffffffffffffffffffffffffffffffff16604051808373ffffffffffffffffffffffffffffffffffffffff1673ffffffffffffffffffffffffffffffffffffffff1681526020018273ffffffffffffffffffffffffffffffffffffffff1673ffffffffffffffffffffffffffffffffffffffff1681526020019250505060405180910390a16000601381905550565b611ad18484846113a0565b611add84848484612106565b1515611ae857600080fd5b50505050565b6060611af982611fcd565b1515611b0457600080fd5b600b60008381526020019081526020016000208054600181600116156101000203166002900480601f016020809104026020016040519081016040528092919081815260200182805460018160011615610100020316600290048015611bab5780601f10611b8057610100808354040283529160200191611bab565b820191906000526020600020905b815481529060010190602001808311611b8e57829003601f168201915b50505050509050919050565b600092915050565b6000949350505050565b601960205281600052604060002081600281101515611be457fe5b01600091509150505481565b6000600460008473ffffffffffffffffffffffffffffffffffffffff1673ffffffffffffffffffffffffffffffffffffffff16815260200190815260200160002060008373ffffffffffffffffffffffffffffffffffffffff1673ffffffffffffffffffffffffffffffffffffffff16815260200190815260200160002060009054906101000a900460ff16905092915050565b600c5481565b611c92612ab1565b601960003373ffffffffffffffffffffffffffffffffffffffff1673ffffffffffffffffffffffffffffffffffffffff168152602001908152602001600020600280602002604051908101604052809291908260028015611d08576020028201915b815481526020019060010190808311611cf4575b50505050509050846000600281101515611d1e57fe5b6020020151816000600281101515611d3257fe5b6020020151148015611d695750846001600281101515611d4e57fe5b6020020151816001600281101515611d6257fe5b6020020151145b1515611d7457600080fd5b6000600d60009054906101000a900473ffffffffffffffffffffffffffffffffffffffff1673ffffffffffffffffffffffffffffffffffffffff1663d15ca109600d60009054906101000a900473ffffffffffffffffffffffffffffffffffffffff1673ffffffffffffffffffffffffffffffffffffffff1663d15ca109896000600281101515611e0157fe5b60200201518a6001600281101515611e1557fe5b60200201516040518363ffffffff167c0100000000000000000000000000000000000000000000000000000000028152600401808381526020018281526020019250505060206040518083038186803b158015611e7157600080fd5b505afa158015611e85573d6000803e3d6000fd5b505050506040513d6020811015611e9b57600080fd5b8101908080519060200190929190505050896040518363ffffffff167c0100000000000000000000000000000000000000000000000000000000028152600401808381526020018281526020019250505060206040518083038186803b158015611f0457600080fd5b505afa158015611f18573d6000803e3d6000fd5b505050506040513d6020811015611f2e57600080fd5b81019080805190602001909291905050509050611f4d81868686611052565b1515611f5857600080fd5b6000866000600281101515611f6957fe5b6020020151876001600281101515611f7d57fe5b60200201516040516020018083815260200182815260200192505050604051602081830303815290604052805190602001209050611fc333611fbe83612329565b612337565b5050505050505050565b6000806001600084815260200190815260200160002060009054906101000a900473ffffffffffffffffffffffffffffffffffffffff169050600073ffffffffffffffffffffffffffffffffffffffff168173ffffffffffffffffffffffffffffffffffffffff161415915050919050565b60008061204b83611495565b90508073ffffffffffffffffffffffffffffffffffffffff168473ffffffffffffffffffffffffffffffffffffffff1614806120ba57508373ffffffffffffffffffffffffffffffffffffffff166120a284610ebc565b73ffffffffffffffffffffffffffffffffffffffff16145b806120cb57506120ca8185611bf0565b5b91505092915050565b6120df838383612358565b6120e9838261251f565b6120f382826126c3565b505050565b600081600001549050919050565b60006121278473ffffffffffffffffffffffffffffffffffffffff1661278a565b15156121365760019050612321565b60008473ffffffffffffffffffffffffffffffffffffffff1663150b7a02338887876040518563ffffffff167c0100000000000000000000000000000000000000000000000000000000028152600401808573ffffffffffffffffffffffffffffffffffffffff1673ffffffffffffffffffffffffffffffffffffffff1681526020018473ffffffffffffffffffffffffffffffffffffffff1673ffffffffffffffffffffffffffffffffffffffff16815260200183815260200180602001828103825283818151815260200191508051906020019080838360005b8381101561222d578082015181840152602081019050612212565b50505050905090810190601f16801561225a5780820380516001836020036101000a031916815260200191505b5095505050505050602060405180830381600087803b15801561227c57600080fd5b505af1158015612290573d6000803e3d6000fd5b505050506040513d60208110156122a657600080fd5b8101908080519060200190929190505050905063150b7a027c0100000000000000000000000000000000000000000000000000000000027bffffffffffffffffffffffffffffffffffffffffffffffffffffffff1916817bffffffffffffffffffffffffffffffffffffffffffffffffffffffff1916149150505b949350505050565b600081600190049050919050565b612341828261279d565b61234b82826126c3565b612354816128e7565b5050565b8273ffffffffffffffffffffffffffffffffffffffff1661237882611495565b73ffffffffffffffffffffffffffffffffffffffff1614151561239a57600080fd5b600073ffffffffffffffffffffffffffffffffffffffff168273ffffffffffffffffffffffffffffffffffffffff16141515156123d657600080fd5b6123df81612933565b612426600360008573ffffffffffffffffffffffffffffffffffffffff1673ffffffffffffffffffffffffffffffffffffffff1681526020019081526020016000206129f3565b61246d600360008473ffffffffffffffffffffffffffffffffffffffff1673ffffffffffffffffffffffffffffffffffffffff168152602001908152602001600020612a16565b816001600083815260200190815260200160002060006101000a81548173ffffffffffffffffffffffffffffffffffffffff021916908373ffffffffffffffffffffffffffffffffffffffff160217905550808273ffffffffffffffffffffffffffffffffffffffff168473ffffffffffffffffffffffffffffffffffffffff167fddf252ad1be2c89b69c2b068fc378daa952ba7f163c4a11628f55a4df523b3ef60405160405180910390a4505050565b60006125776001600560008673ffffffffffffffffffffffffffffffffffffffff1673ffffffffffffffffffffffffffffffffffffffff16815260200190815260200160002080549050612a2c90919063ffffffff16565b9050600060066000848152602001908152602001600020549050818114151561266a576000600560008673ffffffffffffffffffffffffffffffffffffffff1673ffffffffffffffffffffffffffffffffffffffff168152602001908152602001600020838154811015156125e857fe5b9060005260206000200154905080600560008773ffffffffffffffffffffffffffffffffffffffff1673ffffffffffffffffffffffffffffffffffffffff1681526020019081526020016000208381548110151561264257fe5b9060005260206000200181905550816006600083815260200190815260200160002081905550505b600560008573ffffffffffffffffffffffffffffffffffffffff1673ffffffffffffffffffffffffffffffffffffffff1681526020019081526020016000208054809190600190036126bc9190612ad3565b5050505050565b600560008373ffffffffffffffffffffffffffffffffffffffff1673ffffffffffffffffffffffffffffffffffffffff168152602001908152602001600020805490506006600083815260200190815260200160002081905550600560008373ffffffffffffffffffffffffffffffffffffffff1673ffffffffffffffffffffffffffffffffffffffff1681526020019081526020016000208190806001815401808255809150509060018203906000526020600020016000909192909190915055505050565b600080823b905060008111915050919050565b600073ffffffffffffffffffffffffffffffffffffffff168273ffffffffffffffffffffffffffffffffffffffff16141515156127d957600080fd5b6127e281611fcd565b1515156127ee57600080fd5b816001600083815260200190815260200160002060006101000a81548173ffffffffffffffffffffffffffffffffffffffff021916908373ffffffffffffffffffffffffffffffffffffffff160217905550612887600360008473ffffffffffffffffffffffffffffffffffffffff1673ffffffffffffffffffffffffffffffffffffffff168152602001908152602001600020612a16565b808273ffffffffffffffffffffffffffffffffffffffff16600073ffffffffffffffffffffffffffffffffffffffff167fddf252ad1be2c89b69c2b068fc378daa952ba7f163c4a11628f55a4df523b3ef60405160405180910390a45050565b6007805490506008600083815260200190815260200160002081905550600781908060018154018082558091505090600182039060005260206000200160009091929091909150555050565b600073ffffffffffffffffffffffffffffffffffffffff166002600083815260200190815260200160002060009054906101000a900473ffffffffffffffffffffffffffffffffffffffff1673ffffffffffffffffffffffffffffffffffffffff161415156129f05760006002600083815260200190815260200160002060006101000a81548173ffffffffffffffffffffffffffffffffffffffff021916908373ffffffffffffffffffffffffffffffffffffffff1602179055505b50565b612a0b60018260000154612a2c90919063ffffffff16565b816000018190555050565b6001816000016000828254019250508190555050565b6000828211151515612a3d57600080fd5b600082840390508091505092915050565b60e060405190810160405280600790602082028038833980820191505090505090565b8260028101928215612aa0579160200282015b82811115612a9f578251825591602001919060010190612a84565b5b509050612aad9190612aff565b5090565b6040805190810160405280600290602082028038833980820191505090505090565b815481835581811115612afa57818360005260206000209182019101612af99190612aff565b5b505050565b612b2191905b80821115612b1d576000816000905550600101612b05565b5090565b9056fea165627a7a723058204781b2851758b9614f0153cdbfafd8e7a584ea7096300876a673b3c9d9c441bb0029",
  "source": "pragma solidity >=0.5.0;\n\n// import \"./dependencies/EdDSA.sol\";\nimport \"./dependencies/JubJub.sol\";\nimport '../node_modules/openzeppelin-solidity/contracts/token/ERC721/ERC721Full.sol';\n// import \"./dependencies/SafeMath.sol\";\n\n// contract Verifier{\n\n//     function Verify() public {}\n\n// }\n\ncontract MiMC{\n\n    function MiMCpe7(uint,uint) public pure returns (uint) {}\n\n}\n\ncontract EdDSA{\n\n    function Verify( uint256[2] memory, uint256, uint256[2] memory, uint256 )\n        public view returns (bool) {}\n\n}\n\n\ncontract Snappframes is ERC721Full, EdDSA, MiMC {\n\n    using SafeMath for uint;\n    using SafeMath for uint256; \n\n    uint public TREE_DEPTH = 6;\n\n    // Verifier verifier;\n    MiMC mimc;\n    EdDSA eddsa;\n\n    address operator = msg.sender;\n    uint TOTAL_FRAMES = 1000;\n    uint PRICE_PER_FRAME = 1000;\n    uint DEPOSIT_QUEUE_MAX = 4;\n    uint depositQueueLength = 0;\n    address[4] depositQueueAddresses;\n    mapping(address => uint) depositQueue;\n    mapping(address => uint256[2]) public ecdsaToEddsa;\n\n    event Deposit(address _depositor, uint _index);\n    event DepositsProcessed(address _firstDepositor, address _lastDepositor);\n\n    modifier depositQueueNotFull(){\n        require(depositQueueLength <= DEPOSIT_QUEUE_MAX);\n        _;\n    }\n\n    modifier operatorOnly(){\n        require(msg.sender == operator);\n        _;\n    }\n\n    constructor(\n        // address _verifierAddr,\n        address _mimcAddr,\n        address _eddsaAddr\n    ) ERC721Full(\"Snappframes\", \"SNP\") public {\n        // Verifier verifier = Verifier(_verifierAddr);\n        mimc = MiMC(_mimcAddr);\n        eddsa = EdDSA(_eddsaAddr);\n    }\n\n    // performs state transition\n    function update() public operatorOnly{\n        // TODO: wait for Geoff's verifier circuit\n    }\n\n    // creates accounts for people who deposit Ether\n    // @dev _from and _to are index ranges for movie frames\n    function deposit(uint _index, uint256[2] memory _eddsaPubKey) \n    public payable depositQueueNotFull{\n\n        require(msg.value >= PRICE_PER_FRAME);\n\n        depositQueueLength++;\n        depositQueueAddresses[depositQueueLength - 1] = msg.sender;\n        depositQueue[msg.sender] = _index;\n\n        ecdsaToEddsa[msg.sender] = _eddsaPubKey;\n\n        emit Deposit(msg.sender, _index);\n\n    }\n\n    // operator updates merkle tree with deposits\n    function processDepositQueue() public operatorOnly{\n        emit DepositsProcessed(\n            depositQueueAddresses[0], \n            depositQueueAddresses[DEPOSIT_QUEUE_MAX]);\n        depositQueueLength = 0;\n    }\n\n\n    // allows withdraw of ERC721 token to Ethereum address\n    function withdraw(\n        uint256 asset, \n        uint256[2] memory pubkey, //EdDSA pubKey_x and pubKey_y\n        uint256[7] memory proof,\n        uint256[7] memory proof_pos, \n        uint256 root\n        // uint256 hashed_msg, //hash of msg.sender and leaf\n        // uint256[2] memory R, //EdDSA signature field\n        // uint256 s //EdDSA signature field\n    ) public {\n        uint256[2] memory eddsaPubKey = ecdsaToEddsa[msg.sender];\n        require(eddsaPubKey[0] == pubkey[0] && eddsaPubKey[1] == pubkey[1]);\n\n        // // verify EdDSA signature\n        // require(EdDSA.Verify(pubkey, hashed_msg, R, s));  \n\n        // verify hashed msg sends leaf to msg.sender\n        uint256 leaf = mimc.MiMCpe7(mimc.MiMCpe7(pubkey[0], pubkey[1]), asset);\n        require(verifyMerkleProof(leaf, proof, proof_pos, root));\n        // require(mimc.MiMCpe7(msg.sender, leaf) == hashed_msg);\n\n        // generate ERC721 token\n        bytes32 tokenId = keccak256(abi.encodePacked(pubkey[0],pubkey[1]));\n        _mint(msg.sender, bytes32ToUint256(tokenId));\n\n        // send token to depositor on Ethereum\n    }\n\n    function verifyMerkleProof(\n        uint256 _leafHash,\n        uint256[7] memory _merkleProof,\n        uint256[7] memory _merklePos,\n        uint256 _root\n    ) public view returns(bool){\n        uint256[7] memory root;\n        uint256 left = _leafHash - _merklePos[0]*(_leafHash - _merkleProof[0]);\n        uint256 right = _merkleProof[0] - _merklePos[0]*(_merkleProof[0] - _leafHash);\n        root[0] = mimc.MiMCpe7(left, right);\n        for (uint i = 1; i < 3; i++) {\n            left = root[i-1] - _merklePos[i]*(root[i-1] - _merkleProof[0]);\n            right = _merkleProof[0] - _merklePos[i]*(_merkleProof[0] - root[i-1]);              \n            root[i] = mimc.MiMCpe7(left, right);\n            }\n        return(root[2] == _root);\n    }\n\n    // helpers\n\n    // https://ethereum.stackexchange.com/questions/6498/how-to-convert-a-uint256-type-integer-into-a-bytes32\n    function bytes32ToUint256(bytes32 n) internal returns (uint256) {\n        return uint256(n);\n    }\n\n\n}",
  "sourcePath": "/home/user/snappframes/contracts/Snappframes.sol",
  "compiler": {
    "name": "solc",
    "version": "0.5.2+commit.1df8f40c.Emscripten.clang"
  },
  "schemaVersion": "3.0.6",
  "updatedAt": "2019-04-08T12:23:23.516Z",
  "devdoc": {
    "methods": {
      "approve(address,uint256)": {
        "details": "Approves another address to transfer the given token ID The zero address indicates there is no approved address. There can only be one approved address per token at a given time. Can only be called by the token owner or an approved operator.",
        "params": {
          "to": "address to be approved for the given token ID",
          "tokenId": "uint256 ID of the token to be approved"
        }
      },
      "balanceOf(address)": {
        "details": "Gets the balance of the specified address",
        "params": {
          "owner": "address to query the balance of"
        },
        "return": "uint256 representing the amount owned by the passed address"
      },
      "getApproved(uint256)": {
        "details": "Gets the approved address for a token ID, or zero if no address set Reverts if the token ID does not exist.",
        "params": {
          "tokenId": "uint256 ID of the token to query the approval of"
        },
        "return": "address currently approved for the given token ID"
      },
      "isApprovedForAll(address,address)": {
        "details": "Tells whether an operator is approved by a given owner",
        "params": {
          "operator": "operator address which you want to query the approval of",
          "owner": "owner address which you want to query the approval of"
        },
        "return": "bool whether the given operator is approved by the given owner"
      },
      "name()": {
        "details": "Gets the token name",
        "return": "string representing the token name"
      },
      "ownerOf(uint256)": {
        "details": "Gets the owner of the specified token ID",
        "params": {
          "tokenId": "uint256 ID of the token to query the owner of"
        },
        "return": "address currently marked as the owner of the given token ID"
      },
      "safeTransferFrom(address,address,uint256)": {
        "details": "Safely transfers the ownership of a given token ID to another address If the target address is a contract, it must implement `onERC721Received`, which is called upon a safe transfer, and return the magic value `bytes4(keccak256(\"onERC721Received(address,address,uint256,bytes)\"))`; otherwise, the transfer is reverted. Requires the msg.sender to be the owner, approved, or operator",
        "params": {
          "from": "current owner of the token",
          "to": "address to receive the ownership of the given token ID",
          "tokenId": "uint256 ID of the token to be transferred"
        }
      },
      "safeTransferFrom(address,address,uint256,bytes)": {
        "details": "Safely transfers the ownership of a given token ID to another address If the target address is a contract, it must implement `onERC721Received`, which is called upon a safe transfer, and return the magic value `bytes4(keccak256(\"onERC721Received(address,address,uint256,bytes)\"))`; otherwise, the transfer is reverted. Requires the msg.sender to be the owner, approved, or operator",
        "params": {
          "_data": "bytes data to send along with a safe transfer check",
          "from": "current owner of the token",
          "to": "address to receive the ownership of the given token ID",
          "tokenId": "uint256 ID of the token to be transferred"
        }
      },
      "setApprovalForAll(address,bool)": {
        "details": "Sets or unsets the approval of a given operator An operator is allowed to transfer all tokens of the sender on their behalf",
        "params": {
          "approved": "representing the status of the approval to be set",
          "to": "operator address to set the approval"
        }
      },
      "supportsInterface(bytes4)": {
        "details": "implement supportsInterface(bytes4) using a lookup table"
      },
      "symbol()": {
        "details": "Gets the token symbol",
        "return": "string representing the token symbol"
      },
      "tokenByIndex(uint256)": {
        "details": "Gets the token ID at a given index of all the tokens in this contract Reverts if the index is greater or equal to the total number of tokens",
        "params": {
          "index": "uint256 representing the index to be accessed of the tokens list"
        },
        "return": "uint256 token ID at the given index of the tokens list"
      },
      "tokenOfOwnerByIndex(address,uint256)": {
        "details": "Gets the token ID at a given index of the tokens list of the requested owner",
        "params": {
          "index": "uint256 representing the index to be accessed of the requested tokens list",
          "owner": "address owning the tokens list to be accessed"
        },
        "return": "uint256 token ID at the given index of the tokens list owned by the requested address"
      },
      "tokenURI(uint256)": {
        "details": "Returns an URI for a given token ID Throws if the token ID does not exist. May return an empty string.",
        "params": {
          "tokenId": "uint256 ID of the token to query"
        }
      },
      "totalSupply()": {
        "details": "Gets the total amount of tokens stored by the contract",
        "return": "uint256 representing the total amount of tokens"
      },
      "transferFrom(address,address,uint256)": {
        "details": "Transfers the ownership of a given token ID to another address Usage of this method is discouraged, use `safeTransferFrom` whenever possible Requires the msg.sender to be the owner, approved, or operator",
        "params": {
          "from": "current owner of the token",
          "to": "address to receive the ownership of the given token ID",
          "tokenId": "uint256 ID of the token to be transferred"
        }
      }
    }
  },
  "userdoc": {
    "methods": {}
  }
}