{
  "contractName": "Snappframes",
  "abi": [
    {
      "constant": true,
      "inputs": [
        {
          "name": "interfaceId",
          "type": "bytes4"
        }
      ],
      "name": "supportsInterface",
      "outputs": [
        {
          "name": "",
          "type": "bool"
        }
      ],
      "payable": false,
      "stateMutability": "view",
      "type": "function",
      "signature": "0x01ffc9a7"
    },
    {
      "constant": true,
      "inputs": [],
      "name": "name",
      "outputs": [
        {
          "name": "",
          "type": "string"
        }
      ],
      "payable": false,
      "stateMutability": "view",
      "type": "function",
      "signature": "0x06fdde03"
    },
    {
      "constant": true,
      "inputs": [
        {
          "name": "tokenId",
          "type": "uint256"
        }
      ],
      "name": "getApproved",
      "outputs": [
        {
          "name": "",
          "type": "address"
        }
      ],
      "payable": false,
      "stateMutability": "view",
      "type": "function",
      "signature": "0x081812fc"
    },
    {
      "constant": false,
      "inputs": [
        {
          "name": "to",
          "type": "address"
        },
        {
          "name": "tokenId",
          "type": "uint256"
        }
      ],
      "name": "approve",
      "outputs": [],
      "payable": false,
      "stateMutability": "nonpayable",
      "type": "function",
      "signature": "0x095ea7b3"
    },
    {
      "constant": true,
      "inputs": [],
      "name": "totalSupply",
      "outputs": [
        {
          "name": "",
          "type": "uint256"
        }
      ],
      "payable": false,
      "stateMutability": "view",
      "type": "function",
      "signature": "0x18160ddd"
    },
    {
      "constant": false,
      "inputs": [
        {
          "name": "from",
          "type": "address"
        },
        {
          "name": "to",
          "type": "address"
        },
        {
          "name": "tokenId",
          "type": "uint256"
        }
      ],
      "name": "transferFrom",
      "outputs": [],
      "payable": false,
      "stateMutability": "nonpayable",
      "type": "function",
      "signature": "0x23b872dd"
    },
    {
      "constant": true,
      "inputs": [
        {
          "name": "owner",
          "type": "address"
        },
        {
          "name": "index",
          "type": "uint256"
        }
      ],
      "name": "tokenOfOwnerByIndex",
      "outputs": [
        {
          "name": "",
          "type": "uint256"
        }
      ],
      "payable": false,
      "stateMutability": "view",
      "type": "function",
      "signature": "0x2f745c59"
    },
    {
      "constant": false,
      "inputs": [
        {
          "name": "a",
          "type": "uint256[2]"
        },
        {
          "name": "a_p",
          "type": "uint256[2]"
        },
        {
          "name": "b",
          "type": "uint256[2][2]"
        },
        {
          "name": "b_p",
          "type": "uint256[2]"
        },
        {
          "name": "c",
          "type": "uint256[2]"
        },
        {
          "name": "c_p",
          "type": "uint256[2]"
        },
        {
          "name": "h",
          "type": "uint256[2]"
        },
        {
          "name": "k",
          "type": "uint256[2]"
        },
        {
          "name": "input",
          "type": "uint256[39]"
        }
      ],
      "name": "verifyProof",
      "outputs": [
        {
          "name": "",
          "type": "bool"
        }
      ],
      "payable": false,
      "stateMutability": "nonpayable",
      "type": "function",
      "signature": "0x3fe6f64c"
    },
    {
      "constant": false,
      "inputs": [
        {
          "name": "from",
          "type": "address"
        },
        {
          "name": "to",
          "type": "address"
        },
        {
          "name": "tokenId",
          "type": "uint256"
        }
      ],
      "name": "safeTransferFrom",
      "outputs": [],
      "payable": false,
      "stateMutability": "nonpayable",
      "type": "function",
      "signature": "0x42842e0e"
    },
    {
      "constant": true,
      "inputs": [
        {
          "name": "index",
          "type": "uint256"
        }
      ],
      "name": "tokenByIndex",
      "outputs": [
        {
          "name": "",
          "type": "uint256"
        }
      ],
      "payable": false,
      "stateMutability": "view",
      "type": "function",
      "signature": "0x4f6ccce7"
    },
    {
      "constant": true,
      "inputs": [],
      "name": "operator",
      "outputs": [
        {
          "name": "",
          "type": "address"
        }
      ],
      "payable": false,
      "stateMutability": "view",
      "type": "function",
      "signature": "0x570ca735"
    },
    {
      "constant": true,
      "inputs": [],
      "name": "current_state",
      "outputs": [
        {
          "name": "",
          "type": "uint256"
        }
      ],
      "payable": false,
      "stateMutability": "view",
      "type": "function",
      "signature": "0x5b04cbb5"
    },
    {
      "constant": true,
      "inputs": [
        {
          "name": "tokenId",
          "type": "uint256"
        }
      ],
      "name": "ownerOf",
      "outputs": [
        {
          "name": "",
          "type": "address"
        }
      ],
      "payable": false,
      "stateMutability": "view",
      "type": "function",
      "signature": "0x6352211e"
    },
    {
      "constant": true,
      "inputs": [],
      "name": "NUM_LEAVES_PER_SEGMENT",
      "outputs": [
        {
          "name": "",
          "type": "uint256"
        }
      ],
      "payable": false,
      "stateMutability": "view",
      "type": "function",
      "signature": "0x6f843107"
    },
    {
      "constant": true,
      "inputs": [
        {
          "name": "owner",
          "type": "address"
        }
      ],
      "name": "balanceOf",
      "outputs": [
        {
          "name": "",
          "type": "uint256"
        }
      ],
      "payable": false,
      "stateMutability": "view",
      "type": "function",
      "signature": "0x70a08231"
    },
    {
      "constant": true,
      "inputs": [
        {
          "name": "",
          "type": "uint256"
        },
        {
          "name": "",
          "type": "uint256"
        },
        {
          "name": "",
          "type": "uint256"
        },
        {
          "name": "",
          "type": "uint256"
        }
      ],
      "name": "MiMCpe7",
      "outputs": [
        {
          "name": "",
          "type": "uint256"
        }
      ],
      "payable": false,
      "stateMutability": "pure",
      "type": "function",
      "signature": "0x7eb17125"
    },
    {
      "constant": true,
      "inputs": [],
      "name": "symbol",
      "outputs": [
        {
          "name": "",
          "type": "string"
        }
      ],
      "payable": false,
      "stateMutability": "view",
      "type": "function",
      "signature": "0x95d89b41"
    },
    {
      "constant": false,
      "inputs": [
        {
          "name": "to",
          "type": "address"
        },
        {
          "name": "approved",
          "type": "bool"
        }
      ],
      "name": "setApprovalForAll",
      "outputs": [],
      "payable": false,
      "stateMutability": "nonpayable",
      "type": "function",
      "signature": "0xa22cb465"
    },
    {
      "constant": true,
      "inputs": [],
      "name": "NUM_SEGMENTS",
      "outputs": [
        {
          "name": "",
          "type": "uint256"
        }
      ],
      "payable": false,
      "stateMutability": "view",
      "type": "function",
      "signature": "0xa78cf36b"
    },
    {
      "constant": false,
      "inputs": [
        {
          "name": "from",
          "type": "address"
        },
        {
          "name": "to",
          "type": "address"
        },
        {
          "name": "tokenId",
          "type": "uint256"
        },
        {
          "name": "_data",
          "type": "bytes"
        }
      ],
      "name": "safeTransferFrom",
      "outputs": [],
      "payable": false,
      "stateMutability": "nonpayable",
      "type": "function",
      "signature": "0xb88d4fde"
    },
    {
      "constant": true,
      "inputs": [
        {
          "name": "tokenId",
          "type": "uint256"
        }
      ],
      "name": "tokenURI",
      "outputs": [
        {
          "name": "",
          "type": "string"
        }
      ],
      "payable": false,
      "stateMutability": "view",
      "type": "function",
      "signature": "0xc87b56dd"
    },
    {
      "constant": true,
      "inputs": [],
      "name": "depositQueueLength",
      "outputs": [
        {
          "name": "",
          "type": "uint256"
        }
      ],
      "payable": false,
      "stateMutability": "view",
      "type": "function",
      "signature": "0xca11dd97"
    },
    {
      "constant": true,
      "inputs": [],
      "name": "SEGMENT_DEPTH",
      "outputs": [
        {
          "name": "",
          "type": "uint256"
        }
      ],
      "payable": false,
      "stateMutability": "view",
      "type": "function",
      "signature": "0xce84689a"
    },
    {
      "constant": true,
      "inputs": [
        {
          "name": "",
          "type": "address"
        },
        {
          "name": "",
          "type": "uint256"
        }
      ],
      "name": "ecdsaToEddsa",
      "outputs": [
        {
          "name": "",
          "type": "uint256"
        }
      ],
      "payable": false,
      "stateMutability": "view",
      "type": "function",
      "signature": "0xdc837d49"
    },
    {
      "constant": true,
      "inputs": [
        {
          "name": "owner",
          "type": "address"
        },
        {
          "name": "operator",
          "type": "address"
        }
      ],
      "name": "isApprovedForAll",
      "outputs": [
        {
          "name": "",
          "type": "bool"
        }
      ],
      "payable": false,
      "stateMutability": "view",
      "type": "function",
      "signature": "0xe985e9c5"
    },
    {
      "constant": true,
      "inputs": [],
      "name": "TREE_DEPTH",
      "outputs": [
        {
          "name": "",
          "type": "uint256"
        }
      ],
      "payable": false,
      "stateMutability": "view",
      "type": "function",
      "signature": "0xf1650536"
    },
    {
      "inputs": [
        {
          "name": "_verifierAddr",
          "type": "address"
        },
        {
          "name": "_mimcAddr",
          "type": "address"
        }
      ],
      "payable": false,
      "stateMutability": "nonpayable",
      "type": "constructor",
      "signature": "constructor"
    },
    {
      "anonymous": false,
      "inputs": [
        {
          "indexed": false,
          "name": "_initialRoot",
          "type": "uint256"
        }
      ],
      "name": "InitialRoot",
      "type": "event",
      "signature": "0xf94e3909ba1d1a4304c5ea586ab3a69a8b4e501ba443c0342693d93877acc745"
    },
    {
      "anonymous": false,
      "inputs": [
        {
          "indexed": false,
          "name": "_depositor",
          "type": "address"
        },
        {
          "indexed": false,
          "name": "_segmentIdx",
          "type": "uint256"
        },
        {
          "indexed": false,
          "name": "_leafIdx",
          "type": "uint256"
        }
      ],
      "name": "Deposit",
      "type": "event",
      "signature": "0x90890809c654f11d6e72a28fa60149770a0d11ec6c92319d6ceb2bb0a4ea1a15"
    },
    {
      "anonymous": false,
      "inputs": [
        {
          "indexed": false,
          "name": "_firstDepositor",
          "type": "address"
        },
        {
          "indexed": false,
          "name": "_lastDepositor",
          "type": "address"
        }
      ],
      "name": "DepositsProcessed",
      "type": "event",
      "signature": "0x1fb1047f612b2371ce2fabe1282c8126d06ec9bb7171c1db95ac91d3bab13fc7"
    },
    {
      "anonymous": false,
      "inputs": [
        {
          "indexed": false,
          "name": "_eddsaAddr",
          "type": "uint256[2]"
        }
      ],
      "name": "EdDSA",
      "type": "event",
      "signature": "0xf52612c4018f5f0e129f9ec931f8eb409f5c98f1a1d8b79c084e055b34704624"
    },
    {
      "anonymous": false,
      "inputs": [
        {
          "indexed": true,
          "name": "from",
          "type": "address"
        },
        {
          "indexed": true,
          "name": "to",
          "type": "address"
        },
        {
          "indexed": true,
          "name": "tokenId",
          "type": "uint256"
        }
      ],
      "name": "Transfer",
      "type": "event",
      "signature": "0xddf252ad1be2c89b69c2b068fc378daa952ba7f163c4a11628f55a4df523b3ef"
    },
    {
      "anonymous": false,
      "inputs": [
        {
          "indexed": true,
          "name": "owner",
          "type": "address"
        },
        {
          "indexed": true,
          "name": "approved",
          "type": "address"
        },
        {
          "indexed": true,
          "name": "tokenId",
          "type": "uint256"
        }
      ],
      "name": "Approval",
      "type": "event",
      "signature": "0x8c5be1e5ebec7d5bd14f71427d1e84f3dd0314c0f7b2291e5b200ac8c7c3b925"
    },
    {
      "anonymous": false,
      "inputs": [
        {
          "indexed": true,
          "name": "owner",
          "type": "address"
        },
        {
          "indexed": true,
          "name": "operator",
          "type": "address"
        },
        {
          "indexed": false,
          "name": "approved",
          "type": "bool"
        }
      ],
      "name": "ApprovalForAll",
      "type": "event",
      "signature": "0x17307eab39ab6107e8899845ad3d59bd9653f200f220920489ca2b5937696c31"
    },
    {
      "constant": false,
      "inputs": [
        {
          "name": "_initialRoot",
          "type": "uint256"
        }
      ],
      "name": "setInitialRoot",
      "outputs": [],
      "payable": false,
      "stateMutability": "nonpayable",
      "type": "function",
      "signature": "0x657909a3"
    },
    {
      "constant": false,
      "inputs": [
        {
          "name": "a",
          "type": "uint256[2]"
        },
        {
          "name": "a_p",
          "type": "uint256[2]"
        },
        {
          "name": "b",
          "type": "uint256[2][2]"
        },
        {
          "name": "b_p",
          "type": "uint256[2]"
        },
        {
          "name": "c",
          "type": "uint256[2]"
        },
        {
          "name": "c_p",
          "type": "uint256[2]"
        },
        {
          "name": "h",
          "type": "uint256[2]"
        },
        {
          "name": "k",
          "type": "uint256[2]"
        },
        {
          "name": "input",
          "type": "uint256[39]"
        }
      ],
      "name": "update",
      "outputs": [],
      "payable": false,
      "stateMutability": "nonpayable",
      "type": "function",
      "signature": "0x9d2faf8a"
    },
    {
      "constant": false,
      "inputs": [
        {
          "name": "_index",
          "type": "uint256"
        },
        {
          "name": "_eddsaPubKey",
          "type": "uint256[2]"
        }
      ],
      "name": "deposit",
      "outputs": [],
      "payable": true,
      "stateMutability": "payable",
      "type": "function",
      "signature": "0x71d8ded9"
    },
    {
      "constant": false,
      "inputs": [],
      "name": "processDepositQueue",
      "outputs": [],
      "payable": false,
      "stateMutability": "nonpayable",
      "type": "function",
      "signature": "0xae186911"
    },
    {
      "constant": false,
      "inputs": [
        {
          "name": "asset",
          "type": "uint256"
        },
        {
          "name": "pubkey",
          "type": "uint256[2]"
        },
        {
          "name": "proof",
          "type": "uint256[3]"
        },
        {
          "name": "root",
          "type": "uint256"
        }
      ],
      "name": "withdraw",
      "outputs": [],
      "payable": false,
      "stateMutability": "nonpayable",
      "type": "function",
      "signature": "0x0b4c2d3a"
    },
    {
      "constant": false,
      "inputs": [
        {
          "name": "_ethAddress",
          "type": "address"
        }
      ],
      "name": "getEddsaAddr",
      "outputs": [
        {
          "name": "",
          "type": "uint256[2]"
        }
      ],
      "payable": false,
      "stateMutability": "nonpayable",
      "type": "function",
      "signature": "0x1ab5ab6c"
    },
    {
      "constant": false,
      "inputs": [
        {
          "name": "_leafHash",
          "type": "uint256"
        },
        {
          "name": "_merkleProof",
          "type": "uint256[3]"
        },
        {
          "name": "_root",
          "type": "uint256"
        }
      ],
      "name": "verifyMerkleProof",
      "outputs": [
        {
          "name": "",
          "type": "bool"
        }
      ],
      "payable": false,
      "stateMutability": "nonpayable",
      "type": "function",
      "signature": "0xb75f3f5c"
    },
    {
      "constant": false,
      "inputs": [
        {
          "name": "in_x",
          "type": "uint256"
        },
        {
          "name": "in_k",
          "type": "uint256"
        }
      ],
      "name": "mimcHash",
      "outputs": [
        {
          "name": "",
          "type": "uint256"
        }
      ],
      "payable": false,
      "stateMutability": "nonpayable",
      "type": "function",
      "signature": "0x2d38a38a"
    },
    {
      "constant": false,
      "inputs": [
        {
          "name": "numerator",
          "type": "uint256"
        },
        {
          "name": "denominator",
          "type": "uint256"
        }
      ],
      "name": "getDivided",
      "outputs": [
        {
          "name": "quotient",
          "type": "uint256"
        },
        {
          "name": "remainder",
          "type": "uint256"
        }
      ],
      "payable": false,
      "stateMutability": "nonpayable",
      "type": "function",
      "signature": "0x194d02d7"
    }
  ],
  "bytecode": "0x60806040526006600c556003600d55600d54600c540360020a600e55600d5460020a600f556103e86010556103e8601155600c5460020a60125560006017553480156200004b57600080fd5b5060405160408062003788833981018060405260408110156200006d57600080fd5b8101908080519060200190929190805190602001909291905050506040805190810160405280600b81526020017f536e6170706672616d65730000000000000000000000000000000000000000008152506040805190810160405280600381526020017f534e5000000000000000000000000000000000000000000000000000000000008152508181620001336301ffc9a77c010000000000000000000000000000000000000000000000000000000002620002eb640100000000026401000000009004565b620001706380ac58cd7c010000000000000000000000000000000000000000000000000000000002620002eb640100000000026401000000009004565b620001ad63780e9d637c010000000000000000000000000000000000000000000000000000000002620002eb640100000000026401000000009004565b8160099080519060200190620001c5929190620003a9565b5080600a9080519060200190620001de929190620003a9565b506200021c635b5e139f7c010000000000000000000000000000000000000000000000000000000002620002eb640100000000026401000000009004565b5050505081601360006101000a81548173ffffffffffffffffffffffffffffffffffffffff021916908373ffffffffffffffffffffffffffffffffffffffff16021790555080601460006101000a81548173ffffffffffffffffffffffffffffffffffffffff021916908373ffffffffffffffffffffffffffffffffffffffff16021790555033601560006101000a81548173ffffffffffffffffffffffffffffffffffffffff021916908373ffffffffffffffffffffffffffffffffffffffff160217905550505062000458565b63ffffffff7c010000000000000000000000000000000000000000000000000000000002817bffffffffffffffffffffffffffffffffffffffffffffffffffffffff1916141515156200033d57600080fd5b6001600080837bffffffffffffffffffffffffffffffffffffffffffffffffffffffff19167bffffffffffffffffffffffffffffffffffffffffffffffffffffffff1916815260200190815260200160002060006101000a81548160ff02191690831515021790555050565b828054600181600116156101000203166002900490600052602060002090601f016020900481019282601f10620003ec57805160ff19168380011785556200041d565b828001600101855582156200041d579182015b828111156200041c578251825591602001919060010190620003ff565b5b5090506200042c919062000430565b5090565b6200045591905b808211156200045157600081600090555060010162000437565b5090565b90565b61332080620004686000396000f3fe608060405260043610610221576000357c010000000000000000000000000000000000000000000000000000000090048063657909a311610135578063ae186911116100bd578063ca11dd971161008c578063ca11dd97146113a1578063ce84689a146113cc578063dc837d49146113f7578063e985e9c514611466578063f1650536146114ef57610221565b8063ae18691114611126578063b75f3f5c1461113d578063b88d4fde146111db578063c87b56dd146112ed57610221565b80637eb17125116101045780637eb1712514610ced57806395d89b4114610d5a5780639d2faf8a14610dea578063a22cb4651461109e578063a78cf36b146110fb57610221565b8063657909a314610bb35780636f84310714610bee57806370a0823114610c1957806371d8ded914610c7e57610221565b806323b872dd116101b857806342842e0e1161018757806342842e0e146109ec5780634f6ccce714610a67578063570ca73514610ab65780635b04cbb514610b0d5780636352211e14610b3857610221565b806323b872dd146105dd5780632d38a38a146106585780632f745c59146106b15780633fe6f64c1461072057610221565b80630b4c2d3a116101f45780630b4c2d3a146103fe57806318160ddd146104c5578063194d02d7146104f05780631ab5ab6c1461055057610221565b806301ffc9a71461022657806306fdde0314610298578063081812fc14610328578063095ea7b3146103a3575b600080fd5b34801561023257600080fd5b5061027e6004803603602081101561024957600080fd5b8101908080357bffffffffffffffffffffffffffffffffffffffffffffffffffffffff1916906020019092919050505061151a565b604051808215151515815260200191505060405180910390f35b3480156102a457600080fd5b506102ad611581565b6040518080602001828103825283818151815260200191508051906020019080838360005b838110156102ed5780820151818401526020810190506102d2565b50505050905090810190601f16801561031a5780820380516001836020036101000a031916815260200191505b509250505060405180910390f35b34801561033457600080fd5b506103616004803603602081101561034b57600080fd5b8101908080359060200190929190505050611623565b604051808273ffffffffffffffffffffffffffffffffffffffff1673ffffffffffffffffffffffffffffffffffffffff16815260200191505060405180910390f35b3480156103af57600080fd5b506103fc600480360360408110156103c657600080fd5b81019080803573ffffffffffffffffffffffffffffffffffffffff16906020019092919080359060200190929190505050611674565b005b34801561040a57600080fd5b506104c3600480360360e081101561042157600080fd5b810190808035906020019092919080604001906002806020026040519081016040528092919082600260200280828437600081840152601f19601f820116905080830192505050505050919291929080606001906003806020026040519081016040528092919082600360200280828437600081840152601f19601f8201169050808301925050505050509192919290803590602001909291905050506117b9565b005b3480156104d157600080fd5b506104da6118aa565b6040518082815260200191505060405180910390f35b3480156104fc57600080fd5b506105336004803603604081101561051357600080fd5b8101908080359060200190929190803590602001909291905050506118b7565b604051808381526020018281526020019250505060405180910390f35b34801561055c57600080fd5b5061059f6004803603602081101561057357600080fd5b81019080803573ffffffffffffffffffffffffffffffffffffffff1690602001909291905050506118d6565b6040518082600260200280838360005b838110156105ca5780820151818401526020810190506105af565b5050505090500191505060405180910390f35b3480156105e957600080fd5b506106566004803603606081101561060057600080fd5b81019080803573ffffffffffffffffffffffffffffffffffffffff169060200190929190803573ffffffffffffffffffffffffffffffffffffffff16906020019092919080359060200190929190505050611abc565b005b34801561066457600080fd5b5061069b6004803603604081101561067b57600080fd5b810190808035906020019092919080359060200190929190505050611ae1565b6040518082815260200191505060405180910390f35b3480156106bd57600080fd5b5061070a600480360360408110156106d457600080fd5b81019080803573ffffffffffffffffffffffffffffffffffffffff16906020019092919080359060200190929190505050611c07565b6040518082815260200191505060405180910390f35b34801561072c57600080fd5b506109d2600480360361072081101561074457600080fd5b8101908080604001906002806020026040519081016040528092919082600260200280828437600081840152601f19601f820116905080830192505050505050919291929080604001906002806020026040519081016040528092919082600260200280828437600081840152601f19601f82011690508083019250505050505091929192908060800190600280602002604051908101604052809291906000905b8282101561083a578382604002016002806020026040519081016040528092919082600260200280828437600081840152601f19601f820116905080830192505050505050815260200190600101906107e6565b50505050919291929080604001906002806020026040519081016040528092919082600260200280828437600081840152601f19601f820116905080830192505050505050919291929080604001906002806020026040519081016040528092919082600260200280828437600081840152601f19601f820116905080830192505050505050919291929080604001906002806020026040519081016040528092919082600260200280828437600081840152601f19601f820116905080830192505050505050919291929080604001906002806020026040519081016040528092919082600260200280828437600081840152601f19601f820116905080830192505050505050919291929080604001906002806020026040519081016040528092919082600260200280828437600081840152601f19601f8201169050808301925050505050509192919290806104e001906027806020026040519081016040528092919082602760200280828437600081840152601f19601f8201169050808301925050505050509192919290505050611c7e565b604051808215151515815260200191505060405180910390f35b3480156109f857600080fd5b50610a6560048036036060811015610a0f57600080fd5b81019080803573ffffffffffffffffffffffffffffffffffffffff169060200190929190803573ffffffffffffffffffffffffffffffffffffffff16906020019092919080359060200190929190505050611c8d565b005b348015610a7357600080fd5b50610aa060048036036020811015610a8a57600080fd5b8101908080359060200190929190505050611cae565b6040518082815260200191505060405180910390f35b348015610ac257600080fd5b50610acb611ce6565b604051808273ffffffffffffffffffffffffffffffffffffffff1673ffffffffffffffffffffffffffffffffffffffff16815260200191505060405180910390f35b348015610b1957600080fd5b50610b22611d0c565b6040518082815260200191505060405180910390f35b348015610b4457600080fd5b50610b7160048036036020811015610b5b57600080fd5b8101908080359060200190929190505050611d12565b604051808273ffffffffffffffffffffffffffffffffffffffff1673ffffffffffffffffffffffffffffffffffffffff16815260200191505060405180910390f35b348015610bbf57600080fd5b50610bec60048036036020811015610bd657600080fd5b8101908080359060200190929190505050611d90565b005b348015610bfa57600080fd5b50610c03611e2d565b6040518082815260200191505060405180910390f35b348015610c2557600080fd5b50610c6860048036036020811015610c3c57600080fd5b81019080803573ffffffffffffffffffffffffffffffffffffffff169060200190929190505050611e33565b6040518082815260200191505060405180910390f35b610ceb60048036036060811015610c9457600080fd5b810190808035906020019092919080604001906002806020026040519081016040528092919082600260200280828437600081840152601f19601f8201169050808301925050505050509192919290505050611ebe565b005b348015610cf957600080fd5b50610d4460048036036080811015610d1057600080fd5b8101908080359060200190929190803590602001909291908035906020019092919080359060200190929190505050612086565b6040518082815260200191505060405180910390f35b348015610d6657600080fd5b50610d6f612090565b6040518080602001828103825283818151815260200191508051906020019080838360005b83811015610daf578082015181840152602081019050610d94565b50505050905090810190601f168015610ddc5780820380516001836020036101000a031916815260200191505b509250505060405180910390f35b348015610df657600080fd5b5061109c6004803603610720811015610e0e57600080fd5b8101908080604001906002806020026040519081016040528092919082600260200280828437600081840152601f19601f820116905080830192505050505050919291929080604001906002806020026040519081016040528092919082600260200280828437600081840152601f19601f82011690508083019250505050505091929192908060800190600280602002604051908101604052809291906000905b82821015610f04578382604002016002806020026040519081016040528092919082600260200280828437600081840152601f19601f82011690508083019250505050505081526020019060010190610eb0565b50505050919291929080604001906002806020026040519081016040528092919082600260200280828437600081840152601f19601f820116905080830192505050505050919291929080604001906002806020026040519081016040528092919082600260200280828437600081840152601f19601f820116905080830192505050505050919291929080604001906002806020026040519081016040528092919082600260200280828437600081840152601f19601f820116905080830192505050505050919291929080604001906002806020026040519081016040528092919082600260200280828437600081840152601f19601f820116905080830192505050505050919291929080604001906002806020026040519081016040528092919082600260200280828437600081840152601f19601f8201169050808301925050505050509192919290806104e001906027806020026040519081016040528092919082602760200280828437600081840152601f19601f8201169050808301925050505050509192919290505050612132565b005b3480156110aa57600080fd5b506110f9600480360360408110156110c157600080fd5b81019080803573ffffffffffffffffffffffffffffffffffffffff16906020019092919080351515906020019092919050505061243b565b005b34801561110757600080fd5b50611110612577565b6040518082815260200191505060405180910390f35b34801561113257600080fd5b5061113b61257d565b005b34801561114957600080fd5b506111c1600480360360a081101561116057600080fd5b810190808035906020019092919080606001906003806020026040519081016040528092919082600360200280828437600081840152601f19601f8201169050808301925050505050509192919290803590602001909291905050506126df565b604051808215151515815260200191505060405180910390f35b3480156111e757600080fd5b506112eb600480360360808110156111fe57600080fd5b81019080803573ffffffffffffffffffffffffffffffffffffffff169060200190929190803573ffffffffffffffffffffffffffffffffffffffff169060200190929190803590602001909291908035906020019064010000000081111561126557600080fd5b82018360208201111561127757600080fd5b8035906020019184600183028401116401000000008311171561129957600080fd5b91908080601f016020809104026020016040519081016040528093929190818152602001838380828437600081840152601f19601f8201169050808301925050505050505091929192905050506127a4565b005b3480156112f957600080fd5b506113266004803603602081101561131057600080fd5b81019080803590602001909291905050506127cc565b6040518080602001828103825283818151815260200191508051906020019080838360005b8381101561136657808201518184015260208101905061134b565b50505050905090810190601f1680156113935780820380516001836020036101000a031916815260200191505b509250505060405180910390f35b3480156113ad57600080fd5b506113b6612895565b6040518082815260200191505060405180910390f35b3480156113d857600080fd5b506113e161289b565b6040518082815260200191505060405180910390f35b34801561140357600080fd5b506114506004803603604081101561141a57600080fd5b81019080803573ffffffffffffffffffffffffffffffffffffffff169060200190929190803590602001909291905050506128a1565b6040518082815260200191505060405180910390f35b34801561147257600080fd5b506114d56004803603604081101561148957600080fd5b81019080803573ffffffffffffffffffffffffffffffffffffffff169060200190929190803573ffffffffffffffffffffffffffffffffffffffff1690602001909291905050506128c8565b604051808215151515815260200191505060405180910390f35b3480156114fb57600080fd5b5061150461295c565b6040518082815260200191505060405180910390f35b6000806000837bffffffffffffffffffffffffffffffffffffffffffffffffffffffff19167bffffffffffffffffffffffffffffffffffffffffffffffffffffffff1916815260200190815260200160002060009054906101000a900460ff169050919050565b606060098054600181600116156101000203166002900480601f0160208091040260200160405190810160405280929190818152602001828054600181600116156101000203166002900480156116195780601f106115ee57610100808354040283529160200191611619565b820191906000526020600020905b8154815290600101906020018083116115fc57829003601f168201915b5050505050905090565b600061162e82612962565b151561163957600080fd5b6002600083815260200190815260200160002060009054906101000a900473ffffffffffffffffffffffffffffffffffffffff169050919050565b600061167f82611d12565b90508073ffffffffffffffffffffffffffffffffffffffff168373ffffffffffffffffffffffffffffffffffffffff16141515156116bc57600080fd5b8073ffffffffffffffffffffffffffffffffffffffff163373ffffffffffffffffffffffffffffffffffffffff1614806116fc57506116fb81336128c8565b5b151561170757600080fd5b826002600084815260200190815260200160002060006101000a81548173ffffffffffffffffffffffffffffffffffffffff021916908373ffffffffffffffffffffffffffffffffffffffff160217905550818373ffffffffffffffffffffffffffffffffffffffff168273ffffffffffffffffffffffffffffffffffffffff167f8c5be1e5ebec7d5bd14f71427d1e84f3dd0314c0f7b2291e5b200ac8c7c3b92560405160405180910390a4505050565b6117c161321e565b601d60003373ffffffffffffffffffffffffffffffffffffffff1673ffffffffffffffffffffffffffffffffffffffff168152602001908152602001600020600280602002604051908101604052809291908260028015611837576020028201915b815481526020019060010190808311611823575b5050505050905083600060028110151561184d57fe5b602002015181600060028110151561186157fe5b6020020151148015611898575083600160028110151561187d57fe5b602002015181600160028110151561189157fe5b6020020151145b15156118a357600080fd5b5050505050565b6000600780549050905090565b60008082848115156118c557fe5b049150818302840390509250929050565b6118de61321e565b6118e661321e565b601d60008473ffffffffffffffffffffffffffffffffffffffff1673ffffffffffffffffffffffffffffffffffffffff16815260200190815260200160002060028060200260405190810160405280929190826002801561195c576020028201915b815481526020019060010190808311611948575b505050505090507f0c92859506d52a579ab5073c239985d70a7eec5664d0f2bab72ab62133d1405c81600060028110151561199357fe5b60200201511415156119a457600080fd5b7ff52612c4018f5f0e129f9ec931f8eb409f5c98f1a1d8b79c084e055b34704624601d60008573ffffffffffffffffffffffffffffffffffffffff1673ffffffffffffffffffffffffffffffffffffffff168152602001908152602001600020604051808260028015611a2c576020028201915b815481526020019060010190808311611a18575b505091505060405180910390a1601d60008473ffffffffffffffffffffffffffffffffffffffff1673ffffffffffffffffffffffffffffffffffffffff168152602001908152602001600020600280602002604051908101604052809291908260028015611aaf576020028201915b815481526020019060010190808311611a9b575b5050505050915050919050565b611ac633826129d4565b1515611ad157600080fd5b611adc838383612a69565b505050565b6000601460009054906101000a900473ffffffffffffffffffffffffffffffffffffffff1673ffffffffffffffffffffffffffffffffffffffff16637eb17125848460405180807f6d696d63000000000000000000000000000000000000000000000000000000008152506004019050604051809103902060019004605b6040518563ffffffff167c01000000000000000000000000000000000000000000000000000000000281526004018085815260200184815260200183815260200182815260200194505050505060206040518083038186803b158015611bc457600080fd5b505afa158015611bd8573d6000803e3d6000fd5b505050506040513d6020811015611bee57600080fd5b8101908080519060200190929190505050905092915050565b6000611c1283611e33565b82101515611c1f57600080fd5b600560008473ffffffffffffffffffffffffffffffffffffffff1673ffffffffffffffffffffffffffffffffffffffff16815260200190815260200160002082815481101515611c6b57fe5b9060005260206000200154905092915050565b60009998505050505050505050565b611ca983838360206040519081016040528060008152506127a4565b505050565b6000611cb86118aa565b82101515611cc557600080fd5b600782815481101515611cd457fe5b90600052602060002001549050919050565b601560009054906101000a900473ffffffffffffffffffffffffffffffffffffffff1681565b60165481565b6000806001600084815260200190815260200160002060009054906101000a900473ffffffffffffffffffffffffffffffffffffffff169050600073ffffffffffffffffffffffffffffffffffffffff168173ffffffffffffffffffffffffffffffffffffffff1614151515611d8757600080fd5b80915050919050565b601560009054906101000a900473ffffffffffffffffffffffffffffffffffffffff1673ffffffffffffffffffffffffffffffffffffffff163373ffffffffffffffffffffffffffffffffffffffff16141515611dec57600080fd5b806016819055507ff94e3909ba1d1a4304c5ea586ab3a69a8b4e501ba443c0342693d93877acc745816040518082815260200191505060405180910390a150565b600f5481565b60008073ffffffffffffffffffffffffffffffffffffffff168273ffffffffffffffffffffffffffffffffffffffff1614151515611e7057600080fd5b611eb7600360008473ffffffffffffffffffffffffffffffffffffffff1673ffffffffffffffffffffffffffffffffffffffff168152602001908152602001600020612a8d565b9050919050565b60125460175411151515611ed157600080fd5b6011543410151515611ee257600080fd5b601760008154809291906001019190505550336018600160175403600481101515611f0957fe5b0160006101000a81548173ffffffffffffffffffffffffffffffffffffffff021916908373ffffffffffffffffffffffffffffffffffffffff160217905550600080611f5784600f546118b7565b91509150604080519081016040528083815260200182815250601c60003373ffffffffffffffffffffffffffffffffffffffff1673ffffffffffffffffffffffffffffffffffffffff168152602001908152602001600020906002611fbd929190613240565b5082601d60003373ffffffffffffffffffffffffffffffffffffffff1673ffffffffffffffffffffffffffffffffffffffff16815260200190815260200160002090600261200c929190613240565b507f90890809c654f11d6e72a28fa60149770a0d11ec6c92319d6ceb2bb0a4ea1a15338383604051808473ffffffffffffffffffffffffffffffffffffffff1673ffffffffffffffffffffffffffffffffffffffff168152602001838152602001828152602001935050505060405180910390a150505050565b6000949350505050565b6060600a8054600181600116156101000203166002900480601f0160208091040260200160405190810160405280929190818152602001828054600181600116156101000203166002900480156121285780601f106120fd57610100808354040283529160200191612128565b820191906000526020600020905b81548152906001019060200180831161210b57829003601f168201915b5050505050905090565b601560009054906101000a900473ffffffffffffffffffffffffffffffffffffffff1673ffffffffffffffffffffffffffffffffffffffff163373ffffffffffffffffffffffffffffffffffffffff1614151561218e57600080fd5b601360009054906101000a900473ffffffffffffffffffffffffffffffffffffffff1673ffffffffffffffffffffffffffffffffffffffff16633fe6f64c8a8a8a8a8a8a8a8a8a6040518a63ffffffff167c0100000000000000000000000000000000000000000000000000000000028152600401808a600260200280838360005b8381101561222b578082015181840152602081019050612210565b5050505090500189600260200280838360005b8381101561225957808201518184015260208101905061223e565b505050509050018860026000925b818410156122ad5782846020020151600260200280838360005b8381101561229c578082015181840152602081019050612281565b505050509050019260010192612267565b9250505087600260200280838360005b838110156122d85780820151818401526020810190506122bd565b5050505090500186600260200280838360005b838110156123065780820151818401526020810190506122eb565b5050505090500185600260200280838360005b83811015612334578082015181840152602081019050612319565b5050505090500184600260200280838360005b83811015612362578082015181840152602081019050612347565b5050505090500183600260200280838360005b83811015612390578082015181840152602081019050612375565b5050505090500182602760200280838360005b838110156123be5780820151818401526020810190506123a3565b505050509050019950505050505050505050602060405180830381600087803b1580156123ea57600080fd5b505af11580156123fe573d6000803e3d6000fd5b505050506040513d602081101561241457600080fd5b8101908080519060200190929190505050151561243057600080fd5b505050505050505050565b3373ffffffffffffffffffffffffffffffffffffffff168273ffffffffffffffffffffffffffffffffffffffff161415151561247657600080fd5b80600460003373ffffffffffffffffffffffffffffffffffffffff1673ffffffffffffffffffffffffffffffffffffffff16815260200190815260200160002060008473ffffffffffffffffffffffffffffffffffffffff1673ffffffffffffffffffffffffffffffffffffffff16815260200190815260200160002060006101000a81548160ff0219169083151502179055508173ffffffffffffffffffffffffffffffffffffffff163373ffffffffffffffffffffffffffffffffffffffff167f17307eab39ab6107e8899845ad3d59bd9653f200f220920489ca2b5937696c3183604051808215151515815260200191505060405180910390a35050565b600e5481565b601560009054906101000a900473ffffffffffffffffffffffffffffffffffffffff1673ffffffffffffffffffffffffffffffffffffffff163373ffffffffffffffffffffffffffffffffffffffff161415156125d957600080fd5b7f1fb1047f612b2371ce2fabe1282c8126d06ec9bb7171c1db95ac91d3bab13fc76018600060048110151561260a57fe5b0160009054906101000a900473ffffffffffffffffffffffffffffffffffffffff166018600160040360048110151561263f57fe5b0160009054906101000a900473ffffffffffffffffffffffffffffffffffffffff16604051808373ffffffffffffffffffffffffffffffffffffffff1673ffffffffffffffffffffffffffffffffffffffff1681526020018273ffffffffffffffffffffffffffffffffffffffff1673ffffffffffffffffffffffffffffffffffffffff1681526020019250505060405180910390a16000601781905550565b60006126e9613280565b612706858560006003811015156126fc57fe5b6020020151611ae1565b81600060038110151561271557fe5b6020020181815250506000600190505b60038110156127835761275f826001830360038110151561274257fe5b6020020151868360038110151561275557fe5b6020020151611ae1565b828260038110151561276d57fe5b6020020181815250508080600101915050612725565b508281600260038110151561279457fe5b6020020151149150509392505050565b6127af848484611abc565b6127bb84848484612a9b565b15156127c657600080fd5b50505050565b60606127d782612962565b15156127e257600080fd5b600b60008381526020019081526020016000208054600181600116156101000203166002900480601f0160208091040260200160405190810160405280929190818152602001828054600181600116156101000203166002900480156128895780601f1061285e57610100808354040283529160200191612889565b820191906000526020600020905b81548152906001019060200180831161286c57829003601f168201915b50505050509050919050565b60175481565b600d5481565b601d602052816000526040600020816002811015156128bc57fe5b01600091509150505481565b6000600460008473ffffffffffffffffffffffffffffffffffffffff1673ffffffffffffffffffffffffffffffffffffffff16815260200190815260200160002060008373ffffffffffffffffffffffffffffffffffffffff1673ffffffffffffffffffffffffffffffffffffffff16815260200190815260200160002060009054906101000a900460ff16905092915050565b600c5481565b6000806001600084815260200190815260200160002060009054906101000a900473ffffffffffffffffffffffffffffffffffffffff169050600073ffffffffffffffffffffffffffffffffffffffff168173ffffffffffffffffffffffffffffffffffffffff161415915050919050565b6000806129e083611d12565b90508073ffffffffffffffffffffffffffffffffffffffff168473ffffffffffffffffffffffffffffffffffffffff161480612a4f57508373ffffffffffffffffffffffffffffffffffffffff16612a3784611623565b73ffffffffffffffffffffffffffffffffffffffff16145b80612a605750612a5f81856128c8565b5b91505092915050565b612a74838383612cbe565b612a7e8382612e85565b612a888282613029565b505050565b600081600001549050919050565b6000612abc8473ffffffffffffffffffffffffffffffffffffffff166130f0565b1515612acb5760019050612cb6565b60008473ffffffffffffffffffffffffffffffffffffffff1663150b7a02338887876040518563ffffffff167c0100000000000000000000000000000000000000000000000000000000028152600401808573ffffffffffffffffffffffffffffffffffffffff1673ffffffffffffffffffffffffffffffffffffffff1681526020018473ffffffffffffffffffffffffffffffffffffffff1673ffffffffffffffffffffffffffffffffffffffff16815260200183815260200180602001828103825283818151815260200191508051906020019080838360005b83811015612bc2578082015181840152602081019050612ba7565b50505050905090810190601f168015612bef5780820380516001836020036101000a031916815260200191505b5095505050505050602060405180830381600087803b158015612c1157600080fd5b505af1158015612c25573d6000803e3d6000fd5b505050506040513d6020811015612c3b57600080fd5b8101908080519060200190929190505050905063150b7a027c0100000000000000000000000000000000000000000000000000000000027bffffffffffffffffffffffffffffffffffffffffffffffffffffffff1916817bffffffffffffffffffffffffffffffffffffffffffffffffffffffff1916149150505b949350505050565b8273ffffffffffffffffffffffffffffffffffffffff16612cde82611d12565b73ffffffffffffffffffffffffffffffffffffffff16141515612d0057600080fd5b600073ffffffffffffffffffffffffffffffffffffffff168273ffffffffffffffffffffffffffffffffffffffff1614151515612d3c57600080fd5b612d4581613103565b612d8c600360008573ffffffffffffffffffffffffffffffffffffffff1673ffffffffffffffffffffffffffffffffffffffff1681526020019081526020016000206131c3565b612dd3600360008473ffffffffffffffffffffffffffffffffffffffff1673ffffffffffffffffffffffffffffffffffffffff1681526020019081526020016000206131e6565b816001600083815260200190815260200160002060006101000a81548173ffffffffffffffffffffffffffffffffffffffff021916908373ffffffffffffffffffffffffffffffffffffffff160217905550808273ffffffffffffffffffffffffffffffffffffffff168473ffffffffffffffffffffffffffffffffffffffff167fddf252ad1be2c89b69c2b068fc378daa952ba7f163c4a11628f55a4df523b3ef60405160405180910390a4505050565b6000612edd6001600560008673ffffffffffffffffffffffffffffffffffffffff1673ffffffffffffffffffffffffffffffffffffffff168152602001908152602001600020805490506131fc90919063ffffffff16565b90506000600660008481526020019081526020016000205490508181141515612fd0576000600560008673ffffffffffffffffffffffffffffffffffffffff1673ffffffffffffffffffffffffffffffffffffffff16815260200190815260200160002083815481101515612f4e57fe5b9060005260206000200154905080600560008773ffffffffffffffffffffffffffffffffffffffff1673ffffffffffffffffffffffffffffffffffffffff16815260200190815260200160002083815481101515612fa857fe5b9060005260206000200181905550816006600083815260200190815260200160002081905550505b600560008573ffffffffffffffffffffffffffffffffffffffff1673ffffffffffffffffffffffffffffffffffffffff16815260200190815260200160002080548091906001900361302291906132a3565b5050505050565b600560008373ffffffffffffffffffffffffffffffffffffffff1673ffffffffffffffffffffffffffffffffffffffff168152602001908152602001600020805490506006600083815260200190815260200160002081905550600560008373ffffffffffffffffffffffffffffffffffffffff1673ffffffffffffffffffffffffffffffffffffffff1681526020019081526020016000208190806001815401808255809150509060018203906000526020600020016000909192909190915055505050565b600080823b905060008111915050919050565b600073ffffffffffffffffffffffffffffffffffffffff166002600083815260200190815260200160002060009054906101000a900473ffffffffffffffffffffffffffffffffffffffff1673ffffffffffffffffffffffffffffffffffffffff161415156131c05760006002600083815260200190815260200160002060006101000a81548173ffffffffffffffffffffffffffffffffffffffff021916908373ffffffffffffffffffffffffffffffffffffffff1602179055505b50565b6131db600182600001546131fc90919063ffffffff16565b816000018190555050565b6001816000016000828254019250508190555050565b600082821115151561320d57600080fd5b600082840390508091505092915050565b6040805190810160405280600290602082028038833980820191505090505090565b826002810192821561326f579160200282015b8281111561326e578251825591602001919060010190613253565b5b50905061327c91906132cf565b5090565b606060405190810160405280600390602082028038833980820191505090505090565b8154818355818111156132ca578183600052602060002091820191016132c991906132cf565b5b505050565b6132f191905b808211156132ed5760008160009055506001016132d5565b5090565b9056fea165627a7a723058202fe5a70d34cfd457cad426394291aa534038c59ac4761a987d0b0914b01af3f70029",
  "source": "pragma solidity >=0.5.0;\n\n// import \"./dependencies/EdDSA.sol\";\n// import \"./dependencies/JubJub.sol\";\nimport '../node_modules/openzeppelin-solidity/contracts/token/ERC721/ERC721Full.sol';\n// import \"./dependencies/SafeMath.sol\";\n\ncontract Verifier{\n\n    function verifyProof(\n            uint[2] memory a,\n            uint[2] memory a_p,\n            uint[2][2] memory b,\n            uint[2] memory b_p,\n            uint[2] memory c,\n            uint[2] memory c_p,\n            uint[2] memory h,\n            uint[2] memory k,\n            uint[39] memory input\n    ) public returns (bool) {}\n\n}\n\ncontract MiMC{\n\n    function MiMCpe7(uint256,uint256,uint256,uint256) public pure returns (uint256) {}\n\n}\n\n// contract EdDSA{\n\n//     function Verify( uint256[2] memory, uint256, uint256[2] memory, uint256 )\n//         public view returns (bool) {}\n\n// }\n\n\ncontract Snappframes is ERC721Full, Verifier, MiMC {\n\n    using SafeMath for uint;\n    using SafeMath for uint256; \n\n    // the tree has depth 6, i.e. 2^6 = 64 leaves\n    uint256 public TREE_DEPTH = 6;\n\n    // each segment has depth 3, i.e. 2^3 = 8 leaves\n    uint256 public SEGMENT_DEPTH = 3;\n\n    uint256 public NUM_SEGMENTS = 2**(TREE_DEPTH - SEGMENT_DEPTH);\n    uint256 public NUM_LEAVES_PER_SEGMENT = 2**SEGMENT_DEPTH;\n\n    uint256 TOTAL_FRAMES = 1000;\n    uint256 PRICE_PER_FRAME = 1000;\n    uint256 DEPOSIT_QUEUE_MAX = 2**TREE_DEPTH;\n\n    Verifier verifier;\n    MiMC mimc;\n    // EdDSA eddsa;\n\n    address public operator;\n\n    uint256 public current_state;\n\n    uint256 public depositQueueLength = 0;\n    address[4] depositQueueAddresses;\n    mapping(address => uint[2]) depositQueue;\n    mapping(address => uint256[2]) public ecdsaToEddsa;\n\n\n    event InitialRoot(uint256 _initialRoot);\n    event Deposit(address _depositor, uint _segmentIdx, uint _leafIdx);\n    event DepositsProcessed(address _firstDepositor, address _lastDepositor);\n    event EdDSA(uint256[2] _eddsaAddr);\n\n    modifier depositQueueNotFull(){\n        require(depositQueueLength <= DEPOSIT_QUEUE_MAX);\n        _;\n    }\n\n    modifier operatorOnly(){\n        require(msg.sender == operator);\n        _;\n    }\n\n    constructor(\n        address _verifierAddr,\n        address _mimcAddr\n        // address _eddsaAddr\n    ) ERC721Full(\"Snappframes\", \"SNP\") public {\n        verifier = Verifier(_verifierAddr);\n        mimc = MiMC(_mimcAddr);\n        // eddsa = EdDSA(_eddsaAddr);\n\n        operator = msg.sender;\n    }\n\n    function setInitialRoot(\n        uint256 _initialRoot\n    ) public operatorOnly{\n        current_state = _initialRoot;\n\n        emit InitialRoot(_initialRoot);\n    }\n\n    // performs state transition\n    function update(\n            uint[2] memory a,\n            uint[2] memory a_p,\n            uint[2][2] memory b,\n            uint[2] memory b_p,\n            uint[2] memory c,\n            uint[2] memory c_p,\n            uint[2] memory h,\n            uint[2] memory k,\n            uint[39] memory input\n    ) public operatorOnly{\n        require(verifier.verifyProof(\n            a, a_p, b, b_p, c, c_p, h, k, input\n        ));\n    }\n\n    // creates accounts for people who deposit Ether\n    // @dev _from and _to are index ranges for movie frames\n    function deposit(uint _index, uint256[2] memory _eddsaPubKey) \n    public payable depositQueueNotFull{\n\n        require(msg.value >= PRICE_PER_FRAME);\n\n        depositQueueLength++;\n        depositQueueAddresses[depositQueueLength - 1] = msg.sender;\n\n        // convert idx into segmentIdx, leaf idx (on segment)\n        (uint segmentIdx, uint leafIdx) = getDivided(_index, NUM_LEAVES_PER_SEGMENT);\n        \n        depositQueue[msg.sender] = [segmentIdx, leafIdx];\n\n        // assign msg.sender to declared eddsa address\n        ecdsaToEddsa[msg.sender] = _eddsaPubKey;\n\n        emit Deposit(msg.sender, segmentIdx, leafIdx);\n\n    }\n\n    // operator updates merkle tree with deposits\n    function processDepositQueue() public operatorOnly{\n\n        emit DepositsProcessed(\n            depositQueueAddresses[0], \n            depositQueueAddresses[depositQueueAddresses.length - 1]);\n        depositQueueLength = 0;\n    }\n\n\n    // allows withdraw of ERC721 token to Ethereum address\n    // operator should process withdraws before transactions\n    function withdraw(\n        uint256 asset, \n        uint256[2] memory pubkey, //EdDSA pubKey_x and pubKey_y\n        uint256[3] memory proof,\n        uint256 root\n        // uint256 hashed_msg, //hash of msg.sender and leaf\n        // uint256[2] memory R, //EdDSA signature field\n        // uint256 s //EdDSA signature field\n    ) public {\n        uint256[2] memory eddsaPubKey = ecdsaToEddsa[msg.sender];\n        require(eddsaPubKey[0] == pubkey[0] && eddsaPubKey[1] == pubkey[1]);\n\n        // // verify EdDSA signature\n        // require(EdDSA.Verify(pubkey, hashed_msg, R, s));  \n\n        // // verify hashed msg sends leaf to msg.sender\n        // uint256 leaf = mimcHash(mimcHash(pubkey[0], pubkey[1]), asset);\n        // require(verifyMerkleProof(leaf, proof, root));\n        // // require(mimc.MiMCpe7(msg.sender, leaf) == hashed_msg);\n\n        // // generate ERC721 token\n        // bytes32 tokenId = keccak256(abi.encodePacked(pubkey[0],pubkey[1]));\n        // _mint(msg.sender, bytes32ToUint256(tokenId));\n\n        // send token to depositor on Ethereum\n    }\n    \n    // getters\n    function getEddsaAddr(address _ethAddress) public returns(uint256[2] memory){\n        uint256[2] memory eddsaAddr = ecdsaToEddsa[_ethAddress];\n\n        require(eddsaAddr[0] == 0xc92859506d52a579ab5073c239985d70a7eec5664d0f2bab72ab62133d1405c);\n        emit EdDSA(ecdsaToEddsa[_ethAddress]);\n        return ecdsaToEddsa[_ethAddress];\n\n    }\n\n\n    // helpers\n\n    function verifyMerkleProof(\n        uint256 _leafHash,\n        uint256[3] memory _merkleProof,\n        uint256 _root\n    ) public returns(bool){\n        uint256[3] memory root;\n        root[0] = mimcHash(_leafHash, _merkleProof[0]);\n        for (uint i = 1; i < 3; i++) {             \n            root[i] = mimcHash(root[i-1], _merkleProof[i]);\n        }\n        return(root[2] == _root);\n    }\n\n    function mimcHash(uint256 in_x, uint256 in_k) public returns(uint256){\n        return mimc.MiMCpe7(in_x, in_k, uint256(keccak256(\"mimc\")), 91);\n    }\n\n\n    // https://ethereum.stackexchange.com/questions/6498/how-to-convert-a-uint256-type-integer-into-a-bytes32\n    function bytes32ToUint256(bytes32 n) internal returns (uint256) {\n        return uint256(n);\n    }\n\n    function getDivided(uint numerator, uint denominator) public \n    returns(uint quotient, uint remainder) {\n        quotient  = numerator / denominator;\n        remainder = numerator - denominator * quotient;\n    }\n}\n\n",
  "sourcePath": "/home/user/snappframes/contracts/Snappframes.sol",
  "compiler": {
    "name": "solc",
    "version": "0.5.2+commit.1df8f40c.Emscripten.clang"
  },
  "schemaVersion": "3.0.6",
  "updatedAt": "2019-04-09T11:43:51.083Z",
  "devdoc": {
    "methods": {
      "approve(address,uint256)": {
        "details": "Approves another address to transfer the given token ID The zero address indicates there is no approved address. There can only be one approved address per token at a given time. Can only be called by the token owner or an approved operator.",
        "params": {
          "to": "address to be approved for the given token ID",
          "tokenId": "uint256 ID of the token to be approved"
        }
      },
      "balanceOf(address)": {
        "details": "Gets the balance of the specified address",
        "params": {
          "owner": "address to query the balance of"
        },
        "return": "uint256 representing the amount owned by the passed address"
      },
      "getApproved(uint256)": {
        "details": "Gets the approved address for a token ID, or zero if no address set Reverts if the token ID does not exist.",
        "params": {
          "tokenId": "uint256 ID of the token to query the approval of"
        },
        "return": "address currently approved for the given token ID"
      },
      "isApprovedForAll(address,address)": {
        "details": "Tells whether an operator is approved by a given owner",
        "params": {
          "operator": "operator address which you want to query the approval of",
          "owner": "owner address which you want to query the approval of"
        },
        "return": "bool whether the given operator is approved by the given owner"
      },
      "name()": {
        "details": "Gets the token name",
        "return": "string representing the token name"
      },
      "ownerOf(uint256)": {
        "details": "Gets the owner of the specified token ID",
        "params": {
          "tokenId": "uint256 ID of the token to query the owner of"
        },
        "return": "address currently marked as the owner of the given token ID"
      },
      "safeTransferFrom(address,address,uint256)": {
        "details": "Safely transfers the ownership of a given token ID to another address If the target address is a contract, it must implement `onERC721Received`, which is called upon a safe transfer, and return the magic value `bytes4(keccak256(\"onERC721Received(address,address,uint256,bytes)\"))`; otherwise, the transfer is reverted. Requires the msg.sender to be the owner, approved, or operator",
        "params": {
          "from": "current owner of the token",
          "to": "address to receive the ownership of the given token ID",
          "tokenId": "uint256 ID of the token to be transferred"
        }
      },
      "safeTransferFrom(address,address,uint256,bytes)": {
        "details": "Safely transfers the ownership of a given token ID to another address If the target address is a contract, it must implement `onERC721Received`, which is called upon a safe transfer, and return the magic value `bytes4(keccak256(\"onERC721Received(address,address,uint256,bytes)\"))`; otherwise, the transfer is reverted. Requires the msg.sender to be the owner, approved, or operator",
        "params": {
          "_data": "bytes data to send along with a safe transfer check",
          "from": "current owner of the token",
          "to": "address to receive the ownership of the given token ID",
          "tokenId": "uint256 ID of the token to be transferred"
        }
      },
      "setApprovalForAll(address,bool)": {
        "details": "Sets or unsets the approval of a given operator An operator is allowed to transfer all tokens of the sender on their behalf",
        "params": {
          "approved": "representing the status of the approval to be set",
          "to": "operator address to set the approval"
        }
      },
      "supportsInterface(bytes4)": {
        "details": "implement supportsInterface(bytes4) using a lookup table"
      },
      "symbol()": {
        "details": "Gets the token symbol",
        "return": "string representing the token symbol"
      },
      "tokenByIndex(uint256)": {
        "details": "Gets the token ID at a given index of all the tokens in this contract Reverts if the index is greater or equal to the total number of tokens",
        "params": {
          "index": "uint256 representing the index to be accessed of the tokens list"
        },
        "return": "uint256 token ID at the given index of the tokens list"
      },
      "tokenOfOwnerByIndex(address,uint256)": {
        "details": "Gets the token ID at a given index of the tokens list of the requested owner",
        "params": {
          "index": "uint256 representing the index to be accessed of the requested tokens list",
          "owner": "address owning the tokens list to be accessed"
        },
        "return": "uint256 token ID at the given index of the tokens list owned by the requested address"
      },
      "tokenURI(uint256)": {
        "details": "Returns an URI for a given token ID Throws if the token ID does not exist. May return an empty string.",
        "params": {
          "tokenId": "uint256 ID of the token to query"
        }
      },
      "totalSupply()": {
        "details": "Gets the total amount of tokens stored by the contract",
        "return": "uint256 representing the total amount of tokens"
      },
      "transferFrom(address,address,uint256)": {
        "details": "Transfers the ownership of a given token ID to another address Usage of this method is discouraged, use `safeTransferFrom` whenever possible Requires the msg.sender to be the owner, approved, or operator",
        "params": {
          "from": "current owner of the token",
          "to": "address to receive the ownership of the given token ID",
          "tokenId": "uint256 ID of the token to be transferred"
        }
      }
    }
  },
  "userdoc": {
    "methods": {}
  }
}