{
  "contractName": "Snappframes",
  "abi": [
    {
      "constant": true,
      "inputs": [
        {
          "name": "interfaceId",
          "type": "bytes4"
        }
      ],
      "name": "supportsInterface",
      "outputs": [
        {
          "name": "",
          "type": "bool"
        }
      ],
      "payable": false,
      "stateMutability": "view",
      "type": "function",
      "signature": "0x01ffc9a7"
    },
    {
      "constant": true,
      "inputs": [],
      "name": "name",
      "outputs": [
        {
          "name": "",
          "type": "string"
        }
      ],
      "payable": false,
      "stateMutability": "view",
      "type": "function",
      "signature": "0x06fdde03"
    },
    {
      "constant": true,
      "inputs": [
        {
          "name": "tokenId",
          "type": "uint256"
        }
      ],
      "name": "getApproved",
      "outputs": [
        {
          "name": "",
          "type": "address"
        }
      ],
      "payable": false,
      "stateMutability": "view",
      "type": "function",
      "signature": "0x081812fc"
    },
    {
      "constant": false,
      "inputs": [
        {
          "name": "to",
          "type": "address"
        },
        {
          "name": "tokenId",
          "type": "uint256"
        }
      ],
      "name": "approve",
      "outputs": [],
      "payable": false,
      "stateMutability": "nonpayable",
      "type": "function",
      "signature": "0x095ea7b3"
    },
    {
      "constant": true,
      "inputs": [],
      "name": "totalSupply",
      "outputs": [
        {
          "name": "",
          "type": "uint256"
        }
      ],
      "payable": false,
      "stateMutability": "view",
      "type": "function",
      "signature": "0x18160ddd"
    },
    {
      "constant": false,
      "inputs": [
        {
          "name": "from",
          "type": "address"
        },
        {
          "name": "to",
          "type": "address"
        },
        {
          "name": "tokenId",
          "type": "uint256"
        }
      ],
      "name": "transferFrom",
      "outputs": [],
      "payable": false,
      "stateMutability": "nonpayable",
      "type": "function",
      "signature": "0x23b872dd"
    },
    {
      "constant": true,
      "inputs": [
        {
          "name": "owner",
          "type": "address"
        },
        {
          "name": "index",
          "type": "uint256"
        }
      ],
      "name": "tokenOfOwnerByIndex",
      "outputs": [
        {
          "name": "",
          "type": "uint256"
        }
      ],
      "payable": false,
      "stateMutability": "view",
      "type": "function",
      "signature": "0x2f745c59"
    },
    {
      "constant": false,
      "inputs": [
        {
          "name": "a",
          "type": "uint256[2]"
        },
        {
          "name": "a_p",
          "type": "uint256[2]"
        },
        {
          "name": "b",
          "type": "uint256[2][2]"
        },
        {
          "name": "b_p",
          "type": "uint256[2]"
        },
        {
          "name": "c",
          "type": "uint256[2]"
        },
        {
          "name": "c_p",
          "type": "uint256[2]"
        },
        {
          "name": "h",
          "type": "uint256[2]"
        },
        {
          "name": "k",
          "type": "uint256[2]"
        },
        {
          "name": "input",
          "type": "uint256[39]"
        }
      ],
      "name": "verifyProof",
      "outputs": [
        {
          "name": "",
          "type": "bool"
        }
      ],
      "payable": false,
      "stateMutability": "nonpayable",
      "type": "function",
      "signature": "0x3fe6f64c"
    },
    {
      "constant": false,
      "inputs": [
        {
          "name": "from",
          "type": "address"
        },
        {
          "name": "to",
          "type": "address"
        },
        {
          "name": "tokenId",
          "type": "uint256"
        }
      ],
      "name": "safeTransferFrom",
      "outputs": [],
      "payable": false,
      "stateMutability": "nonpayable",
      "type": "function",
      "signature": "0x42842e0e"
    },
    {
      "constant": true,
      "inputs": [
        {
          "name": "index",
          "type": "uint256"
        }
      ],
      "name": "tokenByIndex",
      "outputs": [
        {
          "name": "",
          "type": "uint256"
        }
      ],
      "payable": false,
      "stateMutability": "view",
      "type": "function",
      "signature": "0x4f6ccce7"
    },
    {
      "constant": true,
      "inputs": [],
      "name": "operator",
      "outputs": [
        {
          "name": "",
          "type": "address"
        }
      ],
      "payable": false,
      "stateMutability": "view",
      "type": "function",
      "signature": "0x570ca735"
    },
    {
      "constant": true,
      "inputs": [],
      "name": "current_state",
      "outputs": [
        {
          "name": "",
          "type": "uint256"
        }
      ],
      "payable": false,
      "stateMutability": "view",
      "type": "function",
      "signature": "0x5b04cbb5"
    },
    {
      "constant": true,
      "inputs": [
        {
          "name": "tokenId",
          "type": "uint256"
        }
      ],
      "name": "ownerOf",
      "outputs": [
        {
          "name": "",
          "type": "address"
        }
      ],
      "payable": false,
      "stateMutability": "view",
      "type": "function",
      "signature": "0x6352211e"
    },
    {
      "constant": true,
      "inputs": [
        {
          "name": "owner",
          "type": "address"
        }
      ],
      "name": "balanceOf",
      "outputs": [
        {
          "name": "",
          "type": "uint256"
        }
      ],
      "payable": false,
      "stateMutability": "view",
      "type": "function",
      "signature": "0x70a08231"
    },
    {
      "constant": true,
      "inputs": [
        {
          "name": "",
          "type": "uint256"
        },
        {
          "name": "",
          "type": "uint256"
        },
        {
          "name": "",
          "type": "uint256"
        },
        {
          "name": "",
          "type": "uint256"
        }
      ],
      "name": "MiMCpe7",
      "outputs": [
        {
          "name": "",
          "type": "uint256"
        }
      ],
      "payable": false,
      "stateMutability": "pure",
      "type": "function",
      "signature": "0x7eb17125"
    },
    {
      "constant": true,
      "inputs": [],
      "name": "symbol",
      "outputs": [
        {
          "name": "",
          "type": "string"
        }
      ],
      "payable": false,
      "stateMutability": "view",
      "type": "function",
      "signature": "0x95d89b41"
    },
    {
      "constant": false,
      "inputs": [
        {
          "name": "to",
          "type": "address"
        },
        {
          "name": "approved",
          "type": "bool"
        }
      ],
      "name": "setApprovalForAll",
      "outputs": [],
      "payable": false,
      "stateMutability": "nonpayable",
      "type": "function",
      "signature": "0xa22cb465"
    },
    {
      "constant": false,
      "inputs": [
        {
          "name": "from",
          "type": "address"
        },
        {
          "name": "to",
          "type": "address"
        },
        {
          "name": "tokenId",
          "type": "uint256"
        },
        {
          "name": "_data",
          "type": "bytes"
        }
      ],
      "name": "safeTransferFrom",
      "outputs": [],
      "payable": false,
      "stateMutability": "nonpayable",
      "type": "function",
      "signature": "0xb88d4fde"
    },
    {
      "constant": true,
      "inputs": [
        {
          "name": "tokenId",
          "type": "uint256"
        }
      ],
      "name": "tokenURI",
      "outputs": [
        {
          "name": "",
          "type": "string"
        }
      ],
      "payable": false,
      "stateMutability": "view",
      "type": "function",
      "signature": "0xc87b56dd"
    },
    {
      "constant": true,
      "inputs": [],
      "name": "depositQueueLength",
      "outputs": [
        {
          "name": "",
          "type": "uint256"
        }
      ],
      "payable": false,
      "stateMutability": "view",
      "type": "function",
      "signature": "0xca11dd97"
    },
    {
      "constant": true,
      "inputs": [
        {
          "name": "",
          "type": "address"
        },
        {
          "name": "",
          "type": "uint256"
        }
      ],
      "name": "ecdsaToEddsa",
      "outputs": [
        {
          "name": "",
          "type": "uint256"
        }
      ],
      "payable": false,
      "stateMutability": "view",
      "type": "function",
      "signature": "0xdc837d49"
    },
    {
      "constant": true,
      "inputs": [
        {
          "name": "owner",
          "type": "address"
        },
        {
          "name": "operator",
          "type": "address"
        }
      ],
      "name": "isApprovedForAll",
      "outputs": [
        {
          "name": "",
          "type": "bool"
        }
      ],
      "payable": false,
      "stateMutability": "view",
      "type": "function",
      "signature": "0xe985e9c5"
    },
    {
      "constant": true,
      "inputs": [],
      "name": "TREE_DEPTH",
      "outputs": [
        {
          "name": "",
          "type": "uint256"
        }
      ],
      "payable": false,
      "stateMutability": "view",
      "type": "function",
      "signature": "0xf1650536"
    },
    {
      "inputs": [
        {
          "name": "_verifierAddr",
          "type": "address"
        },
        {
          "name": "_mimcAddr",
          "type": "address"
        }
      ],
      "payable": false,
      "stateMutability": "nonpayable",
      "type": "constructor",
      "signature": "constructor"
    },
    {
      "anonymous": false,
      "inputs": [
        {
          "indexed": false,
          "name": "_initialRoot",
          "type": "uint256"
        }
      ],
      "name": "InitialRoot",
      "type": "event",
      "signature": "0xf94e3909ba1d1a4304c5ea586ab3a69a8b4e501ba443c0342693d93877acc745"
    },
    {
      "anonymous": false,
      "inputs": [
        {
          "indexed": false,
          "name": "_depositor",
          "type": "address"
        },
        {
          "indexed": false,
          "name": "_index",
          "type": "uint256"
        }
      ],
      "name": "Deposit",
      "type": "event",
      "signature": "0xe1fffcc4923d04b559f4d29a8bfc6cda04eb5b0d3c460751c2402c5c5cc9109c"
    },
    {
      "anonymous": false,
      "inputs": [
        {
          "indexed": false,
          "name": "_firstDepositor",
          "type": "address"
        },
        {
          "indexed": false,
          "name": "_lastDepositor",
          "type": "address"
        }
      ],
      "name": "DepositsProcessed",
      "type": "event",
      "signature": "0x1fb1047f612b2371ce2fabe1282c8126d06ec9bb7171c1db95ac91d3bab13fc7"
    },
    {
      "anonymous": false,
      "inputs": [
        {
          "indexed": true,
          "name": "from",
          "type": "address"
        },
        {
          "indexed": true,
          "name": "to",
          "type": "address"
        },
        {
          "indexed": true,
          "name": "tokenId",
          "type": "uint256"
        }
      ],
      "name": "Transfer",
      "type": "event",
      "signature": "0xddf252ad1be2c89b69c2b068fc378daa952ba7f163c4a11628f55a4df523b3ef"
    },
    {
      "anonymous": false,
      "inputs": [
        {
          "indexed": true,
          "name": "owner",
          "type": "address"
        },
        {
          "indexed": true,
          "name": "approved",
          "type": "address"
        },
        {
          "indexed": true,
          "name": "tokenId",
          "type": "uint256"
        }
      ],
      "name": "Approval",
      "type": "event",
      "signature": "0x8c5be1e5ebec7d5bd14f71427d1e84f3dd0314c0f7b2291e5b200ac8c7c3b925"
    },
    {
      "anonymous": false,
      "inputs": [
        {
          "indexed": true,
          "name": "owner",
          "type": "address"
        },
        {
          "indexed": true,
          "name": "operator",
          "type": "address"
        },
        {
          "indexed": false,
          "name": "approved",
          "type": "bool"
        }
      ],
      "name": "ApprovalForAll",
      "type": "event",
      "signature": "0x17307eab39ab6107e8899845ad3d59bd9653f200f220920489ca2b5937696c31"
    },
    {
      "constant": false,
      "inputs": [
        {
          "name": "_initialRoot",
          "type": "uint256"
        }
      ],
      "name": "setInitialRoot",
      "outputs": [],
      "payable": false,
      "stateMutability": "nonpayable",
      "type": "function",
      "signature": "0x657909a3"
    },
    {
      "constant": false,
      "inputs": [
        {
          "name": "a",
          "type": "uint256[2]"
        },
        {
          "name": "a_p",
          "type": "uint256[2]"
        },
        {
          "name": "b",
          "type": "uint256[2][2]"
        },
        {
          "name": "b_p",
          "type": "uint256[2]"
        },
        {
          "name": "c",
          "type": "uint256[2]"
        },
        {
          "name": "c_p",
          "type": "uint256[2]"
        },
        {
          "name": "h",
          "type": "uint256[2]"
        },
        {
          "name": "k",
          "type": "uint256[2]"
        },
        {
          "name": "input",
          "type": "uint256[39]"
        }
      ],
      "name": "update",
      "outputs": [],
      "payable": false,
      "stateMutability": "nonpayable",
      "type": "function",
      "signature": "0x9d2faf8a"
    },
    {
      "constant": false,
      "inputs": [
        {
          "name": "_index",
          "type": "uint256"
        },
        {
          "name": "_eddsaPubKey",
          "type": "uint256[2]"
        }
      ],
      "name": "deposit",
      "outputs": [],
      "payable": true,
      "stateMutability": "payable",
      "type": "function",
      "signature": "0x71d8ded9"
    },
    {
      "constant": false,
      "inputs": [],
      "name": "processDepositQueue",
      "outputs": [],
      "payable": false,
      "stateMutability": "nonpayable",
      "type": "function",
      "signature": "0xae186911"
    },
    {
      "constant": false,
      "inputs": [
        {
          "name": "asset",
          "type": "uint256"
        },
        {
          "name": "pubkey",
          "type": "uint256[2]"
        },
        {
          "name": "proof",
          "type": "uint256[3]"
        },
        {
          "name": "root",
          "type": "uint256"
        }
      ],
      "name": "withdraw",
      "outputs": [],
      "payable": false,
      "stateMutability": "nonpayable",
      "type": "function",
      "signature": "0x0b4c2d3a"
    },
    {
      "constant": false,
      "inputs": [
        {
          "name": "_leafHash",
          "type": "uint256"
        },
        {
          "name": "_merkleProof",
          "type": "uint256[3]"
        },
        {
          "name": "_root",
          "type": "uint256"
        }
      ],
      "name": "verifyMerkleProof",
      "outputs": [
        {
          "name": "",
          "type": "bool"
        }
      ],
      "payable": false,
      "stateMutability": "nonpayable",
      "type": "function",
      "signature": "0xb75f3f5c"
    },
    {
      "constant": false,
      "inputs": [
        {
          "name": "in_x",
          "type": "uint256"
        },
        {
          "name": "in_k",
          "type": "uint256"
        }
      ],
      "name": "mimcHash",
      "outputs": [
        {
          "name": "",
          "type": "uint256"
        }
      ],
      "payable": false,
      "stateMutability": "nonpayable",
      "type": "function",
      "signature": "0x2d38a38a"
    }
  ],
  "bytecode": "0x60806040526006600c5560006011556103e86018556103e86019556004601a553480156200002c57600080fd5b50604051604080620035f6833981018060405260408110156200004e57600080fd5b8101908080519060200190929190805190602001909291905050506040805190810160405280600b81526020017f536e6170706672616d65730000000000000000000000000000000000000000008152506040805190810160405280600381526020017f534e5000000000000000000000000000000000000000000000000000000000008152508181620001146301ffc9a77c010000000000000000000000000000000000000000000000000000000002620002cc640100000000026401000000009004565b620001516380ac58cd7c010000000000000000000000000000000000000000000000000000000002620002cc640100000000026401000000009004565b6200018e63780e9d637c010000000000000000000000000000000000000000000000000000000002620002cc640100000000026401000000009004565b8160099080519060200190620001a69291906200038a565b5080600a9080519060200190620001bf9291906200038a565b50620001fd635b5e139f7c010000000000000000000000000000000000000000000000000000000002620002cc640100000000026401000000009004565b5050505081600d60006101000a81548173ffffffffffffffffffffffffffffffffffffffff021916908373ffffffffffffffffffffffffffffffffffffffff16021790555080600e60006101000a81548173ffffffffffffffffffffffffffffffffffffffff021916908373ffffffffffffffffffffffffffffffffffffffff16021790555033600f60006101000a81548173ffffffffffffffffffffffffffffffffffffffff021916908373ffffffffffffffffffffffffffffffffffffffff160217905550505062000439565b63ffffffff7c010000000000000000000000000000000000000000000000000000000002817bffffffffffffffffffffffffffffffffffffffffffffffffffffffff1916141515156200031e57600080fd5b6001600080837bffffffffffffffffffffffffffffffffffffffffffffffffffffffff19167bffffffffffffffffffffffffffffffffffffffffffffffffffffffff1916815260200190815260200160002060006101000a81548160ff02191690831515021790555050565b828054600181600116156101000203166002900490600052602060002090601f016020900481019282601f10620003cd57805160ff1916838001178555620003fe565b82800160010185558215620003fe579182015b82811115620003fd578251825591602001919060010190620003e0565b5b5090506200040d919062000411565b5090565b6200043691905b808211156200043257600081600090555060010162000418565b5090565b90565b6131ad80620004496000396000f3fe6080604052600436106101ea576000357c010000000000000000000000000000000000000000000000000000000090048063657909a311610114578063ae186911116100b2578063ca11dd9711610081578063ca11dd9714611227578063dc837d4914611252578063e985e9c5146112c1578063f16505361461134a576101ea565b8063ae18691114610fac578063b75f3f5c14610fc3578063b88d4fde14611061578063c87b56dd14611173576101ea565b80637eb17125116100ee5780637eb1712514610b9e57806395d89b4114610c0b5780639d2faf8a14610c9b578063a22cb46514610f4f576101ea565b8063657909a314610a8f57806370a0823114610aca57806371d8ded914610b2f576101ea565b80632d38a38a1161018c5780634f6ccce71161015b5780634f6ccce714610943578063570ca735146109925780635b04cbb5146109e95780636352211e14610a14576101ea565b80632d38a38a146105345780632f745c591461058d5780633fe6f64c146105fc57806342842e0e146108c8576101ea565b8063095ea7b3116101c8578063095ea7b31461036c5780630b4c2d3a146103c757806318160ddd1461048e57806323b872dd146104b9576101ea565b806301ffc9a7146101ef57806306fdde0314610261578063081812fc146102f1575b600080fd5b3480156101fb57600080fd5b506102476004803603602081101561021257600080fd5b8101908080357bffffffffffffffffffffffffffffffffffffffffffffffffffffffff19169060200190929190505050611375565b604051808215151515815260200191505060405180910390f35b34801561026d57600080fd5b506102766113dc565b6040518080602001828103825283818151815260200191508051906020019080838360005b838110156102b657808201518184015260208101905061029b565b50505050905090810190601f1680156102e35780820380516001836020036101000a031916815260200191505b509250505060405180910390f35b3480156102fd57600080fd5b5061032a6004803603602081101561031457600080fd5b810190808035906020019092919050505061147e565b604051808273ffffffffffffffffffffffffffffffffffffffff1673ffffffffffffffffffffffffffffffffffffffff16815260200191505060405180910390f35b34801561037857600080fd5b506103c56004803603604081101561038f57600080fd5b81019080803573ffffffffffffffffffffffffffffffffffffffff169060200190929190803590602001909291905050506114cf565b005b3480156103d357600080fd5b5061048c600480360360e08110156103ea57600080fd5b810190808035906020019092919080604001906002806020026040519081016040528092919082600260200280828437600081840152601f19601f820116905080830192505050505050919291929080606001906003806020026040519081016040528092919082600360200280828437600081840152601f19601f820116905080830192505050505050919291929080359060200190929190505050611614565b005b34801561049a57600080fd5b506104a36117c5565b6040518082815260200191505060405180910390f35b3480156104c557600080fd5b50610532600480360360608110156104dc57600080fd5b81019080803573ffffffffffffffffffffffffffffffffffffffff169060200190929190803573ffffffffffffffffffffffffffffffffffffffff169060200190929190803590602001909291905050506117d2565b005b34801561054057600080fd5b506105776004803603604081101561055757600080fd5b8101908080359060200190929190803590602001909291905050506117f7565b6040518082815260200191505060405180910390f35b34801561059957600080fd5b506105e6600480360360408110156105b057600080fd5b81019080803573ffffffffffffffffffffffffffffffffffffffff1690602001909291908035906020019092919050505061191d565b6040518082815260200191505060405180910390f35b34801561060857600080fd5b506108ae600480360361072081101561062057600080fd5b8101908080604001906002806020026040519081016040528092919082600260200280828437600081840152601f19601f820116905080830192505050505050919291929080604001906002806020026040519081016040528092919082600260200280828437600081840152601f19601f82011690508083019250505050505091929192908060800190600280602002604051908101604052809291906000905b82821015610716578382604002016002806020026040519081016040528092919082600260200280828437600081840152601f19601f820116905080830192505050505050815260200190600101906106c2565b50505050919291929080604001906002806020026040519081016040528092919082600260200280828437600081840152601f19601f820116905080830192505050505050919291929080604001906002806020026040519081016040528092919082600260200280828437600081840152601f19601f820116905080830192505050505050919291929080604001906002806020026040519081016040528092919082600260200280828437600081840152601f19601f820116905080830192505050505050919291929080604001906002806020026040519081016040528092919082600260200280828437600081840152601f19601f820116905080830192505050505050919291929080604001906002806020026040519081016040528092919082600260200280828437600081840152601f19601f8201169050808301925050505050509192919290806104e001906027806020026040519081016040528092919082602760200280828437600081840152601f19601f8201169050808301925050505050509192919290505050611994565b604051808215151515815260200191505060405180910390f35b3480156108d457600080fd5b50610941600480360360608110156108eb57600080fd5b81019080803573ffffffffffffffffffffffffffffffffffffffff169060200190929190803573ffffffffffffffffffffffffffffffffffffffff169060200190929190803590602001909291905050506119a3565b005b34801561094f57600080fd5b5061097c6004803603602081101561096657600080fd5b81019080803590602001909291905050506119c4565b6040518082815260200191505060405180910390f35b34801561099e57600080fd5b506109a76119fc565b604051808273ffffffffffffffffffffffffffffffffffffffff1673ffffffffffffffffffffffffffffffffffffffff16815260200191505060405180910390f35b3480156109f557600080fd5b506109fe611a22565b6040518082815260200191505060405180910390f35b348015610a2057600080fd5b50610a4d60048036036020811015610a3757600080fd5b8101908080359060200190929190505050611a28565b604051808273ffffffffffffffffffffffffffffffffffffffff1673ffffffffffffffffffffffffffffffffffffffff16815260200191505060405180910390f35b348015610a9b57600080fd5b50610ac860048036036020811015610ab257600080fd5b8101908080359060200190929190505050611aa6565b005b348015610ad657600080fd5b50610b1960048036036020811015610aed57600080fd5b81019080803573ffffffffffffffffffffffffffffffffffffffff169060200190929190505050611b43565b6040518082815260200191505060405180910390f35b610b9c60048036036060811015610b4557600080fd5b810190808035906020019092919080604001906002806020026040519081016040528092919082600260200280828437600081840152601f19601f8201169050808301925050505050509192919290505050611bce565b005b348015610baa57600080fd5b50610bf560048036036080811015610bc157600080fd5b8101908080359060200190929190803590602001909291908035906020019092919080359060200190929190505050611d5a565b6040518082815260200191505060405180910390f35b348015610c1757600080fd5b50610c20611d64565b6040518080602001828103825283818151815260200191508051906020019080838360005b83811015610c60578082015181840152602081019050610c45565b50505050905090810190601f168015610c8d5780820380516001836020036101000a031916815260200191505b509250505060405180910390f35b348015610ca757600080fd5b50610f4d6004803603610720811015610cbf57600080fd5b8101908080604001906002806020026040519081016040528092919082600260200280828437600081840152601f19601f820116905080830192505050505050919291929080604001906002806020026040519081016040528092919082600260200280828437600081840152601f19601f82011690508083019250505050505091929192908060800190600280602002604051908101604052809291906000905b82821015610db5578382604002016002806020026040519081016040528092919082600260200280828437600081840152601f19601f82011690508083019250505050505081526020019060010190610d61565b50505050919291929080604001906002806020026040519081016040528092919082600260200280828437600081840152601f19601f820116905080830192505050505050919291929080604001906002806020026040519081016040528092919082600260200280828437600081840152601f19601f820116905080830192505050505050919291929080604001906002806020026040519081016040528092919082600260200280828437600081840152601f19601f820116905080830192505050505050919291929080604001906002806020026040519081016040528092919082600260200280828437600081840152601f19601f820116905080830192505050505050919291929080604001906002806020026040519081016040528092919082600260200280828437600081840152601f19601f8201169050808301925050505050509192919290806104e001906027806020026040519081016040528092919082602760200280828437600081840152601f19601f8201169050808301925050505050509192919290505050611e06565b005b348015610f5b57600080fd5b50610faa60048036036040811015610f7257600080fd5b81019080803573ffffffffffffffffffffffffffffffffffffffff16906020019092919080351515906020019092919050505061210f565b005b348015610fb857600080fd5b50610fc161224b565b005b348015610fcf57600080fd5b50611047600480360360a0811015610fe657600080fd5b810190808035906020019092919080606001906003806020026040519081016040528092919082600360200280828437600081840152601f19601f8201169050808301925050505050509192919290803590602001909291905050506123ad565b604051808215151515815260200191505060405180910390f35b34801561106d57600080fd5b506111716004803603608081101561108457600080fd5b81019080803573ffffffffffffffffffffffffffffffffffffffff169060200190929190803573ffffffffffffffffffffffffffffffffffffffff16906020019092919080359060200190929190803590602001906401000000008111156110eb57600080fd5b8201836020820111156110fd57600080fd5b8035906020019184600183028401116401000000008311171561111f57600080fd5b91908080601f016020809104026020016040519081016040528093929190818152602001838380828437600081840152601f19601f820116905080830192505050505050509192919290505050612472565b005b34801561117f57600080fd5b506111ac6004803603602081101561119657600080fd5b810190808035906020019092919050505061249a565b6040518080602001828103825283818151815260200191508051906020019080838360005b838110156111ec5780820151818401526020810190506111d1565b50505050905090810190601f1680156112195780820380516001836020036101000a031916815260200191505b509250505060405180910390f35b34801561123357600080fd5b5061123c612563565b6040518082815260200191505060405180910390f35b34801561125e57600080fd5b506112ab6004803603604081101561127557600080fd5b81019080803573ffffffffffffffffffffffffffffffffffffffff16906020019092919080359060200190929190505050612569565b6040518082815260200191505060405180910390f35b3480156112cd57600080fd5b50611330600480360360408110156112e457600080fd5b81019080803573ffffffffffffffffffffffffffffffffffffffff169060200190929190803573ffffffffffffffffffffffffffffffffffffffff169060200190929190505050612590565b604051808215151515815260200191505060405180910390f35b34801561135657600080fd5b5061135f612624565b6040518082815260200191505060405180910390f35b6000806000837bffffffffffffffffffffffffffffffffffffffffffffffffffffffff19167bffffffffffffffffffffffffffffffffffffffffffffffffffffffff1916815260200190815260200160002060009054906101000a900460ff169050919050565b606060098054600181600116156101000203166002900480601f0160208091040260200160405190810160405280929190818152602001828054600181600116156101000203166002900480156114745780601f1061144957610100808354040283529160200191611474565b820191906000526020600020905b81548152906001019060200180831161145757829003601f168201915b5050505050905090565b60006114898261262a565b151561149457600080fd5b6002600083815260200190815260200160002060009054906101000a900473ffffffffffffffffffffffffffffffffffffffff169050919050565b60006114da82611a28565b90508073ffffffffffffffffffffffffffffffffffffffff168373ffffffffffffffffffffffffffffffffffffffff161415151561151757600080fd5b8073ffffffffffffffffffffffffffffffffffffffff163373ffffffffffffffffffffffffffffffffffffffff16148061155757506115568133612590565b5b151561156257600080fd5b826002600084815260200190815260200160002060006101000a81548173ffffffffffffffffffffffffffffffffffffffff021916908373ffffffffffffffffffffffffffffffffffffffff160217905550818373ffffffffffffffffffffffffffffffffffffffff168273ffffffffffffffffffffffffffffffffffffffff167f8c5be1e5ebec7d5bd14f71427d1e84f3dd0314c0f7b2291e5b200ac8c7c3b92560405160405180910390a4505050565b61161c6130ab565b601760003373ffffffffffffffffffffffffffffffffffffffff1673ffffffffffffffffffffffffffffffffffffffff168152602001908152602001600020600280602002604051908101604052809291908260028015611692576020028201915b81548152602001906001019080831161167e575b505050505090508360006002811015156116a857fe5b60200201518160006002811015156116bc57fe5b60200201511480156116f357508360016002811015156116d857fe5b60200201518160016002811015156116ec57fe5b6020020151145b15156116fe57600080fd5b600061173961173386600060028110151561171557fe5b602002015187600160028110151561172957fe5b60200201516117f7565b876117f7565b90506117468185856123ad565b151561175157600080fd5b600085600060028110151561176257fe5b602002015186600160028110151561177657fe5b602002015160405160200180838152602001828152602001925050506040516020818303038152906040528051906020012090506117bc336117b78361269c565b6126aa565b50505050505050565b6000600780549050905090565b6117dc33826126cb565b15156117e757600080fd5b6117f2838383612760565b505050565b6000600e60009054906101000a900473ffffffffffffffffffffffffffffffffffffffff1673ffffffffffffffffffffffffffffffffffffffff16637eb17125848460405180807f6d696d63000000000000000000000000000000000000000000000000000000008152506004019050604051809103902060019004605b6040518563ffffffff167c01000000000000000000000000000000000000000000000000000000000281526004018085815260200184815260200183815260200182815260200194505050505060206040518083038186803b1580156118da57600080fd5b505afa1580156118ee573d6000803e3d6000fd5b505050506040513d602081101561190457600080fd5b8101908080519060200190929190505050905092915050565b600061192883611b43565b8210151561193557600080fd5b600560008473ffffffffffffffffffffffffffffffffffffffff1673ffffffffffffffffffffffffffffffffffffffff1681526020019081526020016000208281548110151561198157fe5b9060005260206000200154905092915050565b60009998505050505050505050565b6119bf8383836020604051908101604052806000815250612472565b505050565b60006119ce6117c5565b821015156119db57600080fd5b6007828154811015156119ea57fe5b90600052602060002001549050919050565b600f60009054906101000a900473ffffffffffffffffffffffffffffffffffffffff1681565b60105481565b6000806001600084815260200190815260200160002060009054906101000a900473ffffffffffffffffffffffffffffffffffffffff169050600073ffffffffffffffffffffffffffffffffffffffff168173ffffffffffffffffffffffffffffffffffffffff1614151515611a9d57600080fd5b80915050919050565b600f60009054906101000a900473ffffffffffffffffffffffffffffffffffffffff1673ffffffffffffffffffffffffffffffffffffffff163373ffffffffffffffffffffffffffffffffffffffff16141515611b0257600080fd5b806010819055507ff94e3909ba1d1a4304c5ea586ab3a69a8b4e501ba443c0342693d93877acc745816040518082815260200191505060405180910390a150565b60008073ffffffffffffffffffffffffffffffffffffffff168273ffffffffffffffffffffffffffffffffffffffff1614151515611b8057600080fd5b611bc7600360008473ffffffffffffffffffffffffffffffffffffffff1673ffffffffffffffffffffffffffffffffffffffff168152602001908152602001600020612784565b9050919050565b601a5460115411151515611be157600080fd5b6019543410151515611bf257600080fd5b601160008154809291906001019190505550336012600160115403600481101515611c1957fe5b0160006101000a81548173ffffffffffffffffffffffffffffffffffffffff021916908373ffffffffffffffffffffffffffffffffffffffff16021790555081601660003373ffffffffffffffffffffffffffffffffffffffff1673ffffffffffffffffffffffffffffffffffffffff1681526020019081526020016000208190555080601760003373ffffffffffffffffffffffffffffffffffffffff1673ffffffffffffffffffffffffffffffffffffffff168152602001908152602001600020906002611cea9291906130cd565b507fe1fffcc4923d04b559f4d29a8bfc6cda04eb5b0d3c460751c2402c5c5cc9109c3383604051808373ffffffffffffffffffffffffffffffffffffffff1673ffffffffffffffffffffffffffffffffffffffff1681526020018281526020019250505060405180910390a15050565b6000949350505050565b6060600a8054600181600116156101000203166002900480601f016020809104026020016040519081016040528092919081815260200182805460018160011615610100020316600290048015611dfc5780601f10611dd157610100808354040283529160200191611dfc565b820191906000526020600020905b815481529060010190602001808311611ddf57829003601f168201915b5050505050905090565b600f60009054906101000a900473ffffffffffffffffffffffffffffffffffffffff1673ffffffffffffffffffffffffffffffffffffffff163373ffffffffffffffffffffffffffffffffffffffff16141515611e6257600080fd5b600d60009054906101000a900473ffffffffffffffffffffffffffffffffffffffff1673ffffffffffffffffffffffffffffffffffffffff16633fe6f64c8a8a8a8a8a8a8a8a8a6040518a63ffffffff167c0100000000000000000000000000000000000000000000000000000000028152600401808a600260200280838360005b83811015611eff578082015181840152602081019050611ee4565b5050505090500189600260200280838360005b83811015611f2d578082015181840152602081019050611f12565b505050509050018860026000925b81841015611f815782846020020151600260200280838360005b83811015611f70578082015181840152602081019050611f55565b505050509050019260010192611f3b565b9250505087600260200280838360005b83811015611fac578082015181840152602081019050611f91565b5050505090500186600260200280838360005b83811015611fda578082015181840152602081019050611fbf565b5050505090500185600260200280838360005b83811015612008578082015181840152602081019050611fed565b5050505090500184600260200280838360005b8381101561203657808201518184015260208101905061201b565b5050505090500183600260200280838360005b83811015612064578082015181840152602081019050612049565b5050505090500182602760200280838360005b83811015612092578082015181840152602081019050612077565b505050509050019950505050505050505050602060405180830381600087803b1580156120be57600080fd5b505af11580156120d2573d6000803e3d6000fd5b505050506040513d60208110156120e857600080fd5b8101908080519060200190929190505050151561210457600080fd5b505050505050505050565b3373ffffffffffffffffffffffffffffffffffffffff168273ffffffffffffffffffffffffffffffffffffffff161415151561214a57600080fd5b80600460003373ffffffffffffffffffffffffffffffffffffffff1673ffffffffffffffffffffffffffffffffffffffff16815260200190815260200160002060008473ffffffffffffffffffffffffffffffffffffffff1673ffffffffffffffffffffffffffffffffffffffff16815260200190815260200160002060006101000a81548160ff0219169083151502179055508173ffffffffffffffffffffffffffffffffffffffff163373ffffffffffffffffffffffffffffffffffffffff167f17307eab39ab6107e8899845ad3d59bd9653f200f220920489ca2b5937696c3183604051808215151515815260200191505060405180910390a35050565b600f60009054906101000a900473ffffffffffffffffffffffffffffffffffffffff1673ffffffffffffffffffffffffffffffffffffffff163373ffffffffffffffffffffffffffffffffffffffff161415156122a757600080fd5b7f1fb1047f612b2371ce2fabe1282c8126d06ec9bb7171c1db95ac91d3bab13fc7601260006004811015156122d857fe5b0160009054906101000a900473ffffffffffffffffffffffffffffffffffffffff166012600160040360048110151561230d57fe5b0160009054906101000a900473ffffffffffffffffffffffffffffffffffffffff16604051808373ffffffffffffffffffffffffffffffffffffffff1673ffffffffffffffffffffffffffffffffffffffff1681526020018273ffffffffffffffffffffffffffffffffffffffff1673ffffffffffffffffffffffffffffffffffffffff1681526020019250505060405180910390a16000601181905550565b60006123b761310d565b6123d4858560006003811015156123ca57fe5b60200201516117f7565b8160006003811015156123e357fe5b6020020181815250506000600190505b60038110156124515761242d826001830360038110151561241057fe5b6020020151868360038110151561242357fe5b60200201516117f7565b828260038110151561243b57fe5b60200201818152505080806001019150506123f3565b508281600260038110151561246257fe5b6020020151149150509392505050565b61247d8484846117d2565b61248984848484612792565b151561249457600080fd5b50505050565b60606124a58261262a565b15156124b057600080fd5b600b60008381526020019081526020016000208054600181600116156101000203166002900480601f0160208091040260200160405190810160405280929190818152602001828054600181600116156101000203166002900480156125575780601f1061252c57610100808354040283529160200191612557565b820191906000526020600020905b81548152906001019060200180831161253a57829003601f168201915b50505050509050919050565b60115481565b60176020528160005260406000208160028110151561258457fe5b01600091509150505481565b6000600460008473ffffffffffffffffffffffffffffffffffffffff1673ffffffffffffffffffffffffffffffffffffffff16815260200190815260200160002060008373ffffffffffffffffffffffffffffffffffffffff1673ffffffffffffffffffffffffffffffffffffffff16815260200190815260200160002060009054906101000a900460ff16905092915050565b600c5481565b6000806001600084815260200190815260200160002060009054906101000a900473ffffffffffffffffffffffffffffffffffffffff169050600073ffffffffffffffffffffffffffffffffffffffff168173ffffffffffffffffffffffffffffffffffffffff161415915050919050565b600081600190049050919050565b6126b482826129b5565b6126be8282612aff565b6126c781612bc6565b5050565b6000806126d783611a28565b90508073ffffffffffffffffffffffffffffffffffffffff168473ffffffffffffffffffffffffffffffffffffffff16148061274657508373ffffffffffffffffffffffffffffffffffffffff1661272e8461147e565b73ffffffffffffffffffffffffffffffffffffffff16145b8061275757506127568185612590565b5b91505092915050565b61276b838383612c12565b6127758382612dd9565b61277f8282612aff565b505050565b600081600001549050919050565b60006127b38473ffffffffffffffffffffffffffffffffffffffff16612f7d565b15156127c257600190506129ad565b60008473ffffffffffffffffffffffffffffffffffffffff1663150b7a02338887876040518563ffffffff167c0100000000000000000000000000000000000000000000000000000000028152600401808573ffffffffffffffffffffffffffffffffffffffff1673ffffffffffffffffffffffffffffffffffffffff1681526020018473ffffffffffffffffffffffffffffffffffffffff1673ffffffffffffffffffffffffffffffffffffffff16815260200183815260200180602001828103825283818151815260200191508051906020019080838360005b838110156128b957808201518184015260208101905061289e565b50505050905090810190601f1680156128e65780820380516001836020036101000a031916815260200191505b5095505050505050602060405180830381600087803b15801561290857600080fd5b505af115801561291c573d6000803e3d6000fd5b505050506040513d602081101561293257600080fd5b8101908080519060200190929190505050905063150b7a027c0100000000000000000000000000000000000000000000000000000000027bffffffffffffffffffffffffffffffffffffffffffffffffffffffff1916817bffffffffffffffffffffffffffffffffffffffffffffffffffffffff1916149150505b949350505050565b600073ffffffffffffffffffffffffffffffffffffffff168273ffffffffffffffffffffffffffffffffffffffff16141515156129f157600080fd5b6129fa8161262a565b151515612a0657600080fd5b816001600083815260200190815260200160002060006101000a81548173ffffffffffffffffffffffffffffffffffffffff021916908373ffffffffffffffffffffffffffffffffffffffff160217905550612a9f600360008473ffffffffffffffffffffffffffffffffffffffff1673ffffffffffffffffffffffffffffffffffffffff168152602001908152602001600020612f90565b808273ffffffffffffffffffffffffffffffffffffffff16600073ffffffffffffffffffffffffffffffffffffffff167fddf252ad1be2c89b69c2b068fc378daa952ba7f163c4a11628f55a4df523b3ef60405160405180910390a45050565b600560008373ffffffffffffffffffffffffffffffffffffffff1673ffffffffffffffffffffffffffffffffffffffff168152602001908152602001600020805490506006600083815260200190815260200160002081905550600560008373ffffffffffffffffffffffffffffffffffffffff1673ffffffffffffffffffffffffffffffffffffffff1681526020019081526020016000208190806001815401808255809150509060018203906000526020600020016000909192909190915055505050565b6007805490506008600083815260200190815260200160002081905550600781908060018154018082558091505090600182039060005260206000200160009091929091909150555050565b8273ffffffffffffffffffffffffffffffffffffffff16612c3282611a28565b73ffffffffffffffffffffffffffffffffffffffff16141515612c5457600080fd5b600073ffffffffffffffffffffffffffffffffffffffff168273ffffffffffffffffffffffffffffffffffffffff1614151515612c9057600080fd5b612c9981612fa6565b612ce0600360008573ffffffffffffffffffffffffffffffffffffffff1673ffffffffffffffffffffffffffffffffffffffff168152602001908152602001600020613066565b612d27600360008473ffffffffffffffffffffffffffffffffffffffff1673ffffffffffffffffffffffffffffffffffffffff168152602001908152602001600020612f90565b816001600083815260200190815260200160002060006101000a81548173ffffffffffffffffffffffffffffffffffffffff021916908373ffffffffffffffffffffffffffffffffffffffff160217905550808273ffffffffffffffffffffffffffffffffffffffff168473ffffffffffffffffffffffffffffffffffffffff167fddf252ad1be2c89b69c2b068fc378daa952ba7f163c4a11628f55a4df523b3ef60405160405180910390a4505050565b6000612e316001600560008673ffffffffffffffffffffffffffffffffffffffff1673ffffffffffffffffffffffffffffffffffffffff1681526020019081526020016000208054905061308990919063ffffffff16565b90506000600660008481526020019081526020016000205490508181141515612f24576000600560008673ffffffffffffffffffffffffffffffffffffffff1673ffffffffffffffffffffffffffffffffffffffff16815260200190815260200160002083815481101515612ea257fe5b9060005260206000200154905080600560008773ffffffffffffffffffffffffffffffffffffffff1673ffffffffffffffffffffffffffffffffffffffff16815260200190815260200160002083815481101515612efc57fe5b9060005260206000200181905550816006600083815260200190815260200160002081905550505b600560008573ffffffffffffffffffffffffffffffffffffffff1673ffffffffffffffffffffffffffffffffffffffff168152602001908152602001600020805480919060019003612f769190613130565b5050505050565b600080823b905060008111915050919050565b6001816000016000828254019250508190555050565b600073ffffffffffffffffffffffffffffffffffffffff166002600083815260200190815260200160002060009054906101000a900473ffffffffffffffffffffffffffffffffffffffff1673ffffffffffffffffffffffffffffffffffffffff161415156130635760006002600083815260200190815260200160002060006101000a81548173ffffffffffffffffffffffffffffffffffffffff021916908373ffffffffffffffffffffffffffffffffffffffff1602179055505b50565b61307e6001826000015461308990919063ffffffff16565b816000018190555050565b600082821115151561309a57600080fd5b600082840390508091505092915050565b6040805190810160405280600290602082028038833980820191505090505090565b82600281019282156130fc579160200282015b828111156130fb5782518255916020019190600101906130e0565b5b509050613109919061315c565b5090565b606060405190810160405280600390602082028038833980820191505090505090565b81548183558181111561315757818360005260206000209182019101613156919061315c565b5b505050565b61317e91905b8082111561317a576000816000905550600101613162565b5090565b9056fea165627a7a723058200ab6b5101a11fb7800b641098a3ca441f4978cd3745ef99ed832b339db427a930029",
  "source": "pragma solidity >=0.5.0;\n\n// import \"./dependencies/EdDSA.sol\";\n// import \"./dependencies/JubJub.sol\";\nimport '../node_modules/openzeppelin-solidity/contracts/token/ERC721/ERC721Full.sol';\n// import \"./dependencies/SafeMath.sol\";\n\ncontract Verifier{\n\n    function verifyProof(\n            uint[2] memory a,\n            uint[2] memory a_p,\n            uint[2][2] memory b,\n            uint[2] memory b_p,\n            uint[2] memory c,\n            uint[2] memory c_p,\n            uint[2] memory h,\n            uint[2] memory k,\n            uint[39] memory input\n    ) public returns (bool) {}\n\n}\n\ncontract MiMC{\n\n    function MiMCpe7(uint256,uint256,uint256,uint256) public pure returns (uint256) {}\n\n}\n\n// contract EdDSA{\n\n//     function Verify( uint256[2] memory, uint256, uint256[2] memory, uint256 )\n//         public view returns (bool) {}\n\n// }\n\n\ncontract Snappframes is ERC721Full, Verifier, MiMC {\n\n    using SafeMath for uint;\n    using SafeMath for uint256; \n\n\n    uint256 public TREE_DEPTH = 6;\n\n    Verifier verifier;\n    MiMC mimc;\n    // EdDSA eddsa;\n\n    address public operator;\n\n    uint256 public current_state;\n\n    uint256 public depositQueueLength = 0;\n    address[4] depositQueueAddresses;\n    mapping(address => uint) depositQueue;\n    mapping(address => uint256[2]) public ecdsaToEddsa;\n\n    uint256 TOTAL_FRAMES = 1000;\n    uint256 PRICE_PER_FRAME = 1000;\n    uint256 DEPOSIT_QUEUE_MAX = 4;\n\n    event InitialRoot(uint256 _initialRoot);\n    event Deposit(address _depositor, uint _index);\n    event DepositsProcessed(address _firstDepositor, address _lastDepositor);\n\n    modifier depositQueueNotFull(){\n        require(depositQueueLength <= DEPOSIT_QUEUE_MAX);\n        _;\n    }\n\n    modifier operatorOnly(){\n        require(msg.sender == operator);\n        _;\n    }\n\n    constructor(\n        address _verifierAddr,\n        address _mimcAddr\n        // address _eddsaAddr\n    ) ERC721Full(\"Snappframes\", \"SNP\") public {\n        verifier = Verifier(_verifierAddr);\n        mimc = MiMC(_mimcAddr);\n        // eddsa = EdDSA(_eddsaAddr);\n\n        operator = msg.sender;\n    }\n\n    function setInitialRoot(\n        uint256 _initialRoot\n    ) public operatorOnly{\n        current_state = _initialRoot;\n\n        emit InitialRoot(_initialRoot);\n    }\n\n    // performs state transition\n    function update(\n            uint[2] memory a,\n            uint[2] memory a_p,\n            uint[2][2] memory b,\n            uint[2] memory b_p,\n            uint[2] memory c,\n            uint[2] memory c_p,\n            uint[2] memory h,\n            uint[2] memory k,\n            uint[39] memory input\n    ) public operatorOnly{\n        require(verifier.verifyProof(\n            a, a_p, b, b_p, c, c_p, h, k, input\n        ));\n    }\n\n    // creates accounts for people who deposit Ether\n    // @dev _from and _to are index ranges for movie frames\n    function deposit(uint _index, uint256[2] memory _eddsaPubKey) \n    public payable depositQueueNotFull{\n\n        require(msg.value >= PRICE_PER_FRAME);\n\n        depositQueueLength++;\n        depositQueueAddresses[depositQueueLength - 1] = msg.sender;\n        depositQueue[msg.sender] = _index;\n\n        ecdsaToEddsa[msg.sender] = _eddsaPubKey;\n\n        emit Deposit(msg.sender, _index);\n\n    }\n\n    // operator updates merkle tree with deposits\n    function processDepositQueue() public operatorOnly{\n        emit DepositsProcessed(\n            depositQueueAddresses[0], \n            depositQueueAddresses[depositQueueAddresses.length - 1]);\n        depositQueueLength = 0;\n    }\n\n\n    // allows withdraw of ERC721 token to Ethereum address\n    // operator should process withdraws before transactions\n    function withdraw(\n        uint256 asset, \n        uint256[2] memory pubkey, //EdDSA pubKey_x and pubKey_y\n        uint256[3] memory proof,\n        uint256 root\n        // uint256 hashed_msg, //hash of msg.sender and leaf\n        // uint256[2] memory R, //EdDSA signature field\n        // uint256 s //EdDSA signature field\n    ) public {\n        uint256[2] memory eddsaPubKey = ecdsaToEddsa[msg.sender];\n        require(eddsaPubKey[0] == pubkey[0] && eddsaPubKey[1] == pubkey[1]);\n\n        // // verify EdDSA signature\n        // require(EdDSA.Verify(pubkey, hashed_msg, R, s));  \n\n        // verify hashed msg sends leaf to msg.sender\n        uint256 leaf = mimcHash(mimcHash(pubkey[0], pubkey[1]), asset);\n        require(verifyMerkleProof(leaf, proof, root));\n        // require(mimc.MiMCpe7(msg.sender, leaf) == hashed_msg);\n\n        // generate ERC721 token\n        bytes32 tokenId = keccak256(abi.encodePacked(pubkey[0],pubkey[1]));\n        _mint(msg.sender, bytes32ToUint256(tokenId));\n\n        // send token to depositor on Ethereum\n    }\n\n    // helpers\n\n    function verifyMerkleProof(\n        uint256 _leafHash,\n        uint256[3] memory _merkleProof,\n        uint256 _root\n    ) public returns(bool){\n        uint256[3] memory root;\n        root[0] = mimcHash(_leafHash, _merkleProof[0]);\n        for (uint i = 1; i < 3; i++) {             \n            root[i] = mimcHash(root[i-1], _merkleProof[i]);\n        }\n        return(root[2] == _root);\n    }\n\n    function mimcHash(uint256 in_x, uint256 in_k) public returns(uint256){\n        return mimc.MiMCpe7(in_x, in_k, uint256(keccak256(\"mimc\")), 91);\n    }\n\n\n    // https://ethereum.stackexchange.com/questions/6498/how-to-convert-a-uint256-type-integer-into-a-bytes32\n    function bytes32ToUint256(bytes32 n) internal returns (uint256) {\n        return uint256(n);\n    }\n\n\n}",
  "sourcePath": "/home/user/snappframes/contracts/Snappframes.sol",
  "compiler": {
    "name": "solc",
    "version": "0.5.2+commit.1df8f40c.Emscripten.clang"
  },
  "schemaVersion": "3.0.6",
  "updatedAt": "2019-04-09T06:30:38.206Z",
  "devdoc": {
    "methods": {
      "approve(address,uint256)": {
        "details": "Approves another address to transfer the given token ID The zero address indicates there is no approved address. There can only be one approved address per token at a given time. Can only be called by the token owner or an approved operator.",
        "params": {
          "to": "address to be approved for the given token ID",
          "tokenId": "uint256 ID of the token to be approved"
        }
      },
      "balanceOf(address)": {
        "details": "Gets the balance of the specified address",
        "params": {
          "owner": "address to query the balance of"
        },
        "return": "uint256 representing the amount owned by the passed address"
      },
      "getApproved(uint256)": {
        "details": "Gets the approved address for a token ID, or zero if no address set Reverts if the token ID does not exist.",
        "params": {
          "tokenId": "uint256 ID of the token to query the approval of"
        },
        "return": "address currently approved for the given token ID"
      },
      "isApprovedForAll(address,address)": {
        "details": "Tells whether an operator is approved by a given owner",
        "params": {
          "operator": "operator address which you want to query the approval of",
          "owner": "owner address which you want to query the approval of"
        },
        "return": "bool whether the given operator is approved by the given owner"
      },
      "name()": {
        "details": "Gets the token name",
        "return": "string representing the token name"
      },
      "ownerOf(uint256)": {
        "details": "Gets the owner of the specified token ID",
        "params": {
          "tokenId": "uint256 ID of the token to query the owner of"
        },
        "return": "address currently marked as the owner of the given token ID"
      },
      "safeTransferFrom(address,address,uint256)": {
        "details": "Safely transfers the ownership of a given token ID to another address If the target address is a contract, it must implement `onERC721Received`, which is called upon a safe transfer, and return the magic value `bytes4(keccak256(\"onERC721Received(address,address,uint256,bytes)\"))`; otherwise, the transfer is reverted. Requires the msg.sender to be the owner, approved, or operator",
        "params": {
          "from": "current owner of the token",
          "to": "address to receive the ownership of the given token ID",
          "tokenId": "uint256 ID of the token to be transferred"
        }
      },
      "safeTransferFrom(address,address,uint256,bytes)": {
        "details": "Safely transfers the ownership of a given token ID to another address If the target address is a contract, it must implement `onERC721Received`, which is called upon a safe transfer, and return the magic value `bytes4(keccak256(\"onERC721Received(address,address,uint256,bytes)\"))`; otherwise, the transfer is reverted. Requires the msg.sender to be the owner, approved, or operator",
        "params": {
          "_data": "bytes data to send along with a safe transfer check",
          "from": "current owner of the token",
          "to": "address to receive the ownership of the given token ID",
          "tokenId": "uint256 ID of the token to be transferred"
        }
      },
      "setApprovalForAll(address,bool)": {
        "details": "Sets or unsets the approval of a given operator An operator is allowed to transfer all tokens of the sender on their behalf",
        "params": {
          "approved": "representing the status of the approval to be set",
          "to": "operator address to set the approval"
        }
      },
      "supportsInterface(bytes4)": {
        "details": "implement supportsInterface(bytes4) using a lookup table"
      },
      "symbol()": {
        "details": "Gets the token symbol",
        "return": "string representing the token symbol"
      },
      "tokenByIndex(uint256)": {
        "details": "Gets the token ID at a given index of all the tokens in this contract Reverts if the index is greater or equal to the total number of tokens",
        "params": {
          "index": "uint256 representing the index to be accessed of the tokens list"
        },
        "return": "uint256 token ID at the given index of the tokens list"
      },
      "tokenOfOwnerByIndex(address,uint256)": {
        "details": "Gets the token ID at a given index of the tokens list of the requested owner",
        "params": {
          "index": "uint256 representing the index to be accessed of the requested tokens list",
          "owner": "address owning the tokens list to be accessed"
        },
        "return": "uint256 token ID at the given index of the tokens list owned by the requested address"
      },
      "tokenURI(uint256)": {
        "details": "Returns an URI for a given token ID Throws if the token ID does not exist. May return an empty string.",
        "params": {
          "tokenId": "uint256 ID of the token to query"
        }
      },
      "totalSupply()": {
        "details": "Gets the total amount of tokens stored by the contract",
        "return": "uint256 representing the total amount of tokens"
      },
      "transferFrom(address,address,uint256)": {
        "details": "Transfers the ownership of a given token ID to another address Usage of this method is discouraged, use `safeTransferFrom` whenever possible Requires the msg.sender to be the owner, approved, or operator",
        "params": {
          "from": "current owner of the token",
          "to": "address to receive the ownership of the given token ID",
          "tokenId": "uint256 ID of the token to be transferred"
        }
      }
    }
  },
  "userdoc": {
    "methods": {}
  }
}